:020000040800F2
:1000000000000220650C0008090C0008090C00081B
:10001000090C0008090C0008090C00080000000089
:100020000000000000000000000000000D0C0008AF
:10003000090C000800000000BD010008FD0E0008CA
:10004000090C0008090C0008090C0008090C00083C
:10005000090C0008090C000845060008690600089C
:100060008D060008B1060008D5060008090C000836
:10007000090C0008090C0008090C0008090C00080C
:10008000090C0008090C0008090C0008090C0008FC
:10009000090C0008090C0008090C0008F906000802
:1000A000090C0008090C0008090C0008090C0008DC
:1000B000090C0008090C0008090C0008090C0008CC
:1000C000090C0008090C0008090C0008090C0008BC
:1000D000090C0008DD2100083D220008090C000879
:1000E00075070008090C0008090C0008090C000835
:1000F000090C0008090C0008090C0008090C00088C
:10010000090C0008090C0008090C0008090C00087B
:10011000090C0008090C0008090C0008090C00086B
:10012000090C0008090C0008090C0008090C00085B
:10013000090C0008090C0008090C0008090C00084B
:10014000090C0008090C0008090C0008A138000877
:10015000090C0008090C0008090C0008A12200087D
:10016000090C0008090C0008090C0008090C00081B
:10017000090C0008090C0008090C0008090C00080B
:08018000090C0008090C00083D
:10018800021C7346F8C043464C4655465E466F46C9
:10019800F8C0F8CA00207047021C1430F8C8984606
:1001A800A146AA46B346BD46F8CA081C00D101209C
:1001B800184700BFEFF3098020E9F00F05490968E7
:1001C8000860054909680868B0E8F00F80F30988F5
:1001D80070470000D4020020D002002030B530B1B2
:1001E80001281BD001300BD04FF0FF3030BD0F4B32
:1001F8000F4A1B681068DB6880219847002030BDD3
:100208000A4D0B4C2B6820689B68802198472B6807
:1002180020685B689847C0F3C01030BD034B044AA0
:100228001B6810689B6880219847E7E70400002056
:100238000800002000B5064801F0DCF8054B064A26
:100248001B6810681B68984700205DF804FB00BF16
:10025800CC4800080400002008000020F0B5104F2A
:10026800104E38689AB0002100F036F80E4801F0B8
:10027800C1F86422002101A801F0B2F8386805220B
:1002880001A900F02DF80DF103050024214615F809
:10029800012F3046013401F0ADF8072CF6D1EDE717
:1002A80000000020F4480008EC48000800B54FF4AE
:1002B8000061054801F018FF044B186800F008F8C1
:1002C80001205DF804FB00BF650200080000002063
:1002D800C3681B68184700BFC3689B68184700BFFE
:1002E800C3681B69184700BF406800F08FBA00BF99
:1002F800406800F081B900BF406800F05BB900BFFA
:10030800406800F035B900BF00B5406800F010F94A
:100318000028A8BF80B25DF804FB00BF406800F069
:1003280001B800BF2DE9F043064686B000254FF01E
:10033800030873882B41DB0725D56A007468B16808
:1003480008FA02F31C40D440012C07D0022C4AD0F2
:1003580004B34FF0FF3006B0BDE8F0833778012FC3
:1003680071D0022F5AD0002FF3D12146204601F038
:10037800FBFC029403946B480497AC4001A90597D1
:10038800019401F02DFC0135102DD2D1002006B0CA
:10039800BDE8F08396F800900B40B9F1010F23FAFD
:1003A80002F700F0A680B9F1020F00F08A80B9F1D7
:1003B800000FCED10121084601F0D6FC012303939A
:1003C800012F03FA05F3CDF80890CDF810900193AA
:1003D80003D0022F01D0002FBBD15248059701A9A5
:1003E80001F0FEFBCFE73778012F56D0022F3FD020
:1003F800002FAED10121084601F0B6FC012303FA13
:1004080005F24848019201A9013502930493039328
:10041800059301F0E5FB102D8BD1B7E721460420A9
:1004280001F0A2FC04FA05F301933F48029400236B
:1004380001A9013504930394059301F0D1FB102D14
:100448007FF477AFA2E73946022001F08DFC07FA66
:1004580005F3019335480297002301A90135049358
:100468000397059301F0BCFB102D7FF462AF8DE775
:100478000121042001F078FC012303FA05F22A483F
:10048800019201A90135029304930393059301F0A6
:10049800A7FB102D7FF44DAF78E72046394601F0D1
:1004A80063FC07FA05F32148019301A90135029776
:1004B80004970397059701F093FB102D7FF439AF4C
:1004C80064E70121042001F04FFC01230393012F6D
:1004D80003FA05F302940494019304D0022F02D086
:1004E800002F7FF436AF1048059701A901F078FB7B
:1004F80049E74946022001F037FC09FA05F3012FC4
:1005080002940494CDF80C90019304D0022F02D0E9
:10051800002F7FF41EAF0548059701A901F060FB85
:1005280031E700BF0000024000080240000402401A
:1005380010B50378012B044605D0022B0DD043B12A
:100548004FF0FF3010BD074801F0A0FB638818404A
:1005580010BD054801F09AFBF8E7044801F096FB46
:10056800F4E700BF00040240000002400008024017
:1005780000B503784288012B01EA020106D0022B5C
:100588000ED04BB14FF0FF305DF804FB064801F088
:1005980081FB00205DF804FB044801F07BFBF8E7D1
:1005A800034801F077FBF4E7000402400000024032
:1005B8000008024000B503784288012B01EA0201D5
:1005C80006D0022B0ED04BB14FF0FF305DF804FB84
:1005D800064801F063FB00205DF804FB044801F0C5
:1005E8005DFBF8E7034801F059FBF4E7000402401B
:1005F800000002400008024000B503784288012B41
:1006080001EA020106D0022B0ED04BB14FF0FF30A9
:100618005DF804FB064801F045FB00205DF804FB8B
:10062800044801F03FFBF8E7034801F03BFBF4E71F
:1006380000040240000002400008024000B501200A
:1006480001F0BEFA38B1054B1B6898475DF804EB1A
:10065800012001F0BFBA5DF804FB00BF880200204A
:1006680000B5022001F0ACFA38B1054B5B68984739
:100678005DF804EB022001F0ADBA5DF804FB00BFA1
:100688008802002000B5042001F09AFA38B1054B21
:100698009B6898475DF804EB042001F09BBA5DF86D
:1006A80004FB00BF8802002000B5082001F088FA8A
:1006B80038B1054BDB6898475DF804EB082001F07A
:1006C80089BA5DF804FB00BF8802002000B510203D
:1006D80001F076FA38B1054B1B6998475DF804EBD1
:1006E800102001F077BA5DF804FB00BF88020020F3
:1006F80000B5202001F064FA28B11B4B5B699847CC
:10070800202001F067FA402001F05AFA28B1164B70
:100718009B699847402001F05DFA802001F050FA6B
:1007280028B1114BDB699847802001F053FA4FF448
:10073800807001F045FA30B10B4B1B6A98474FF4B3
:10074800807001F047FA4FF4007001F039FA40B1B7
:10075800054B5B6A98475DF804EB4FF4007001F0B5
:1007680039BA5DF804FB00BF8802002000B54FF4D9
:10077800806001F025FA30B1234B9B6A98474FF40B
:10078800806001F027FA4FF4006001F019FA30B1E7
:100798001D4BDB6A98474FF4006001F01BFA4FF4D9
:1007A800805001F00DFA30B1174B1B6B98474FF48E
:1007B800805001F00FFA4FF4005001F001FA30B107
:1007C800114B5B6B98474FF4005001F003FA4FF45C
:1007D800804001F0F5F930B10B4B9B6B98474FF413
:1007E800804001F0F7F94FF4004001F0E9F940B119
:1007F800054BDB6B98475DF804EB4FF4004001F0C4
:10080800E9B95DF804FB00BF88020020F0B51D4679
:1008180086B00C46064601214FF48040174601F089
:10082800C7FA032D6CD0042D05D0022D66D04FF0E9
:10083800FF3006B0F0BD1022307804920123002169
:1008480005930193012840F201130391ADF801309B
:1008580000F08780022800F0D7800028E7D1B4F59F
:10086800807F00F0478165DC202C4BDC8C42DEDD8C
:10087800013C1F2CDBD801A353F824F0890B000896
:10088800710B000837080008590B000837080008E2
:100898003708000837080008410B00083708000827
:1008A8003708000837080008370800083708000824
:1008B8003708000837080008290B0008370800081F
:1008C8003708000837080008370800083708000804
:1008D80037080008370800083708000837080008F4
:1008E80037080008370800083708000837080008E4
:1008F8003708000837080008110B000808229BE792
:100908000C2299E7402C00F06381802C8FD10721BD
:1009180001F066FAB84B029417228DF80020DF61C7
:1009280002A801F00DF9B548694600F003FB002064
:1009380006B0F0BDB4F5805F00F0408178DDB4F515
:10094800804F00F0CD80B4F5004F40F082800F2139
:1009580001F046FAA84B029428228DF80020DF63A4
:10096800DEE7B4F5807F00F0C58000F38380202C9B
:10097800C8DC002C7FF75BAF013C1F2C3FF657AF5C
:1009880001A353F824F000BFBF0B0008B90B0008FF
:1009980037080008B30B00083708000837080008B4
:1009A80037080008AD0B00083708000837080008AA
:1009B8003708000837080008370800083708000813
:1009C80037080008A70B0008370800083708000890
:1009D80037080008370800083708000837080008F3
:1009E80037080008370800083708000837080008E3
:1009F80037080008370800083708000837080008D3
:100A080037080008A10B0008B4F5804F68D0B4F58A
:100A1800004F9CD0B4F5005F7FF409AF0D2101F0C1
:100A2800DFF9754B029428228DF800205F6377E781
:100A3800B4F5806F00F0D680B4F5006F2AD10B2191
:100A480001F0CEF96C4B029428228DF80020DF6269
:100A580066E7B4F5005F7FF4EAAE0D21002001F0EF
:100A6800BFF9654B4FF40051282202918DF8002000
:100A78005F6355E7B4F5805F00F0A0801BDDB4F537
:100A8800804F2DD0B4F5004F3FF461AFB4F5005F4F
:100A9800C4D0CCE6B4F5007F7FF4C9AE09210020AC
:100AA80001F09EF9544B4FF40071172202918DF812
:100AB80000205F6234E7B4F5806F00F09380B4F5EE
:100AC800006FBCD0B4F5007F7FF4B1AE092101F00E
:100AD80087F9494B029417228DF800205F621FE7BF
:100AE8000E2101F07DF9444B029428228DF8002054
:100AF8009F6315E7082101F073F93F4B0294172211
:100B08008DF800201F620BE70521002001F068F92D
:100B1800394B2021172202918DF800205F61FFE6F2
:100B28000421002001F05CF9334B10210A220291C4
:100B38008DF800201F61F3E60321002001F050F931
:100B48002D4B0821092202918DF80020DF60E7E68D
:100B58000221002001F044F9274B042108220291C8
:100B68008DF800209F60DBE60121002001F038F9B4
:100B7800214B0221072202918DF800205F60CFE609
:100B88000021084601F02CF91B4B01210622029195
:100B98008DF800201F60C3E605210120B6E7042177
:100BA8000120BFE703210120C8E702210120D1E786
:100BB80001210846DAE700210120E3E70C2101F0D2
:100BC8000FF90D4B029428228DF800201F63A7E629
:100BD800062101F005F9084B029417228DF8002030
:100BE8009F619DE60A2101F0FBF8034B029428223D
:100BF8008DF800209F6293E688020020D116000835
:100C0800704700BFEFF309831A685868104700BFA0
:100C1800436893F86620032A01D000207047B3F890
:100C28006220002AF9D0013A92B2A3F86220002A81
:100C3800F3D1012283F86620EFE700BF4FF0E022EE
:100C4800136943F001031361704700BF4FF0E022BE
:100C5800136923F001031361704700BF114B124A57
:100C6800934200B50CD2013AD21A22F003020432A0
:100C78000E491A4451F8040B43F8040B9342F9D176
:100C88000B4B0C4A93420AD2013AD21A22F00302C1
:100C980004321A44002143F8041B9342FBD100F0AC
:100CA80015FCFEE700000020840200200C4C000820
:100CB80084020020B81300200C4B1B685B6810B539
:100CC8005C68606D0368B3F1333F00D110BDA16D5E
:100CD80002F052FCA36D626DB4F86010044800F095
:100CE80089FBBDE81040034801F098B9680000206E
:100CF800644900080AC0FFFF00B5002001F034FC79
:100D0800003818BF01205DF804FB00BF00B50020C3
:100D180001F0B2FC5DF804FB10B5C1B20446002036
:100D280001F060FC204610BD2DE9F0472D4BDFF89F
:100D3800B8805B6ADFF8B490B8F80020D9F80040B2
:100D4800284E86B09BB2ADF80C30BDF80C309BB283
:100D58009A42BDF80C30BDF80CA088BF01341FFAC8
:100D68008AFA4FEA04424FF47A7588BFC9F80040FE
:100D78004FEA144CA0FB055E12EB0A004CF100018F
:100D8800049005919BB20027716A89B2ADF80E10E4
:100D9800BDF80E1089B2994204D201344FEA144CBE
:100DA80022040127BDF80E30BDF80EA004A903C91E
:100DB8008DE8030001991FFA8AFABAEB000061EB8B
:100DC8004101101841EB0C01A84271EB0E019BB2D6
:100DD800DAD3A8F800300FB1C9F8004006B0BDE872
:100DE800F08700BF00480140CC020020C802002064
:100DF8002DE9F043294BDFF8A8805B6ADFF8A4905F
:100E0800B8F80020D9F80060244F84B09BB2ADF840
:100E18000430BDF804309BB29A42BDF80420BDF8F6
:100E2800043088BF01369BB24FEA064188BFC9F833
:100E380000604FEA164CCC184CF10005029403955B
:100E480092B24FF0000E7B6A9BB2ADF80630BDF847
:100E580006309BB2934205D201364FEA164C310454
:100E68004FF0010EBDF80620BDF8063002AD30CDBA
:100E78009BB21B1B65EB4504CB1844EB0C04834267
:100E880074F1000492B2DED3A8F80020BEF1000F7E
:100E980001D0C9F8006004B0BDE8F0830048014003
:100EA800CC020020C80200200F4B104A5B6A118850
:100EB80082B09BB2ADF80630BDF80630BDF806C06A
:100EC800A2F800C09BB29942094B186884BF013050
:100ED8001860BDF80630010C9BB20004C01841F13F
:100EE800000102B0704700BF00480140CC0200205A
:100EF800C802002030B50B4D2B685B685C68FFF7B3
:100F0800D3FF094B2C341C6001F0E4F82B68074A26
:100F18005B6807495B682C330B60536843F0805368
:100F2800536030BD68000020D402002000ED00E0CE
:100F3800D00200200BDF704710B50A4C23681B68ED
:100F48009B685BB1FFF7B8FE236807491868002261
:100F580000F0A8FABDE8104001F082B8034801F09B
:100F68005DF8EFE768000020190C000801C0FFFFDA
:100F78002DE9F047514DDFF84891DFF8488186B0F8
:100F880000F09AFF01F00EF82B684F494F48A1FB7B
:100F980003134FF0E022C3F35713013B53610024BE
:100FA8000623F02680F8236001219461136180F8FC
:100FB80022604FF4802000F0FBFE03A800F068FFD9
:100FC8002B68434A434DADF81440A2FB03239B0C06
:100FD8004FF6FF72284603A9ADF80C300492ADF81D
:100FE8000E4000F015FF2146284600F059FF28461C
:100FF8006C62012100F054FF22464FF4E131204693
:1010080001F07CF93448334E02F09AFA334802F082
:101018009DFA334802F0A0FA6B6AB9F80020D8F8B4
:101028000040304D9BB2ADF80830BDF808309BB297
:101038009A42BDF80830BDF808A088BF01341FFAED
:101048008AFA4FEA044288BFC8F800404FEA144CB5
:1010580012EB0A004CF100010390049100279BB2A7
:10106800BE46716A89B2ADF80A10BDF80A1089B295
:101078008B4204D901344FEA144C22040127BDF8ED
:101088000A30BDF80AA003A903C98DE80300019935
:101098001FFA8AFABAEB000061EB4101801841EBB4
:1010A8000C0185427EEB01019BB2DAD2A9F800302F
:1010B8000FB1C8F8004006B0BDE8F0876400002012
:1010C800CC020020C80200201F85EB5100ED00E093
:1010D80083DE1B4300480140210D0008150D000860
:1010E800010D00087F841E0072B6704762B6BFF318
:1010F8006F8F704701480021FFF71CBF450C00089F
:1011080001480021FFF716BF550C00080C4B1B685F
:101118005A6893F866305268792B05D14FF0E02170
:101128000B6943F001030B61836A403383F3098839
:10113800032383F31488BFF36F8F1368184700BF26
:1011480068000020114410B4A1F140024FF08074EF
:1011580041620360826201E9180010BC704700BF59
:101168002DE9F04F0B7884B0894604461746ABB397
:10117800252B25D199F80130302B00F0D780A3F129
:101188003002092A09F101094FF0200B40F2D880FA
:101198004FF0FF35583B202B1AD8DFE803F02A1907
:1011A800191919191919191919B2601919191919C7
:1011B80019196C191919AD191976197219192A0002
:1011C800002C00F0CB802268137023680133236061
:1011D80099F8013009F10109002BC9D12CB1236814
:1011E80000221A70236801332360002004B0BDE890
:1011F800F08F57F8048B1021B8F1000F39D14FF058
:1012080030038DF80030EA460123EB1A002B03F176
:10121800FF360ADD002C00F08580236883F800B0D3
:10122800236801332360013EF4D208F101055544D7
:1012380006E0236818702368013323605545C7D03A
:1012480015F8010D002CF4D10028F7D002F08AF926
:101258005545BDD015F8010D0028EFD0F6E757F831
:10126800048BB8F1000FC0F290800A21B8F1000F8A
:10127800C5D0464694E057F8048B09F101090A21C4
:10128800BAE757F8048B0A21B6E757F8046B002E23
:101298006FD03078002800F09B80002D98D06CB17A
:1012A8002368187023680133236016F8010F6B1E3A
:1012B80058B1002B8CD01D46002CF1D102F052F908
:1012C80016F8010F6B1E0028F3D1AE1E002B7FF716
:1012D8007FAF6CB1236883F800B0236801332360C3
:1012E800002E06F1FF337FF773AF1E46002CF1D1B5
:1012F800584602F037F9F3E757F8048B1021042514
:101308007AE757F8040B002C38D02268107023684D
:101318000133236099F8013009F10109002B7FF4AA
:1013280027AF5BE7584602F01DF97CE79B4699F822
:101338000230A3F13002092A09F102093FF628AF69
:10134800002505EB850503EB450519F8013FA3F1D9
:101358003002092AA5F13005F3D91BE7184602F037
:1013680001F999F8013009F10109002B7FF400AF68
:1013780034E7194E3C20002D91D129E710F0FF00E9
:101388003FF426AF02F0EEF822E7C8F10006DCB120
:1013980023682D221A70236801332360013D0A2136
:1013A800EA46DFF838E0D44600233046B6FBF1F6CB
:1013B80001FB160288421EF802200CF8012B984601
:1013C80003F10103F1D220E72D2002F0CBF8E5E785
:1013D8006E1E2B467AE700BF8C4900089449000826
:1013E80032B1C9B20244034603F8011B9342FBD150
:1013F800704700BF0FB400B582B003AA002052F8AE
:10140800041B0192FFF7ACFE02B05DF804EB04B0D8
:10141800704700BF30B50C2000F0DAF80446C8B1B8
:10142800082000F0D5F8054688B1082000F0D0F86B
:1014380090B14DF6AD6385E809000022002380E8ED
:101448000C00002325606060A360204630BD204664
:1014580000F090F80024F8E7204600F08BF82846C2
:1014680000F088F8F6E700BF30B5044608200D46BE
:1014780000F0AEF8034650B10020002183E80300D5
:10148800A2686068013280E828006360A26030BD0D
:101498000B681A680AB11846704703681B68184633
:1014A800704700BF036870B51C6823680E46154670
:1014B8001BB908E0246823682BB120462946B047A9
:1014C8000028F7D070BD002070BD00BF30B5204D9A
:1014D800204C81B0FFF74CFD1F4A20492048FFF7F8
:1014E80089FF29461F4800F0CBF829461E48FFF718
:1014F80081FF2568FFF78EFF236828601B681BB3F0
:10150800FEF7D4FE134B009018680830FEF738FE3B
:10151800104C23681A68916881B1009900290CBFA2
:101528006E21792183F86610126812685A60506833
:101538000430FFF7EBFD002001B030BD0B4800F090
:101548006DFD23681A68E8E7094800F067FDD7E7EA
:1015580048CC010068000020A8490008C4490008D8
:10156800CC490008B8130020E449000801C0FFFF77
:1015780002C0FFFF30B5134D2B6893F86630792B06
:1015880004460AD050F8043C0F49104A096823F071
:10159800010340F8043C116030BDFFF7A5FD2A683F
:1015A80054F8043C92F8662007480849006823F07C
:1015B8000103792A44F8043C0860EDD1BDE83040C5
:1015C800FFF794BD68000020DC020020D80200204C
:1015D800F0B5294C236893F866E0C61CBEF1790F74
:1015E80081B026F0030635D0244F39686FF007051F
:1015F8000C4606F1080C0868002834D04B6813F034
:10160800010301D106E00068436813F00103FAD131
:10161800044601463BB90A682AB1536803F001033E
:101628001146002BF7D02B1B0B44634584E80A00B6
:10163800E1D304EB0C0346F00106BEF1790F3C60E0
:101648006660236044F80C105D6009D004F108005E
:1016580001B0F0BDFFF748FD236893F866E0C3E7E3
:10166800FFF744FDF2E7BEF1790FF1D10090FFF7E3
:101678003DFD0098ECE700BF68000020D80200207C
:10168800A1F1080C033121F00301103910B44160B5
:10169800064C074900EB0C030022036040F80C20BD
:1016A80020605A6010BC0860704700BFDC02002050
:1016B800D8020020034B40F0BF6040F40030D860EF
:1016C800704700BF00ED00E0436823B3184B417832
:1016D800DA688378D243C2F30222C2F1040C5FFABB
:1016E8008CFC01FA0CF14FF00F0C4CFA02FCC9B259
:1016F8000278104803EA0C030B4300EB020C1B01B1
:10170800DBB251098CF8003302F01F020123934029
:1017180040F821307047037806485A09012103F040
:101728001F03203201FA03F340F82230704700BF4C
:1017380000ED00E000E100E030B585684468002372
:101748002B80E368984700280ADB23794BB1012BEB
:101758000BD123694FF0FF30984701232B700020ED
:1017680030BD236901209847F7E74FF0FF3030BDBF
:1017780030B584682378ABB10C4D2B6893F866308C
:10178800792B03D000236370002030BDFFF7ACFC39
:101798002B6893F866300022792B6270F4D1FFF73A
:1017A800A5FCF1E74FF0FF3030BD00BF6800002016
:1017B80070B58668337881B00D4623B3134C23681F
:1017C80093F86630792B09D0707820B901237370AB
:1017D800CDB901B070BD4FF0FF30F9E7FFF784FCD9
:1017E8007078236850B193F866304FF0FF30792B4A
:1017F800EED10090FFF77AFC0098E9E7012293F810
:1018080066307270F3E74FF0FF30E2E768000020BF
:101818002DE9F04F836881461878D9F8046086B0BE
:101828009046002800F0B08002F1010A4A1E059295
:101838000396CDF808A00491C346694B1B6893F83A
:101848006630792B00F0A680039E33694FF0FF3095
:1018580098470028F9D1FFF727FB039E04460F4657
:1018680033694FF0FF3098470028F9D0FFF71CFB89
:10187800001B61EB0702B0F5167F72F10003C0F0A0
:101888008D80FFF711FB039E0446884633694FF0AD
:10189800FF3098470028F9D10746FFF705FB001BE2
:1018A80061EB08015A2871F10001C0F08180BBF199
:1018B800FF3F00F08A80059B3A46082700240193E1
:1018C800BA460092D9F804703B694FF0FF30984748
:1018D8000028F9D0FFF7E8FA0546884602E03B6998
:1018E800984750B1FFF7E0FA461B61EB0801652EF7
:1018F80071F100014FF0FF30F1D3502E41DC282E5A
:10190800D4BF0020012040EA4400BAF1010AC4B261
:10191800D8D19DE80C00029903F8014F0132914299
:10192800CBD117460C46012F55DD039A049B5179FC
:101938001B78B1EB530F4FEA530234D13D461F4693
:10194800049BD846B8F1000F0AD008F1FF30059A79
:1019580018444FF0000812F8011F82428844FAD157
:10196800FA0729D55B5D5FFA88F843450CD11C4B13
:101978001B6893F86630792B24D0204606B0BDE862
:10198800F08F009F3C46CEE74FF0FF34204606B06C
:10199800BDE8F08FFFF7B4FB039E56E701461148F8
:1019A800FFF728FD49E739460F48FFF723FD44E7CD
:1019B8000E48FFF71FFD40E76FF00104204606B010
:1019C800BDE8F08FFFF796FBD7E7049B3D46D84666
:1019D8001F782C46B9E7049B3D46D8461F78B1E7E7
:1019E80068000020004A0008144A00080C4A000851
:1019F80070B505460C4608262B69002098472868CC
:101A0800FFF7F6F92B69012098472868230648BF95
:101A18004000FFF7EDF96400013EE4B2ECD170BD7F
:101A28002DE9F04F83681B7806468B469046002BBD
:101A380049D0D0F80490002A66D04C1E571E234681
:101A48003944002513F8012F99421544FAD1DFF8DB
:101A5800ECA0DAF8003093F86630792BEDB23AD082
:101A6800D9F81030002098474FF46170FFF7C0F99B
:101A7800D9F81030012098476420FFF7B9F95F447E
:101A880014F8011F7068FFF7B3FFA742F8D1294681
:101A98007068FFF7ADFFD9F8103000209847D9F8E3
:101AA8000000FFF7A5F9D9F8103001209847642005
:101AB800FFF79EF9DAF8003093F86630792B06D0F4
:101AC8004046BDE8F08F4FF0FF30BDE8F08FFFF7DC
:101AD80011FBF5E74546FFF713FBD9F81030002056
:101AE80098474FF46170FFF783F9D9F81030012057
:101AF80098476420FFF77CF9B8F1000FC7D00BF1C5
:101B0800FF3408F1FF37BAE7DFF830A0DAF8003021
:101B180093F86630792BDDD0D9F8103040469847D5
:101B28004FF46170FFF764F9D9F810300120984735
:101B38006420FFF75DF94546A9E700BF680000206B
:101B4800C36810B433B31D4B01681C68426824EAAB
:101B580001041C605C6802F1804202F59E3224EAAE
:101B680001045C6014682143116002689C68816804
:101B780024EA02049C60D868102920EA0200D86090
:101B880014D001F1804303F59E3310BC19680A4351
:101B98001A60704790E80A0003F1804303F59E330A
:101BA80010BC1A6822EA01021A607047996810BCD2
:101BB80011439960D9680A43DA607047003C0140D4
:101BC800034B5B69184214BF01200020704700BF17
:101BD800003C0140014B5861704700BF003C014088
:101BE80000222DE9F04713460D684FF0010E032639
:101BF80004E00133102B02F1020245D00EFA03FC77
:101C08003CEA0504F5D10768D1F8048006FA02F425
:101C180027EA04070760D0F800A008FA02F908F1DB
:101C2800FF3849EA0A09B8F1010F2746C0F80090C1
:101C38006FEA040419D8D0F8088004EA080484601C
:101C48008C68D0F80880944044EA08048460D0F88E
:101C580004808C8928EA0C0CC0F804C0D0F804C0B1
:101C68009C40A4B244EA0C044460D0F80CC00C694F
:101C78002CEA0707C760C768944001333C43102B20
:101C8800C46002F10202B9D1BDE8F087006980B2F0
:101C9800704700BF89B28161704700BF0904816144
:101CA800704700BF436989B259404161704700BF1E
:101CB800C1F3CC0300EB830001F00701036A89003C
:101CC8004FF00F0C0CFA01FC23EA0C030362036AC1
:101CD800D2B28A401A430262704700BF1E4A936814
:101CE80003F00C03042B10B41AD0082B1AD01B4B8A
:101CF800194A036094681A49C4F303140C5DE3405D
:101D080043609468C4F382240C5D23FA04F484606D
:101D1800926810BCC2F342328A5CD340C3607047F9
:101D2800104BE5E75368516813F4800F536814BFEC
:101D38000C4A0A4AC3F3881301F03F01B2FBF1F2DF
:101D480002FB03F3044A5268C2F301420132520013
:101D5800B3FBF2F3CCE700BF003802400024F400E4
:101D68004400002040787D01044A136B11B10343FD
:101D78001363704723EA0003136370470038024077
:101D8800044A536B11B103435363704723EA0003BA
:101D98005363704700380240044A136C11B103437F
:101DA8001364704723EA0003136470470038024045
:101DB800044A536C11B103435364704723EA000388
:101DC8005364704700380240044A136A11B1034350
:101DD8001362704723EA0003136270470038024019
:101DE80001F0FC0303F1804303F59C3301F0030188
:101DF8009A6889004FF00F0C0CFA01FC22EA0C02D9
:101E08009A609A68C0B2884010439860704700BFD3
:101E180010B41E4C0268A04293B227D0B0F1804F94
:101E280015D0A4F57C44A04211D004F58064A042EA
:101E38000DD004F58064A04209D04C680B8892B29A
:101E48000260C4628362012310BC43617047B1F829
:101E580002C04C680A8823F0700343EA0C0303604D
:101E68000123C462826210BC436170474A8810BC77
:101E780023F07003134303604A680B88C2628362CD
:101E88008B7A036301234361704700BF0000014060
:101E980000234FF0FF324260038103608372704772
:101EA800036819B143F00103036070474FF6FE72EF
:101EB80013400360704700BF344A35481368002157
:101EC80043F0010313609160136823F0847323F4D3
:101ED800803313605060136882B023F4802313604A
:101EE800D16000910191136843F48033136003E0DB
:101EF800009BB3F5A04F09D0136803F40033019396
:101F0800009B01330093019B002BF1D01F4B1B68F2
:101F180013F4003318BF01230193019B012B05D053
:101F28001C4B4FF000629A6002B07047174B1A4979
:101F38001A6C1A4842F080521A640A6842F4404205
:101F48000A609A689A609A689A609A6842F480521D
:101F58009A6058601A6842F080721A601A68920192
:101F6800FCD50F4A40F203611160996821F0030122
:101F78009960996841F00201A2F5806299609368BE
:101F880003F00C03082BFAD1CAE700BF003802405F
:101F98001030002400ED00E0007000401960410896
:101FA800003C0240164A936803F00C03042B0CD043
:101FB800082B0CD0134B124A134892681349C2F3EA
:101FC8000312825CD3400B607047114BF3E75368F0
:101FD800516813F4800F536814BF0D4A094AC3F3BC
:101FE800881301F03F01B2FBF1F202FB03F3044A4C
:101FF8005268C2F3014201325200B3FBF2F3DAE74E
:10200800003802400024F40054000020640000203E
:1020180040787D014FF0FF30704700BF10B504468F
:10202800FFF762F821460A48FFF7E4F9094B0A4925
:102038001A6813688B4204D105E052F8083F8B42B6
:1020480001D09C42F9D151680448FFF7D3F9FEE763
:10205800204A0008F001002011C0FFFF304A0008A4
:1020680030B51A4D2B6859684A6892F866000228FC
:1020780004BF012082F8660042F2127400E02B6867
:102088001868FFF705FA013C436801461BD093F82E
:102098006620012AF3D1DA6D002AF0D1B3F8642062
:1020A800013A92B2D0B2A3F864200028E7D1286898
:1020B8000224416042EA122283F86640B3F86000C5
:1020C800A3F8642030BD0248FFF7A8FF680000208D
:1020D80001C0FFFF034B1A68136E01331366FEF746
:1020E8002BBF00BF68000020F0B5064681B068200D
:1020F8008DB2FFF76DFA044600285CD0314F3B687B
:1021080093F86620792A4ED018682146FFF7ACF973
:10211800002850D039684460B1F864202660002354
:1021280041F61F7C02F1010EE365A4F86230A56553
:102138002846A1F864E0A4F8602084F86630A4F882
:1021480064C0FFF745FA6065002837D03B6893F80C
:102158006630792B2BD02A466921FFF741F9606D4B
:1021680004223321FFF73CF9606D05F18043043BFD
:1021780000EB830033210422FFF732F9616D334607
:102188002A46201DFEF7DEFFA06D636D2268B4F8B5
:10219800601000900C48FFF72DF90123002084F807
:1021A800663001B0F0BDFEF79FFF3B68ACE7FEF775
:1021B8009DFF606DCFE70548FFF730FF0448FFF744
:1021C8002DFF00BF68000020384A000803C0FFFF49
:1021D80004C0FFFF30B5154D154C144840F2255189
:1021E80001F0D6FA03462846FBB101F0ABFAB4F881
:1021F8008230B4F88020013303F07F0392B2934217
:10220800C0B20CD0B4F8822092B2A054A4F88230A4
:10221800B4F8843001339BB2A4F88430DDE7D4F8F5
:1022280088300133C4F88830D7E730BD001001404A
:10223800E402002030B5164D164C154840F22551E1
:1022480001F0A6FA034628460BB301F07BFAB4F86E
:102258001231B4F81021013303F07F0392B2934294
:10226800C0B20ED0B4F8122114FA82F282F89000AB
:10227800A4F81231B4F8143101339BB2A4F8143124
:10228800DBE7D4F818310133C4F81831D5E730BD8D
:1022980000440040E402002030B5164D164C1548A5
:1022A80040F2255101F074FA034628460BB301F0B9
:1022B80049FAB4F8A231B4F8A021013303F07F033E
:1022C80092B29342C0B20ED0B4F8A22114FA82F2AC
:1022D80082F82001A4F8A231B4F8A43101339BB2EA
:1022E800A4F8A431DBE7D4F8A8310133C4F8A83145
:1022F800D5E730BD00140140E4020020F0B5C0B2BB
:102308008DB00D46D4B2062805D8DFE800F0A371D9
:102318003E04040408004FF0FF300DB0F0BD012169
:102328000846FFF721FD01212020FFF741FD8148E4
:1023380008220B21FFF7BCFC7E4808220C21FFF77E
:10234800B7FC002602237C4809934FF4C05208A921
:1023580001270A9308920B960C97FFF741FC4FF45C
:1023680040237648049504A9ADF81C6005960693A9
:1023780001F078F9002C00F0C6807048012101F0C6
:10238800D1F96F4B83F88C408CE001210846FFF7A8
:10239800EBFC01214FF40030FFF7FEFC65480722F3
:1023A8000221FFF785FC634807220321FFF780FC21
:1023B800002602235F4809930C2208A901270A93E3
:1023C80008920B960C97FFF70BFC4FF440235D48DF
:1023D800049504A9ADF81C600596069301F042F92E
:1023E800002C79D05748012101F09CF9564BC9E7D8
:1023F80001210220FFF7B8FC01211020FFF7D8FCCB
:10240800524807220621FFF753FC072211464F487E
:10241800FFF74EFC002602234C480993C02208A966
:1024280001270A9308920B960C97FFF7D9FB4FF4F4
:1024380040234748049504A9ADF81C600596069307
:1024480001F010F9002C30D04148012101F06AF95F
:10245800404B97E701210846FFF786FC4FF40044FC
:10246800002334480B93012508A90A930C93089478
:102478000995FFF7B5FB21462E48FFF70FFC6420AE
:10248800FEF752FC21462B48FFF704FC4FF4FA7084
:10249800FEF74AFC30490091304B314A3148294611
:1024A80000F0D6FC00200DB0F0BD29483A4640F2B5
:1024B800255101F04BF9252302A8ADF808308DF815
:1024C8000A400397FFF700F9224BA3F88040A3F8CE
:1024D8008240A3F88440B7E71A483A4640F22551AB
:1024E80001F034F9262302A8ADF808308DF80A4027
:1024F8000397FFF7E9F8174BA3F81041A3F8124127
:10250800A3F814416EE70D483A4640F2255101F010
:102518001DF9472302A8ADF808308DF80A40039743
:10252800FFF7D2F80B4BA3F8A041A3F8A241A3F8F8
:10253800A44122E7000002400008024000140140C4
:1025480004040020004400407403002000040240FA
:1025580000100140E4020020C8010020D40000203F
:10256800AC01002094040020C0B200B5062805D8AC
:10257800DFE800F0282214040404070000205DF8B6
:1025880004FB1248202101F0FBF8114B93F88C2032
:102598006AB1003818BF01205DF804FB0D482021FE
:1025A80001F0EEF80C4B93F88C20002AF1D1B3F827
:1025B800840080B25DF804FB0848202101F0E0F8AF
:1025C800074BE3E700F0FEFA5DF804FB0014014056
:1025D800040400200044004074030020001001405F
:1025E800E4020020C0B210B5CCB2062833D8DFE828
:1025F80000F028041C32323210001B48802101F000
:10260800BFF80028F9D021461748BDE8104001F06E
:1026180095B81648802101F0B3F80028F9D0214672
:102628001248BDE8104001F089B81148802101F036
:10263800A7F80028F9D021460D48BDE8104001F060
:102648007DB8204600F0ACFA0A4A1368642B03F1FF
:10265800010101D0116010BD0023BDE81040052024
:102668001360FEF761BB00BF001001400014014079
:1026780000440040E002002030B5C0B282B0062815
:102688000FD8DFE800F0046A3E0E0E0E11000DF1BF
:10269800070000F0A3FA0028F9D09DF8070002B05F
:1026A80030BD002002B030BD554C94F8AC51002D1F
:1026B80040F08180B4F8A021B4F8A23192B29BB264
:1026C8009A42F7D0FEF710FDB4F8A021B4F8A23171
:1026D80092B29BB29A4269D0B4F8A03114FA83F34B
:1026E80093F82051B4F8A031013303F07F03A4F824
:1026F800A031B4F8A431013B9BB2EDB2A4F8A431E7
:1027080054E03F4C94F81C51002D6CD1B4F81021C2
:10271800B4F8123192B29BB29A42F7D0FEF7E4FCB9
:10272800B4F81021B4F8123192B29BB29A423DD05B
:10273800B4F8103114FA83F393F89050B4F81031C8
:10274800013303F07F03A4F81031B4F81431013BCE
:102758009BB2EDB2A4F8143128E0294C94F88C50BF
:10276800002D34D1B4F88020B4F8823092B29BB2F4
:102778009A42F7D0FEF7B8FCB4F88020B4F882305B
:1027880092B29BB29A4211D0B4F880309BB2E55C09
:10279800B4F88030013303F07F03A4F88030B4F834
:1027A8008430013B9BB2EDB2A4F884308DF8075019
:1027B800FEF79CFC71E7134C2021204600F0E0FF57
:1027C8000028F9D00F4800F0BDFFC0B267E70E4CF3
:1027D8002021204600F0D4FF0028F9D00A4800F054
:1027E800B1FFC0B25BE7094C2021204600F0C8FFCA
:1027F8000028F9D0054800F0A5FFC0B24FE700BF98
:10280800E402002000140140001001400044004090
:1028180010B5074C2068FF2807D0064A064B1268F7
:102828009B6806499847FF232360002010BD00BF1E
:1028380000010020880A0020480100209C0A00208E
:10284800432301480B807047040100201F4A136886
:10285800052B70B503F1010102D01160002070BD95
:102868001B4D2978002301291360F7D0194E3168D0
:10287800B1F5006F20D0184B1C68A14223D0174A2D
:1028880094BF641AC1F5006412FA81F2D0F8EC35ED
:10289800B3F83930A3420BD21944E41A3160104915
:1028A8000C6001212970812101F01AFD002070BD02
:1028B800214423460024F1E7074A3360146814B121
:1028C800064A1946E2E700232B70C7E7840A00206E
:1028D8008C0A0020940A0020980A0020A40A0020EC
:1028E800900A0020C9B201EB810130B500EBC101AB
:1028F800094D0A4BB1F888131B69044628469847C6
:10290800D4F8EC352A46B3F840300121204601F0CE
:10291800C1FC002030BD00BFA412002048010020E7
:1029280030B50B7813F060020C46054610D0202A0B
:1029380017D1CA88CAB11B0634D5204B20499B68D9
:1029480060789847E2881E49284600F009FB06E0AF
:102958004B780A2B0FD00B2B1FD0062B10D0002042
:1029680030BD00F07BFD022030BD144B48789B68D9
:1029780011469847F3E71349012200F0F1FAEEE710
:102988004B881B0A212B03D1CA883A2A28BF3A222E
:102998000D49284600F0E4FAE1E78B785BB9094A6B
:1029A8001360DCE709490A4B64780C6004491A6033
:1029B80000F0F0FAD3E700F051FDD0E7480100201D
:1029C8009C0A0020E41200201601002000010020CB
:1029D800880A002010B58121044601F041FC01213C
:1029E800204601F03DFC8221204601F039FC024BD3
:1029F8005B689847002010BD48010020D0F8EC25FE
:102A080010B50446B2F839200223812101F0EEFB0B
:102A1800D4F8EC250223B2F840200121204601F029
:102A2800E5FB032308228221204601F0DFFB084A48
:102A3800084B022191801B689847D4F8EC35064A68
:102A4800B3F840300121204601F024FC002010BDDD
:102A58009801002048010020A412002070B5134BF3
:102A68001A78012A01D0002070BD114C216899B153
:102A7800D0F8EC350F4DB3F8393099420FD9CE1A4A
:102A880029688AB2194426600B4C296022448121A6
:102A980001F026FC002070BD1970002070BD2A6866
:102AA8000B460026114492B2EDE700BF8C0A0020C5
:102AB800900A0020940A0020A40A002000207047F1
:102AC800202810B414D021280FD1104B1A680A708E
:102AD8001A68120A4A705A888A70DA78CA701A799B
:102AE8000A715A794A719B798B71002010BC704722
:102AF800064B91F804C048798A790C68587183F8B4
:102B080004C09A711C60002010BC70475C01002052
:102B180010B599B100EB010E094C0A4901380EF1C4
:102B2800FF3E0A6810F801CF04F802C0531CB3F541
:102B3800006F08BF002386450B60F2D1002010BD4E
:102B4800A40A0020980A002070B5F1B1104B114C6E
:102B58001E68114D2368014401F1FF3E013802E06F
:102B68007045134611D07F2B08BF002103F10102E5
:102B780008BF0A4610F801CF05F803C018BF114670
:102B880096422160ECD1022070BD002070BD00BFCC
:102B9800E8120020EC120020F012002000207047FC
:102BA800064A116810B44B1C054CB3F5006F60540D
:102BB80008BF002310BC1360704700BF980A0020AC
:102BC800A40A0020034A044B10681B68C01A18BFE7
:102BD80001207047EC120020E81200200B4B0C4A31
:102BE80010B411681C688C4203460CD0094C615C17
:102BF8001970116810BC01207F2901EB000308BF80
:102C0800002313607047002010BC7047EC120020AE
:102C1800E8120020F012002010B5D0F8E435044680
:102C28001B699847032384F81231002010BD00BFA8
:102C380000B5D0F8E435042280F81221DB68984703
:102C480000205DF804FB00BFD0F8E035DB6900B573
:102C580003B1984700205DF804FB00BF00B5D0F829
:102C6800E0351B6A984700205DF804FB00B5D0F8F2
:102C7800E0355B6A984700205DF804FB00B5D0F8A2
:102C8800E4355B69984700205DF804FBD0F8E4352B
:102C980010B504469B699847D4F8E03500215B6875
:102CA80020469847002010BD002310B51946044659
:102CB800402201F09BFA802100234022204601F0A7
:102CC80095FAD4F8E435A078012284F812215B68DB
:102CD8009847002010BD00BF10B582B06946044671
:102CE80000F0AAFB9DF8001001F01F03012B0AD089
:102CF800022B16D073B101F08001204601F014FBBD
:102D0800002002B010BD6946204600F0F9FA002004
:102D180002B010BD6946204600F076F9002002B0E6
:102D280010BD6946204600F015FB002002B010BD1A
:102D380011F0FF0130B5044605D190F81131022B8E
:102D48000DD0002030BDD0F8E0355B69002BF8D0FD
:102D580090F81221032AF4D19847002030BDD0F80A
:102D68003421D0F820319A4210D9C1780129D0F8FD
:102D78002411A2EB030208BFC918C0F8342108BF08
:102D8800C0F8241192B200F0FBF8DAE7D0F8382145
:102D9800B2FBF3F503FB152565B993420AD8D0F8C1
:102DA8003C319A4206D22A46294600F0E9F8C4F88E
:102DB8003C51C6E7D4F8E035DB681BB194F8122122
:102DC800032A03D0204600F00FF9BAE720469847B7
:102DD800F8E700BF11F0FF0110B5044605D190F8DF
:102DE8001131032B0DD0002010BDD0F8E0359B69C0
:102DF800002BF8D090F81221032AF4D1984700202C
:102E080010BDD0F88C33D0F87823934212D9C1780A
:102E18000129D0F87C13A3EB020304BF8918C0F87A
:102E28007C139A4228BF1A46C0F88C3392B200F03D
:102E3800C1F8D8E7D0F8E0351B691BB190F812212A
:102E4800032A03D0204600F0BFF8CCE79847F9E7FB
:102E58002DE9F041044615461E46DDF818800F4658
:102E680000F0B8FC20463946C4F8E065C4F8E485AB
:102E7800C4F8E85501F070F9D4F8E4351B689847B0
:102E88002046BDE8F04100F0EDBC00BFD0F8E035C9
:102E980010B50446C9B21B689847D4F8E4359B6856
:102EA8009847002010BD00BF00B5D0F8E035C9B282
:102EB8005B68984700205DF804FB00BF12230148B7
:102EC8000B80704798010020042301480B8070474D
:102ED8009401002010B5044C04480A46214600F02D
:102EE800D7FA204610BD00BF74130020604A0008BE
:102EF80010B5044C04480A46214600F0C9FA204699
:102F080010BD00BF74130020784A000810B5044CA7
:102F180004480A46214600F0BBFA204610BD00BF0F
:102F2800741300208C4A000810B5044C04480A4663
:102F3800214600F0ADFA204610BD00BF74130020F2
:102F48009C4A000810B5044C04480A46214600F083
:102F58009FFA204610BD00BF74130020A84A00083D
:102F680000B593B20A460221C0F83431C0F83831AE
:102F780080F81111002101F0B3F900205DF804FB7D
:102F880000B593B20A46002101F0AAF900205DF8C5
:102F980004FB00BF00B593B20A460321C0F88C3386
:102FA800C0F8903380F81111002101F073F9002066
:102FB8005DF804FB00B593B20A46002101F06AF9F6
:102FC80000205DF804FB00BF10B50023042104466F
:102FD8001A4680F81111194601F082F9204601F0CD
:102FE800ABF8002010BD00BF10B500230521044632
:102FF8001A4680F81111194601F04CF9204601F0E3
:103008009BF8002010BD00BF70B54B7882B00C460D
:103018000546092B13D8DFE803F030411256126F2A
:10302800871222058978B24E0129317007D890F8A5
:103038001231022B00F0B580032B00F0968094F932
:103048000030002B01DBE38893B98021284601F08A
:103058006BF9284601F070F8002002B070BDCA88EC
:10306800012A77D091F90030002BEEDB002AECD052
:103078000021284601F058F9EBE790F81231023B9D
:10308800012BDCD8D0F814319A49002B0CBF01234E
:10309800032301220B60FFF763FFDDE790F812318D
:1030A800023B012BCBD84B88012BD5D1D0F8E0358A
:1030B80000229B68C0F814212146284698472846D4
:1030C800FFF782FFC8E74B88012B00F00081022B35
:1030D800C2D18B88DAB2002ABED101691B0A4A68BC
:1030E800013B1046042B00F2D980DFE813F0E10021
:1030F800DC00D300EB00E6004B68002B9FD190F872
:1031080012314988032B9AD001F07F0480F81341CB
:10311800214601F043F92846FFF756FF002C3CD022
:10312800022385F8123197E74A88130A013B062BD8
:1031380085D801A151F823F01D320008E1310008BB
:10314800CF310008473000084730000847300008F2
:103158004730000890F81231022B30D0032B17D0DB
:1031680091F90030002B83DA6FE7002900F0B58071
:1031780090F81011012907D0FFF796FE317885F8ED
:1031880010112846FFF782FE2846FFF71DFF63E768
:1031980000F58871FFF7E4FE5EE7012385F8123138
:1031A8005AE70029F0D00121032380F8101180F894
:1031B8001231FFF76BFE2846FFF706FF4CE74E4932
:1031C800FFF7CEFE48E7D2B2052A3FF638AFDFE870
:1031D80002F0595149413931D0F8E03580789B6A7D
:1031E8000DF10601984702234370C5F8EC05BDF8B8
:1031F8000620002A3FF430AFE388002B3FF42CAFC1
:103208009A4228BF1A4601462846ADF80620FFF71D
:10321800A7FE21E7D0F8E83580781B680DF1060194
:103228009847E388402B69D095F81221012ADED10E
:103238000822E2E7D0F8E83580789B690DF10601AD
:103248009847D4E7D0F8E83580785B690DF1060136
:103258009847CCE7D0F8E83580781B690DF106016E
:103268009847C4E7D0F8E8358078DB680DF10601A7
:103278009847BCE7D0F8E83580789B680DF10601DF
:103288009847B4E7D0F8E83580785B680DF1060117
:103298009847ACE7032363F3061002464A602846C2
:1032A800FFF792FED8E6022363F306100246F5E71D
:1032B800012363F306100246F0E7052363F30610C3
:1032C8000246EBE7042363F306100246E6E7D0F86C
:1032D800E025C0F814319368EEE6022380F8123135
:1032E80080F81011FFF7E0FD2846FFF76DFEB3E602
:1032F80070130020A8130020AC13002008227FE7D9
:1033080030B590F81231032B04460D460AD10B79DB
:10331800012B07D8D0F8E0359B689847EB88ABB10C
:10332800002030BD95F90030002B01DBEB8843B954
:103338008021204600F0F8FF204600F0FDFE002026
:1033480030BD0021204600F0EFFFF5E72046FFF7EB
:103358003BFEE5E730B50C468A886378012B0546C5
:10336800D1B204D0032B35D0BBB1002030BD90F8CA
:103378001231022B15D0032B43D094F90030002BC7
:1033880047DBE388002B44D00021284600F0CCFF1F
:10339800284600F0D1FE002030BD90F81231022BF3
:1033A80004D14A06E1D000F0BFFFDEE7032BE4D1E9
:1033B800130633D401EB810100EBC10191F872339C
:1033C800003B18BF01231B49022228460B60FFF768
:1033D800C7FDCAE790F81231022BE2D0032BCCD1FB
:1033E80063881BB94A0601D000F09EFFD5F8E03586
:1033F80021469B68284698472846FFF7E5FD0020A8
:1034080030BD6388002BB0D14B06F5D000F0AAFF81
:10341800ECE78021284600F087FFB9E701F07F013B
:1034280001EB810100EBC10191F81A31003B18BF93
:103438000123C8E7B0130020B0F8C8350B80B0F8F6
:10344800CA354B80B0F8CC358B80B0F8CE35CB8000
:103458000122C0F83C3180F81121704710B591F96C
:103468000030002B044601DBCB8843B9204680217D
:1034780000F05AFF2046BDE8104000F05DBE002174
:1034880000F052FF2046BDE8104000F055BE00BFD6
:1034980030B400B3037803B303461C4613F8015F46
:1034A800002DFAD1C0F101032344DBB201335B00E4
:1034B800DCB2138003230C704B7004785CB10223D8
:1034C80000255A1CD2B2CC548D5410F8014F023347
:1034D800DBB2002CF5D130BC704702242346E8E764
:1034E800014B01221A607047B4130020014B0122DE
:1034F8001A607047B4130020014B02221A6070470B
:10350800B4130020014B01221A607047B413002045
:10351800014B01221A607047B4130020014B0122AD
:103528001A607047B4130020014B01221A607047DB
:10353800B413002000207047002070470020704717
:10354800014B1860704700BFEC010020014B186068
:10355800704700BFE8010020014B1860704700BFAA
:10356800E401002000B5034B1B68984700205DF874
:1035780004FB00BFEC0100202DE9F04F814620F04C
:103588000F088B4600296AD008F110084FF0000A8E
:103598000A20FFF7E7FFA8F110041C2544FA05F0FC
:1035A80000F00F000928CCBF37303030043DFFF75A
:1035B800D9FF2B1DF2D12020FFF7D4FF2746002684
:1035C8000FE02020FFF7CEFF2020FFF7CBFF2020C1
:1035D800FFF7C8FF072E1FD00136102E07F101078D
:1035E80020D04F45EDD33D789F2D4FEA151098BF59
:1035F800303005F00F0588BF3730FFF7B3FF092DCE
:1036080094BF05F1300005F13700FFF7ABFF20202C
:10361800FFF7A8FF072EDFD12020FFF7A3FF013710
:103628000826DEE72020FFF79DFF7C20FFF79AFFA2
:103638002378A3F120025E2A4FF02E0004F1010442
:1036480098BF1846FFF78EFF4445F1D17C200AF158
:10365800100AFFF787FFD34508F1100898D8002013
:10366800BDE8F08F0269CB8822F4405213439BB225
:1036780030B58A89036104468B8808890D4603435F
:10368800E168688921F4B051034321F00C019BB231
:103698000B439BB2E360636923F4407313439BB20B
:1036A80084B063616846FEF719FB1C4B9C4205D049
:1036B80003F580639C4201D0029B00E0039BE26813
:1036C800174812F4004F2A68E56803EB830314BF18
:1036D8005200920003EB8303B3FBF2F3A0FB032138
:1036E80049094FF0640C0A010CFB113329040AD56F
:1036F800DB003233A0FB0303C3F3421313439BB233
:10370800A36004B030BD1B013233A0FB0303C3F335
:10371800431313439BB2A36004B030BD00100140B3
:103728001F85EB51C36819B143F40053C360704758
:103738004DF6FF721340C360704700BFC1F3080124
:10374800416070474068C0F30800704701F01F0CE3
:10375800C1F342110123012903FA0CF30DD0022908
:103768000CBF103014301AB102681343036070475D
:10377800026822EA0303036070470C30F3E700BFD6
:10378800036889B2194214BF01200020704700BFA6
:10379800C1F3421C00B5012301F01F0EBCF1010F5B
:1037A800024689B203FA0EF310D0BCF1020F0CBF27
:1037B800006950691840126830B1090A01238B402A
:1037C800134214BF012000205DF804FBC0681840B4
:1037D800F1E700BF30B5012186B0214C0846FEF75D
:1037E800C3FA4FF4D8500023022201A901902046C1
:1037F8000493059303920292FEF7F2F920460A22F7
:103808000821FEF755FA20460A220921FEF750FA48
:1038180020460A220B21FEF74BFA20460A220C21E9
:10382800FEF746FA4FF48063012501A901930222AD
:1038380001232046039204930595FEF7D1F90A2245
:1038480011462046FEF734FA29468020FEF798FAFA
:1038580029464FF08050FEF7B7FA06B030BD00BFDA
:103868000000024000B54FF4C06082B0FDF722FFAF
:1038780040F24311032201236846ADF800108DF889
:1038880002200193FDF720FF02B05DF804FB00BFA2
:10389800704700BF704700BF014800F089BD00BFF6
:1038A8009404002030B582B00023124C01930546E1
:1038B8000320FFF7EDFFEB68013C1A69019216D06F
:1038C800019A002AF4DA01990A4A41F001010191AA
:1038D8000199196119690191013A02D00199C90741
:1038E800F8D4032002B0BDE83040FFF7D1BF02B0E2
:1038F80030BD00BF410D030030B4C478D2B29BB2D2
:103908006CB902F13405DA1C921050F8255006D033
:103918002346013351F8040B28609A42F9D100205C
:1039280030BC70471FFA82FC0CF1030C5FEAAC0C48
:1039380030B4D0F8D0500BD00A46002301332C689D
:1039480042F8044B9C45F9D101EB8C0030BC704720
:10395800084630BC704700BF0122402391422DE940
:10396800F0414280838057D0002941D043780678BF
:1039780000224FF40061C2600161002B61D09E46B5
:103988004FF460654FF488674FF4806802F5106360
:1039980000F1140C00214CF8043F013103F50074C8
:1039A8007145CCF83C4003F12003F4D3C0F81480EF
:1039B800C0F8CC70BEB100F18C0302F5A061B40070
:1039C80003EB860C43F8041F9C4501F12001F9D153
:1039D80000F1CC0302F58052191943F8042F9942DB
:1039E80002F58052F9D1C0F80C510020BDE8F081F1
:1039F8004FF4A063C380174BC17240F20C62164D9E
:103A0800164FDFF85C80174902804FF0060E0C262F
:103A18001A46C3600161B9E702234FF4A0724FF45C
:103A2800816403724FF0A043C172C2800E4D0F4FE4
:103A3800DFF83C800F4904804FF0040E08261A4630
:103A4800E7E74FF460654FF488671A464FF48068DB
:103A5800ACE700BF00000440000E044040040440EE
:103A68000004044000080440000E005040040050C8
:103A7800000400500008005030B5037AC268012BDA
:103A880004464FF000051AD1956B417A6FF3104543
:103A980091B163F314559563D36823F4940323F029
:103AA800D80343F01003D3602046FFF7FBFEE3780A
:103AB800012B2CD0002030BDC5F30053E9E7D368B3
:103AC80043F04003D360FFF7EDFE237A627AE168A2
:103AD800A3F10303B3FA83F35B09003A4FEA430304
:103AE80018BF012243F00D0343EA021363F317459D
:103AF8008D631420FFF7CEFE217AE2680329D3688C
:103B080012D0D360E378012BD4D1E16802E0E168F8
:103B18002A238B608B6823F03E0242F02A0262F36C
:103B280007038B60002030BD43F48033D360156BEE
:103B38000A4B03EA154343F4A15343F00D0363F31F
:103B48001F451563C820FFF7A5FEE36845F4000587
:103B58001D63C820FFF79EFED4E700BF00E3FFFF08
:103B680003460020DA68936843F0010393607047C6
:103B780003460020DA68936823F0010393607047D6
:103B880000B582B000230193019B43F02003019309
:103B9800019B61F38A130193C168019A074B0A617B
:103BA8000A690192013B02D0019A9206F8D40320D7
:103BB800FFF76EFE002002B05DF804FB410D030024
:103BC80010B5C468E368C9B2C3F3076222F06002A3
:103BD800012962F31F6308D009B943F080433220FA
:103BE800E360FFF757FE002010BD43F00053F6E7EF
:103BF800C3685869C04300F001007047C36858693A
:103C08009B691840704700BF10B4C3680A4C4FF056
:103C1800FF310246002098615961596059619C61E1
:103C2800D178064A9C69B1FA81F1490942EA011240
:103C380022439A6110BC7047000800800C383C4051
:103C4800D0F80C3102690021F0B51960136861F3EE
:103C5800CC231360C37A012B82B004466CD0C168B0
:103C680000230193019B43F020030193019A3D4BEC
:103C7800102060F38A120192019A0A610A6901927E
:103C8800013B02D0019A9006F8D40320FFF700FE0A
:103C980000230093009BE16843F010030093009A0F
:103CA800304B0A610A690092013B02D0009AD206A1
:103CB800F8D40320FFF7ECFD266900254FF0FF3309
:103CC80035617561B361F561607830B304F1140250
:103CD8004FEA800CFF2702EB800052F8043F196876
:103CE8000029B4BF4FF090410021824219601D6144
:103CF8009F60F2D104F1500202EB0C000027FF256F
:103D080052F8043F19680029B4BF4FF090410021D0
:103D1800904219601F619D60F2D1336943F480734A
:103D28003361E378012B01D10F4B33632046FFF752
:103D38006BFF002002B0F0BD1368C16843F00303B5
:103D4800802013604862094B094A00F50010886218
:103D5800C1F804314FF4A073C1F80821C1F80C313F
:103D68007EE700BF410D030003018100A000800031
:103D78002001200003699868C0F3410002281ABF97
:103D880000F00100C0F10300012070470369816958
:103D98009A680868C2F34102022A0CBF0322002273
:103DA80062F30A0008605A6842F4807200205A6080
:103DB800704700BF30B44B78012B4FF0000228D079
:103DC8000D7805F1150350F823400123AB4063F348
:103DD8001F4225682B0415D48B6891F803C0C98845
:103DE800C3F30A0343F0805343F400430CF0030C7D
:103DF80001F00F0143EA8C4343EA81530949294002
:103E08000B4323600369D9690A43002030BCDA6197
:103E180070470C78A340063463F30F0250F824402F
:103E2800D7E700BF007833EC4B780A78012B4FF0C6
:103E3800000C0FD002F115010123934050F8211016
:103E480063F31F4C026900200860D36923EA0C035E
:103E5800D3617047911D934050F8211063F30F0C04
:103E6800F0E700BF2DE9F0434B78012B30D00B78F9
:103E7800153350F823504B692C682E691BB38F6893
:103E88003B44013BB3FBF7F3C3F3090207FB02F220
:103E9800C3F30903C2F3120242EAC34262F31C06E7
:103EA8002E61C378012B04BF0B696B61CB78012BA2
:103EB8006BD0C4F3076363F07B0363F31F642C6068
:103EC8000020BDE8F0838A680123C2F31202E3E709
:103ED80091F800E04D6900EB8E0CDCF818703C6836
:103EE8003A6902F060424DB3D1F80890344E05EBC0
:103EF800090808F1FF38B8FBF9F806EAC846C5F31F
:103F0800120846EA080691F803803243B8F1010F17
:103F1800164648D03A61C278012A4DD00269516BE1
:103F280003FA0EF30B435363C4F3076363F07B0395
:103F380063F31F643C600020BDE8F08342F4002274
:103F4800CE783A61C378012B27D0012EECD10269D3
:103F5800926812F4807FC4F307620CBF62F05B02C0
:103F680062F06B0262F31F643C60002BA8D1A8B218
:103F780003308010DCF8D040A2D0CA6852F8041B85
:103F8800216001339842F9D19AE74B7913B144F093
:103F980000548EE744F080548BE70B697B61012E57
:103FA800C2D10123D3E768F35E763E61C378012B63
:103FB800CDD10B697B61F4E70B697B61B4E700BF86
:103FC8000000F81F70B44B78012B26D00B784A6993
:103FD800153350F823502C682B69D2B18A684A618E
:103FE80002F07F0223F4C01323F07F0342F400227F
:103FF80013432B61C378012B04BF0B696B61C4F3B6
:10400800076363F07B0363F31F642C60002070BCBC
:1040180070478A6802F07F02E4E785694A692C687C
:104028002B69F2B923F4C01323F07F0342F4002272
:1040380013432B61C378012B1CD0C4F3076262F0D1
:104048007B0262F31F642C60002BDFD14B69002BCD
:10405800DCD002690878516B012383400B4353631A
:10406800D4E78E68B24286BF4E6106F07F0202F046
:104078007F02D7E70B780969063350F82320C4F389
:10408800076363F07B0363F31F64516100202C60B6
:1040980070BC70474B78012B09D00B78153350F85A
:1040A8002320136843F400131360002070470A7834
:1040B8000949063250F822000268002AA8BFC2F354
:1040C80080739B0301EA124143F020030B4363F31F
:1040D8001F42026000207047DFBFFFFF4B78CA789D
:1040E800012B0B780CBF06331533023A50F8230026
:1040F8000368012A6FF355538CBFC3F30072012282
:1041080062F31C7303600020704700BF036998695D
:10411800DB691840000C7047C9B21531036950F8C3
:10412800212090685B691840704700BF036998694F
:10413800DB69184080B27047436D064A1A61C2783D
:10414800012A06D100F5B96058614FF0802219683C
:104158001A607047180008C0F0B50646FFF7FCFB68
:1041680075780120A6F812016DB300213346324656
:104178000C46402782F81811A2F81E110131A942F5
:1041880082F8190182F81B41C2F82071C2F8244153
:10419800C2F82C4102F12802ECD10022114640203D
:1041A80083F87023A3F876230132AA4283F87113A7
:1041B80083F87313C3F87803C3F87C13C3F8841324
:1041C80003F12803ECD13046FFF7D2FC3046FFF765
:1041D80053FC00213046FFF7F3FC3046FFF730FD73
:1041E8003046BDE8F040FFF7BBBC00BF5FFA81FC7A
:1041F800090600B592B2DBB21AD40CEB8C0E00EBB8
:10420800CE0E282101FB0C01CEF87823002201F5FF
:104218005C718EF870C38EF873338EF87123022B9D
:1042280004BF00230B71FFF7C5FD00205DF804FBF8
:104238000CF07F0C0CEB8C0E00EBCE0E282101FB52
:104248000C01CEF82021012201F58C718EF818C1DD
:104258008EF81B31AEF81EC18EF81921DFE700BFBA
:104268004AB2002A00B5CBB20CDB282101FB0301BE
:1042780001F55C71D20F0B704A70FFF7D5FD002075
:104288005DF804FB03F07F03282101FB030101F51E
:104298008C71EFE710B501F07F0404EB840C00EBA0
:1042A800CC0C9BB2CCF884330023CCF87C238CF85C
:1042B8007043CCF888338CF87133C378282101FB1C
:1042C8000401012B01F55C7108BFCCF880231CB9EF
:1042D800FFF778FE002010BDFFF7C4FD002010BDD9
:1042E80010B501F07F0404EB840E00EBCE0ECEF87F
:1042F8002C310023CEF83031282303FB040C012392
:104308008EF81841CEF82421CEF828210CF58C71AE
:104318008EF819311CB9FFF755FE002010BDFFF7C4
:10432800A1FD002010BD00BF4AB2002A00B5CBB2E3
:1043380010DB282101FB030101F55C71D20F4FF05E
:10434800010C81F802C00B704A70FFF7A3FE002031
:104358005DF804FB03F07F03282101FB030101F54D
:104368008C71EBE74AB2002A10B5CBB20DDB2821DD
:1043780001FB030101F55C710024D20F8C700B70F6
:104388004A70FFF7ABFE204610BD03F07F032821DB
:1043980001FB030101F58C71EEE700BF0269C9B2A8
:1043A8001068002361F30A1303431360704700BFCA
:1043B8002DE9F04F82B00446FFF71AFC18B9002027
:1043C80002B0BDE8F08F2046FFF718FC80460028B1
:1043D800F5D0C0F3074A1AF0080040F0CA801AF076
:1043E800040F72D118F0020F5FFA88F502D0E36863
:1043F80002225A61B8F1000F4FEA1867C0F27E81B5
:1044080018F4006FC8F3072640F017812B0708D56A
:104418009A4B1B682046DB689847E36808225A6174
:104428000120E9063AD4F20600F12C81B30600F126
:10443800E6801AF0100F09D0904B1B682046DB6904
:104448009847E3684FF480125A6101201AF0200F50
:1044580009D08A4B1B6820461B6A9847E3684FF4CB
:1044680000125A6101207E0609D5844B1B6820463C
:104478005B6A9847E3684FF080425A6101206907F8
:104488009ED5E3685D686A0705D57C4B1B682046A6
:104498009B6A9847E3685D60012091E7E3689A6941
:1044A80022F010029A61D3F82080C8F34342022A0E
:1044B80008F00F0900F0C581062A00F0AF819A695B
:1044C80042F010029A610120ADE72046FFF72EFE68
:1044D800814600284BD04FF0000B8DE8000525469B
:1044E80004F11807A2465C4619F0010F31D0DAF83A
:1044F80010105FFA84FB08694E6B0BF1060226FA6E
:104508000BF65AF82220F6019268F6B206431640D6
:10451800F2B216F0010600F00C81584A486B3B686D
:1045280012684FF0010C0CFA04F820EA08005268EF
:104538004863C3F808C05946504690479AF8032084
:10454800012A00F09C81730640F1F9803A68402105
:1045580091605FEA590904F1010405F1280507F1A2
:104568000407C1D15446DDF80080DDF804A001201D
:1045780038E72046FFF7CAFD0546002800F04181CC
:104588003E4FCDF8008004F15406A3464FF00009D1
:1045980008E06D0809F1010906F104060BF1280B82
:1045A80000F02D81E907F4D55FFA89F841462046E5
:1045B800FFF7B2FDC207C3B240F1C78033680122DA
:1045C8009A60E278012A07D11A69DBF87833C2F3D6
:1045D80012029B1ACBF888333B6841461B68204679
:1045E8009847E378012BD4D1B9F1000FD1D194F8D1
:1045F8001131052BCDD12046FFF79EFDC9E7204696
:10460800FFF7C4FBE3682046DE68FFF7B3FB032827
:104618000CBF0922052262F38D260CBF002201225D
:10462800A270E3680CBF4FF400724022A2804FF4DE
:104638000052DE6001205A61FBE6104B1B682046E1
:104648005B69984723699968E3684FF400625A6187
:10465800A37A83B1CA070ED5D4F80C3108491A6871
:1046680042F001021A601A6842F003021A600B69EC
:1046780043F006030B610120C8E600BF6401002077
:1046880000ED00E0226953684FF0000823F00103B1
:10469800536041462046FFF773FA627841465AB1A3
:1046A80004F1140303EB820CFF2253F8040F826019
:1046B800D86B63458260F8D10F22236962F307083B
:1046C8002F2262F307014FF0FF329A614FF0011277
:1046D800DA61C3F8148019611A686FF30A121A6054
:1046E8002046FFF729FD764BE2681B684FF480519E
:1046F8001B69516120469847012097E6A37A43B188
:10470800D4F80C31D4F80C2123F0030161F307032A
:1047180013606B4B22691B689969536823F0010386
:10472800536020468847E3684FF000425A610120F1
:1047380066E653070FD53A68042393601E46B00710
:104748000ED53A680221916003E7980751D533687E
:1047580002229A601DE7160745D53A680826966032
:1047680031067FF5F6AE3B68D5F82C019E69D5F881
:104778003011D5F820211FFA86FE461AB24228BF0A
:1047880032460332BEEB920F1E4624D828E0D5F8F5
:104798002031D5F824119E4228BF1E46B3B25A468E
:1047A8005046FFF7A9F8D5F83011D5F82431D5F8D7
:1047B8002C01314406F10308334481424FEA98083A
:1047C800C5F82431C5F8301165D23B689A6992B2B0
:1047D80090451E4604D28142A0EB0106D7D31E465F
:1047E8008022B260B5E6D00661D53A6810219160A2
:1047F800AFE6590707D5336804229A60C9E6DDF8A1
:1048080000800120EBE51A077FF5C3AE3B68204620
:104818009B689847336808229A60BAE609EB8909C9
:1048280004EBC909082204F5B9612046FFF77AF8B4
:10483800D9F88833C8F30A184344C9F88833E368B9
:104848003DE647F6F07212EA080F3FF438AE09EB7E
:10485800890904EBC909C8F30A18D9F87C13424638
:104868002046FFF75FF8D9F87C334344C9F87C3316
:10487800D9F888334344C9F88833E3681FE6002C25
:104888007FF461AE9AF81121042A7FF45CAE504699
:10489800FFF752FC57E6DAF8100095F81861426BFA
:1048A8000121B14022EA01023E68426398E791067D
:1048B80058BF16467FF547AE3A682021916048E612
:1048C80064010020534C425F4C4954453A206770BC
:1048D800696F5F636F6E66696770696E7328290A0E
:1048E80000000000756570610A0000006275665B73
:1048F80025645D203D2025640A000000736C626415
:1049080065766963650000006770696F5F64657646
:1049180069636500044900083049000884020020E2
:104928002400002000000000210000000101000018
:10493800000000003D020008E501000810490008D9
:104948005849000800000000000000000C0000208A
:104958000100800000800000000000000A2A2A2AC6
:10496800207461736B2025642C20737461636B3A27
:104978002030782570202873697A65202564290AF3
:10498800000000003C4E554C4C3E000030313233A4
:104998003435363738396162636465660000000073
:1049A80041524D20436F72746578204D342028732E
:1049B800746D33326634787829000000302E393728
:1049C800000000005543582F4F532076257320626E
:1049D8006F6F74206F6E2025730A00006865617020
:1049E8005F696E697428292C2025642062797465B2
:1049F8007320667265650A0073686974312C202516
:104A0800640A000073686974320A000064622C2525
:104A1800642C25640A0000000A2A2A2A2048414CEE
:104A28005420282564290000202D2025730A000021
:104A38007461736B2025643A20307825702C2073BC
:104A48007461636B3A20307825702C2073697A651D
:104A58002025640A0000000053544D333220566963
:104A6800727475616C20436F6D506F727400000032
:104A780053544D6963726F656C656374726F6E69C8
:104A880063730000303030303030303030353043F0
:104A98000000000056435020436F6E6669670000AF
:104AA80056435020496E7465726661636500000064
:104AB8006E6F206572726F72000000006661696C2B
:104AC800757265006E6F207461736B7320746F204C
:104AD80072756E006B636220616C6C6F6320666137
:104AE800696C65640000000074636220616C6C6F1F
:104AF80063206661696C656400000000737461631B
:104B08006B20616C6C6F63206661696C6564000082
:104B18007461736B206E6F7420666F756E6400002D
:104B28007461736B2073757370656E642066616958
:104B38006C6564007461736B20726573756D6520B4
:104B48006661696C656400007461736B20696E76D8
:104B5800616C6964207072696F7269747900000011
:104B6800737461636B20636865636B206661696C4D
:104B7800656400007069706520616C6C6F63206605
:104B880061696C6564000000706970652064656126
:104B98006C6C6F63206661696C65640073656D6138
:104BA80020616C6C6F63206661696C65640000004D
:104BB80073656D61206465616C6C6F632066616903
:104BC8006C65640073656D61206F706572617469EE
:104BD8006F6E206661696C65640000006D657373B3
:104BE800616765207175657565206E6F7420656DE8
:104BF80070747900756E6B6E6F776E207265617375
:044C08006F6E0000CB
:104C0C001C4900080C00002044490008250300083A
:104C1C00110300080903000801030008F902000849
:104C2C00F10200084117000800000000B917000845
:104C3C007917000819180008291A0008000000004C
:104C4C000000000000000000010203040102030444
:104C5C000607080900000000000000000102030420
:104C6C000607080900E1F5056C00002000000000B3
:104C7C000000000000000000000000000000000028
:104C8C000000000000000000000000000000000018
:104C9C000000000000000000000000000000000008
:104CAC0000000000000000000000000000000000F8
:104CBC0000000000000000000000000000000000E8
:104CCC00000000001D200008000000000000000093
:104CDC0000000000052A0008DD2900082929000829
:104CEC000000000019280008652A0008ED280008BB
:104CFC0055280008000000000000000049280008AA
:104D0C00FF00000009024300020100C03209040048
:104D1C00000102020100052400100105240100011C
:104D2C00042402020524060001070582030800FF83
:104D3C0009040100020A00000007050102400000FE
:104D4C000705810240000000C52A0008A52B0008B9
:104D5C00C92A0008192B0008512B000800C20100B9
:104D6C000000080068010020DD2D0008392D000826
:104D7C00E12C0008512C0008B12C0008392C00083B
:104D8C00212C0008652C0008752C0008852C0008C7
:104D9C00952C0008040309041201000200000040D5
:104DAC00830440570002010203010000C52E0008D5
:104DBC00D12E0008F92E0008DD2E0008152F000852
:104DCC00312F00084D2F0008E9340008F534000895
:104DDC0001350008313500080D350008193500087B
:104DEC002535000845350008413500083D350008DB
:104DFC00F401002000000000B84A0008FFFFFFFF8C
:104E0C00C44A000801C0FFFFCC4A000802C0FFFFE3
:104E1C00DC4A000803C0FFFFF04A000804C0FFFF93
:104E2C00044B000806C0FFFF184B000807C0FFFF2B
:104E3C00284B000808C0FFFF3C4B000809C0FFFFCF
:104E4C00504B00080AC0FFFF684B00080BC0FFFF67
:104E5C007C4B00080CC0FFFF904B00080DC0FFFFFF
:104E6C00A44B00080EC0FFFFB84B00080FC0FFFF9B
:104E7C00CC4B000810C0FFFFE44B000811C0FFFF33
:044E8C00FC4B0008D3
:0400000508000C657E
:00000001FF
