:020000040800F2
:1000000000000220690C00080D0C00080D0C00080F
:100010000D0C00080D0C00080D0C0008000000007D
:10002000000000000000000000000000110C0008AB
:100030000D0C000800000000BD010008050F0008BD
:100040000D0C00080D0C00080D0C00080D0C00082C
:100050000D0C00080D0C0008A1060008C5060008DC
:10006000E90600080D070008310700080D0C00081C
:100070000D0C00080D0C00080D0C00080D0C0008FC
:100080000D0C00080D0C00080D0C00080D0C0008EC
:100090000D0C00080D0C00080D0C00085507000899
:1000A0000D0C00080D0C00080D0C00080D0C0008CC
:1000B0000D0C00080D0C00080D0C00080D0C0008BC
:1000C0000D0C00080D0C00080D0C00080D0C0008AC
:1000D0000D0C0008ED210008552200080D0C000849
:1000E000D10700080D0C00080D0C00080D0C0008CD
:1000F0000D0C00080D0C00080D0C00080D0C00087C
:100100000D0C00080D0C00080D0C00080D0C00086B
:100110000D0C00080D0C00080D0C00080D0C00085B
:100120000D0C00080D0C00080D0C00080D0C00084B
:100130000D0C00080D0C00080D0C00080D0C00083B
:100140000D0C00080D0C00080D0C0008B938000853
:100150000D0C00080D0C00080D0C0008C122000851
:100160000D0C00080D0C00080D0C00080D0C00080B
:100170000D0C00080D0C00080D0C00080D0C0008FB
:080180000D0C00080D0C000835
:10018800021C7346F8C043464C4655465E466F46C9
:10019800F8C0F8CA00207047021C1430F8C8984606
:1001A800A146AA46B346BD46F8CA081C00D101209C
:1001B800184700BFEFF3098020E9F00F05490968E7
:1001C8000860054909680868B0E8F00F80F30988F5
:1001D80070470000B4020020B002002000B5B8B19A
:1001E80001280BD001301BD10F4B104A1B68106837
:1001F8005B689847C0F3C0105DF804FB0A4B0B4AD4
:100208001B6810689B688021984700205DF804FBF4
:10021800054B064A1B681068DB6880219847F4E79D
:100228004FF0FF305DF804FB0400002008000020B8
:10023800FEE700BF00B5064801F050F9054B064A35
:100248001B6810681B68984700205DF804FB00BF16
:10025800DC480008040000200800002030B5D4B2B3
:10026800202CC0B28AB028BF2024124D400040F094
:10027800010322460DF105008DF8043001F01AF94A
:100288000021286800F052F80B4801F027F9621C99
:10029800D2B201A9286800F051F8084801F01EF907
:1002A800286800F047F84FF4487000F03FFD0AB0A6
:1002B80030BD00BF00000020FC4800081C490008B1
:1002C80000B50A489AB001F009F90DF103020023BC
:1002D80002F8013F0133642BFAD1202201A9012041
:1002E800FFF7BCFF024801F0F9F8EEE740490008C3
:1002F8005449000800B54FF40061074801F0FCFEBE
:100308004FF40061054801F0F7FE054B186800F04E
:1003180009F801205DF804FB39020008C902000849
:1003280000000020C3681B68184700BFC3689B68AB
:10033800184700BFC368DB68184700BFC3685B691C
:10034800184700BF406800F08FBA00BF406800F04F
:1003580081B900BF406800F05BB900BF406800F099
:1003680035B900BF00B5406800F010F90028A8BFF3
:1003780080B25DF804FB00BF406800F001B800BF20
:100388002DE9F043064686B000244FF00308738831
:100398002341DB0748D56200756808FA02F31D405F
:1003A800D540012D2BD0022D45D01DBBB16896F844
:1003B80000900B40B9F1010F23FA02F700F0C78053
:1003C800B9F1020F00F0AB80B9F1000F12D1012191
:1003D800084601F0D9FC01230393012F03FA04F323
:1003E800CDF80890CDF8109001933FD0022F3DD062
:1003F800002F3BD04FF0FF3006B0BDE8F0833778D0
:10040800012F4ED0022F37D0002FF3D1294628468E
:1004180001F0BAFC0295039559480497A54001A933
:100428000597019501F0ECFB0134102CAFD10020A9
:1004380006B0BDE8F0833778012F5CD0022F45D095
:10044800002FD7D10121084601F09EFC012303FAB1
:1004580004F24B48019201A90134029304930393D7
:10046800059301F0CDFB102C91D1E0E744480597A6
:1004780001A901F0C5FBD7E72946042001F084FC57
:1004880005FA04F301933F480295002301A90134BA
:1004980004930395059301F0B3FB102C7FF477AF19
:1004A800C5E73946022001F06FFC07FA04F301930F
:1004B80035480297002301A9013404930397059353
:1004C80001F09EFB102C7FF462AFB0E701210420FD
:1004D80001F05AFC012303FA04F22A48019201A907
:1004E8000134029304930393059301F089FB102CC4
:1004F8007FF44DAF9BE72846394601F045FC07FAE3
:1005080004F32148019301A9013402970497039742
:10051800059701F075FB102C7FF439AF87E70121AF
:10052800042001F031FC01230393012F03FA04F3A3
:1005380002950495019304D0022F02D0002F7FF476
:1005480059AF1048059701A901F05AFB6CE74946D5
:10055800022001F019FC09FA04F3012F0295049511
:10056800CDF80C90019304D0022F02D0002F7FF415
:1005780041AF0548059701A901F042FB54E700BFC8
:1005880000000240000802400004024010B5037851
:10059800012B04460FD0022B06D04BB9084801F0B6
:1005A80085FB6388184010BD064801F07FFBF8E71B
:1005B8004FF0FF3010BD044801F078FBF1E700BFB1
:1005C80000000240000802400004024000B5037821
:1005D8004288012B01EA02010CD0022B06D06BB92C
:1005E800084801F067FB00205DF804FB064801F0AD
:1005F80061FBF8E7054801F05DFBF4E74FF0FF30D9
:100608005DF804FB000002400008024000040240BC
:1006180000B503784288012B01EA02010CD0022BB5
:1006280006D06BB9084801F049FB00205DF804FBCF
:10063800064801F043FBF8E7054801F03FFBF4E703
:100648004FF0FF305DF804FB000002400008024054
:100658000004024000B503784288012B01EA020138
:100668000CD0022B06D06BB9084801F02BFB0020F8
:100678005DF804FB064801F025FBF8E7054801F0A2
:1006880021FBF4E74FF0FF305DF804FB0000024067
:10069800000802400004024000B5012001F0A0FA61
:1006A80038B1054B1B6898475DF804EB012001F051
:1006B800A1BA5DF804FB00BF6802002000B5022063
:1006C80001F08EFA38B1054B5B6898475DF804EB8A
:1006D800022001F08FBA5DF804FB00BF6802002019
:1006E80000B5042001F07CFA38B1054B9B689847A7
:1006F8005DF804EB042001F07DBA5DF804FB00BF4F
:100708006802002000B5082001F06AFA38B1054BEC
:10071800DB6898475DF804EB082001F06BBA5DF8D8
:1007280004FB00BF6802002000B5102001F058FA51
:1007380038B1054B1B6998475DF804EB102001F0B0
:1007480059BA5DF804FB00BF6802002000B52020FC
:1007580001F046FA28B11B4B5B699847202001F04D
:1007680049FA402001F03CFA28B1164B9B6998479A
:10077800402001F03FFA802001F032FA28B1114BF5
:10078800DB699847802001F035FA4FF4807001F05A
:1007980027FA30B10B4B1B6A98474FF4807001F071
:1007A80029FA4FF4007001F01BFA40B1054B5B6A5F
:1007B80098475DF804EB4FF4007001F01BBA5DF840
:1007C80004FB00BF6802002000B54FF4806001F010
:1007D80007FA30B1234B9B6A98474FF4806001F0C9
:1007E80009FA4FF4006001F0FBF930B11D4BDB6AE8
:1007F80098474FF4006001F0FDF94FF4805001F084
:10080800EFF930B1174B1B6B98474FF4805001F04C
:10081800F1F94FF4005001F0E3F930B1114B5B6B83
:1008280098474FF4005001F0E5F94FF4804001F08B
:10083800D7F930B10B4B9B6B98474FF4804001F0D0
:10084800D9F94FF4004001F0CBF940B1054BDB6B0F
:1008580098475DF804EB4FF4004001F0CBB95DF820
:1008680004FB00BF68020020F0B51D4686B00C46A8
:10087800064601214FF48040174601F0A9FA032DDE
:100888004AD0042D42D0022D42D108223078049259
:100898000123002105930193012840F201130391DC
:1008A800ADF8013067D002283ED088BBB4F5807F10
:1008B80000F08F8100F3B080202C00F35D818C4222
:1008C80026DD013C1F2C23D8DFE814F0530150012A
:1008D80022004D012200220022004A0122002200AB
:1008E80022002200220022002200470122002200CA
:1008F80022002200220022002200220022002200E0
:100908002200220022002200220044011022BDE71A
:100918004FF0FF3006B0F0BD0C22B7E7B4F5805FAA
:1009280000F0398140F3A080B4F5804F19D0B4F5B8
:10093800004F00F08F80B4F5005FE9D10D2101F080
:100948005FFAAE4B029428228DF800205F6302A85C
:1009580001F00AF9AA48694600F0F0FA002006B04A
:10096800F0BD0E2101F04CFAA44B029428228DF818
:1009780000209F63EBE7B4F5807F00F02A81CDDC8F
:10098800202C00F3F980002CC2DD013C1F2CBFD8BD
:1009980001A353F824F000BF450B00082D0B0008F5
:1009A80019090008150B0008190900081909000899
:1009B80019090008FD0A00081909000819090008A2
:1009C8001909000819090008190900081909000877
:1009D80019090008E50A000819090008190900089A
:1009E8001909000819090008190900081909000857
:1009F8001909000819090008190900081909000847
:100A08001909000819090008190900081909000836
:100A180019090008CD0A0008B4F5805F00F0BB8012
:100A280038DCB4F5806F00F0CA80B4F5006F00F0D0
:100A3800BC80B4F5007F7FF46BAF0921002001F082
:100A4800DFF96E4B4FF40071172202918DF80020E8
:100A58005F627CE70F2101F0D3F9684B02942822EA
:100A68008DF80020DF6372E7B4F5806F00F0A7808F
:100A7800B4F5006F00F09980B4F5007F7FF448AFBB
:100A8800092101F0BDF95D4B029417228DF8002071
:100A98005F625CE7B4F5804F3FF463AFB4F5004F95
:100AA800D8D0B4F5005F7FF433AF0D21002001F0FA
:100AB800A7F9524B4FF40051282202918DF80020DB
:100AC8005F6344E70521012001F09AF94B4B20218F
:100AD800172202918DF800205F6138E70421012078
:100AE80001F08EF9454B10210A2202918DF8002061
:100AF8001F612CE70321012001F082F93F4B0821F7
:100B0800092202918DF80020DF6020E702210120F0
:100B180001F076F9394B0421082202918DF8002062
:100B28009F6014E70121084601F06AF9334B02215E
:100B3800072202918DF800205F6008E7002101205C
:100B480001F05EF92D4B0121062202918DF800205B
:100B58001F60FCE605210020B6E704210020BFE75E
:100B680003210020C8E702210020D1E7012100204D
:100B7800DAE700210846E3E7402C34D0802C7FF4E4
:100B8800C7AE072101F03CF91C4B029417228DF8DF
:100B98000020DF61DBE60C2101F032F9174B0294EB
:100BA80028228DF800201F63D1E60B2101F028F9D7
:100BB800124B029428228DF80020DF62C7E60A2132
:100BC80001F01EF90D4B029428228DF800209F6237
:100BD800BDE6082101F014F9084B029417228DF89C
:100BE80000201F62B3E6062101F00AF9034B0294C4
:100BF80017228DF800209F61A9E600BF6802002037
:100C0800B9170008704700BFEFF309831A685868DE
:100C1800104700BF436893F86620032A01D00020DC
:100C28007047B3F86220002AF9D0013A92B2A3F8CB
:100C38006220002AF3D1012283F86620EFE700BF83
:100C48004FF0E022136943F001031361704700BFBE
:100C58004FF0E022136923F001031361704700BFCE
:100C6800114B124A934200B50CD2013AD21A22F023
:100C7800030204320E491A4451F8040B43F8040BDA
:100C88009342F9D10B4B0C4A93420AD2013AD21A39
:100C980022F0030204321A44002143F8041B934251
:100CA800FBD100F087FCFEE7000000206402002072
:100CB800604C000864020020981300200C4B1B684D
:100CC8005B6810B55C68606D0368B3F1333F00D1B1
:100CD80010BDA16D02F05EFCA36D626DB4F86010EA
:100CE800044800F0FBFBBDE81040034801F09EB942
:100CF80048000020744900080AC0FFFF00B5002022
:100D080001F046FC003818BF01205DF804FB00BF65
:100D180000B5002001F0C4FC5DF804FB10B5C1B2B9
:100D28000446002001F072FC204610BD2DE9F04772
:100D38002D4BDFF8B8805B6A2D4FB8F800203C686F
:100D4800294E86B09BB2ADF80C30BDF80C309BB282
:100D58009A42BDF80C30BDF80CA088BF01341FFAC8
:100D68008AFA4FEA04424FF47A7588BF3C604FEA2A
:100D7800144CA0FB055E12EB0A004CF10001049034
:100D880005919BB24FF00009716A89B2ADF80E1057
:100D9800BDF80E1089B2994205D201344FEA144CBD
:100DA80022044FF00109BDF80E30BDF80EA004A9C9
:100DB80003C98DE8030000991FFA8AFABAEB01000B
:100DC800019961EB4101101841EB0C01A84271EB4C
:100DD8000E019BB2D8D3A8F80030B9F1000F00D0AB
:100DE8003C6006B0BDE8F08700480140AC02002036
:100DF800A80200202DE9F043294BDFF8A8805B6AA0
:100E0800DFF8A4E0B8F80020DEF80060244F84B0D2
:100E18009BB2ADF80430BDF804309BB29A42BDF8DD
:100E28000420BDF8043088BF01369BB24FEA064162
:100E380088BFCEF800604FEA164CCC184CF100057C
:100E48000294039592B24FF000097B6A9BB2ADF809
:100E58000630BDF806309BB2934205D201364FEA00
:100E6800164C31044FF00109BDF80620BDF80630D4
:100E780002AD30CD9BB21B1B65EB4504CB1844EB90
:100E88000C04834274F1000492B2DED3A8F8002067
:100E9800B9F1000F01D0CEF8006004B0BDE8F083CE
:100EA80000480140AC020020A802002010B4104BFA
:100EB800104C5B6A1049208882B09BB2ADF80630AE
:100EC800BDF806200B68BDF806C0A4F800C092B2B1
:100ED8009042BDF8062084BF01330B6092B2190C12
:100EE8001B04981841F1000102B010BC704700BF04
:100EF80000480140AC020020A802002030B50B4D8C
:100F08002B685B685C68FFF7D1FF094B2C341C60C9
:100F180001F0E8F82B68074A5B6807495B682C33DF
:100F28000B60536843F08053536030BD4800002085
:100F3800B402002000ED00E0B00200200BDF704793
:100F480010B50A4C23681B689B685BB1FFF7B6FEB7
:100F5800236807491868002200F018FBBDE8104014
:100F680001F086B8034801F061F8EFE74800002077
:100F78001D0C000801C0FFFF2DE9F047524EDFF8B5
:100F88004C91DFF84C8186B000F09EFF01F012F81A
:100F9800336850495048A1FB03134FF0E022C3F3D4
:100FA8005713013B536100240623F02580F8235092
:100FB80001219461136180F822504FF4802000F0E1
:100FC80007FF03A800F06CFF444A3368444DADF8AE
:100FD8001440A2FB03234FF6FF719B0C2846049193
:100FE80003A9ADF80C30ADF80E4000F021FF214602
:100FF800284600F05DFF6C622846012100F058FF8A
:1010080022464FF4E131204601F08CF93548344E40
:1010180002F0A4FA344802F0A7FA344802F0AAFA17
:101028006B6AB9F80020D8F80040314D9BB2ADF892
:101038000830BDF808309BB29A42BDF80830BDF8B8
:1010480008A088BF01341FFA8AFA4FEA044288BF11
:10105800C8F800404FEA144C12EB0A004CF10001AA
:101068000390049100279BB2BE46716A89B2ADF81D
:101078000A10BDF80A1089B2994204D201344FEA25
:10108800144C22040127BDF80A30BDF80AA003A9B0
:1010980003C98DE8030000991FFA8AFABAEB010028
:1010A800019961EB4101101841EB0C0185427EEB7F
:1010B80001019BB2D9D2A9F800300FB1C8F800409D
:1010C80006B0BDE8F08700BF44000020AC02002055
:1010D800A80200201F85EB5100ED00E083DE1B43D2
:1010E80000480140250D0008190D0008050D0008ED
:1010F8007F841E0072B6704762B6BFF36F8F704769
:1011080001480021FFF71ABF490C000801480021D7
:10111800FFF714BF590C00080C4B1B685A6893F86A
:1011280066305268792B05D14FF0E0210B6943F006
:1011380001030B61836A403383F30988032383F334
:101148001488BFF36F8F1368184700BF480000204A
:10115800114410B4A1F140024FF080744162036061
:10116800826201E9180010BC704700BF2DE9F04FFA
:101178000C46097884B08046164600293DD02529BA
:1011880040F04B816378302B00F03081A3F13002BE
:10119800092A04F101094FF0200A40F230814FF08A
:1011A800FF34583B202B22D8DFE813F0360021000B
:1011B800210021002100210021002100210021001F
:1011C8002100A7001A01210021002100210021008F
:1011D8002100210014012100210021000A01210021
:1011E8002100D9002100C00021002100360099F813
:1011F800011009F101040029C1D1B8F1000F08D08C
:10120800D8F8003000221A70D8F800300133C8F836
:10121800003004B0BDE8F08F56F8047B1021002F91
:1012280040F08A8030238DF80030EB460123E41A21
:10123800002C04F1FF350EDDB8F1000F36D0D8F8D8
:10124800003083F800A0D8F80030013D01336A1C53
:10125800C8F80030F5D17A1C5A44541E12F8010C13
:10126800B8F1000F2DD0D8F8003001E014F8010DC6
:101278001870D8F80030A34503F10103C8F800300E
:10128800F4D199F8011009F101040029B5D02529F4
:101298003FF478AF22461970D8F800300133C8F807
:1012A8000030517801340029F1D1ABE7504602F003
:1012B80067F9013DCFD3504602F062F9013DF5D2FE
:1012C800C9E728B9A34507D014F8010D0028F9D0BB
:1012D80002F056F9A345F7D199F8011009F1010474
:1012E800002996D025293FF44DAF084602F048F969
:1012F800617801340029F5D18BE756F8040BB8F171
:10130800000F00F0AC80D8F800201070D8F800303A
:101318000133C8F8003099F8011000293FF472AF82
:10132800252909F101043FF42DAFB3E756F8047BF2
:101338000A21002F3FF476AF3D46EB46EC460023EA
:1013480028465A4FB5FBF1F501FB15028842BA5CF5
:101358000CF8012B1F4603F10103F1D267E756F899
:10136800045B002D78D02878A8B1002C3FF43FAF5B
:10137800B8F1000F5CD0D8F8003001E0002C80D024
:101388001870D8F800300133C8F8003015F8010F8C
:10139800013C0028F2D1002C04F1FF357FF727AF7C
:1013A800B8F1000F4CD0D8F8003083F800A0D8F876
:1013B8000030013D0133691CC8F80030F5D160E701
:1013C80056F8047B002F68D130238DF800300225B1
:1013D800EB4631E756F8047B09F101090A211EE7BB
:1013E80056F8047B002F48DB0A2118E79A46A378B1
:1013F800A3F13002092A04F102093FF6D0AE002415
:1014080004EB840403EB440419F8013FA3F1300210
:10141800092AA4F13004F3D9C3E6B8F1000F3FF468
:1014280064AFD8F80030224635E7002C3FF4DFAE31
:1014380002F0A6F815F8010F013C0028F5D1AAE73B
:10144800504602F09DF8013DFFF446AF504602F0C9
:1014580097F8013DF4D23FE7154D3C2085E710F0A1
:10146800FF003FF439AF02F08BF899F8011009F149
:10147800010400297FF436AFCBE67D42B8F1000FB6
:101488000FD0D8F800302D221A70D8F80030013368
:10149800C8F80030013C0A214FE73D4610210424DA
:1014A8004BE72D2002F06CF8F4E700BFA4490008D0
:1014B8009C4900083AB1431E0A4411F801CB03F8CD
:1014C80001CF9142F9D1704732B1C9B20244034603
:1014D80003F8011B9A42FBD1704700BF0FB400B557
:1014E80082B003AA002052F8041B0192FFF73EFEC7
:1014F800002002B05DF804EB04B0704730B50C2052
:1015080000F0DAF80446C8B1082000F0D5F805461E
:1015180088B1082000F0D0F898B14DF6AD6385E8A1
:1015280009000022002380E80C0000236060256089
:10153800A360204630BD204600F090F800242046E5
:1015480030BD204600F08AF8284600F087F8F5E715
:1015580030B5044608200D4600F0AEF8034650B1F9
:101568000020002183E80300A2686068013280E857
:1015780028006360A26030BD0B681A680AB118467B
:10158800704703681B681846704700BF036870B54A
:101598001C6823680E4615461BB908E024682368B2
:1015A8002BB129462046B0470028F7D070BD00204F
:1015B80070BD00BF30B581B0FFF7DEFC1E4A1F4981
:1015C8001F48204CFFF78AFF1F48204900F0CCF83D
:1015D8001E491F48FFF782FF2568FFF78FFF236822
:1015E80028601B681BB3FEF785FE164B0090186831
:1015F8000830FEF7C5FD134C23681A68916881B15D
:10160800009900290CBF6E21792183F866101268B1
:1016180012685A6050680430FFF77EFD002001B060
:1016280030BD0C4800F002FD23681A68E8E70A4854
:1016380000F0FCFCD7E700BFB8490008D44900080F
:10164800DC490008480000209813002068CC0100FD
:10165800F449000801C0FFFF02C0FFFF30B5134D79
:101668002B6893F86630792B04460AD050F8043C6E
:101678000F49104A096823F0010340F8043C11603F
:1016880030BDFFF737FD2A6854F8043C92F866200D
:1016980007480849006823F00103792A44F8043C04
:1016A8000860EDD1BDE83040FFF726BD48000020B6
:1016B800BC020020B8020020F0B5294C236893F83A
:1016C80066E0C61CBEF1790F81B026F0030635D05E
:1016D800244F39686FF007050C4606F1080C0868B6
:1016E800002834D04B6813F0010301D106E00068EC
:1016F800436813F00103FAD1044601463BB90A686E
:101708002AB1536803F001031146002BF7D02B1BB5
:101718000B44634584E80A00E1D304EB0C0346F06C
:101728000106BEF1790F3C606660236044F80C1036
:101738005D6009D004F1080001B0F0BDFFF7DAFCE4
:10174800236893F866E0C3E7FFF7D6FCF2E7BEF13B
:10175800790FF1D10090FFF7CFFC0098ECE700BFBC
:1017680048000020B8020020A1F1080C033121F044
:101778000301103910B400EB0C034160054C064915
:101788000360002240F80C2020605A6010BC0860FA
:10179800704700BFBC020020B8020020034B40F095
:1017A800BF6040F40030D860704700BF00ED00E033
:1017B80010B502784368012102F01F044FEA521E57
:1017C800A140DBB1104B4478DB686FEA030CCCF323
:1017D800022C8378CCF10400C0B204FA00F00F2484
:1017E80044FA0CF4C0B22340034308481B010244E6
:1017F800DBB282F8003340F82E1010BD034B0EF117
:10180800200E43F82E1010BD00ED00E000E100E0CE
:1018180030B58568446800232B80A3689847002862
:101828000ADB23794BB1012B0BD1E3684FF0FF3072
:10183800984701232B70002030BDE36801209847AA
:10184800F7E74FF0FF3030BDF0B5856846682B7874
:1018580053B3174C236893F86630792B0FD0377938
:1018680017BBF368012098476420FFF7C3FA236881
:1018780093F86630792B05D06F700020F0BDFFF724
:1018880045FCECE7FFF73CFC236893F86630792BBE
:10189800F2D1FFF72FFC236893F866306F70792B2D
:1018A800EBD1FFF729FCE8E74FF0FF30F0BD00BFB0
:1018B80048000020F0B58668446833780D4643B385
:1018C800274F3B6893F86630792B19D0737803BBA0
:1018D80001237370E9B92079D8B9E36898474FF4C0
:1018E8006170FFF787FAE368012098476420FFF7E3
:1018F80081FA3B6893F86630792B14D00020F0BD4C
:10190800FFF7F8FB3B68727893F8663022B1792BC1
:101918001AD04FF0FF30F0BD0122792B727005D03C
:10192800002DD8D0F5E7FFF7EBFBE7E7FFF7E4FB7F
:10193800002DEED13B6893F86630792BCBD1FFF7B9
:10194800E5FB002DC7D0E4E7FFF7D6FB002DE0D17B
:101958003B6893F86630792BDBD14FF0FF35EEE723
:10196800480000202DE9F04F83681B7884B00746B3
:101978008B46002B00F08B80531C4468DFF830A1A5
:1019880001939046DAF8003093F86630792B7BD0D3
:10199800FFF78CFA05460E46E3684FF0FF3098478C
:1019A8000028F9D0FFF782FA401B61EB06012828CE
:1019B80071F10001E6D3FFF779FA05460E46E368B0
:1019C8004FF0FF3098470028F9D18146FFF76EFAAB
:1019D800401B61EB0601502871F10001D2D3B8F128
:1019E800FF3F61D00BF1FF3502940BEB080900951E
:1019F8005C46CDF80C804FF0080B4FF000087D686E
:101A0800EB684FF0FF3098470028F9D0FFF74EFAFF
:101A18000646EB684FF0FF3098470028F9D1FFF7EA
:101A280045FA801B502826DC2828D4BF0020012036
:101A380040EA4800BBF1010B5FFA80F8DFD1009B58
:101A480003F8018F4B450093D5D101ABA34693E82A
:101A58001801012B05D09BF800206379B3EB520FD6
:101A680090D1DAF8003093F86630792B16D00198C7
:101A780004B0BDE8F08F009B4FF0FF0803F8018F1A
:101A88004B450093B7D1E0E7FFF740FB80E74FF005
:101A9800FF330193019804B0BDE8F08FFFF730FBE6
:101AA800019804B0BDE8F08FCDF80490D9E700BFE5
:101AB8004800002070B505460C460826EB68002053
:101AC80098472868FFF796F9EB6801209847286837
:101AD800230648BF4000FFF78DF96400013EE4B2D9
:101AE800ECD170BD2DE9F04783681B7806460C469B
:101AF80017464BB3DFF86C80D0F80490D8F8003064
:101B080093F86630792B27D048464FB307F1FF3A50
:101B1800A2440025013C14F8011FFFF7CBFF2378EE
:101B2800706854451D44F6D1E9B2FFF7C3FFD9F8F0
:101B38000C3001209847D8F8003093F86630792B9C
:101B480006D03846BDE8F0874FF0FF30BDE8F08793
:101B5800FFF7D6FA3846F5E7FFF7D8FA7068D4E702
:101B68003946E2E7480000204368C26830B4046898
:101B780003F1804303F59E336FEA040C02B3174A5E
:101B88008168156805EA0C051560556805EA0C05B5
:101B980055601D682C431C600368946824EA03049C
:101BA8009460D068102920EA0300D0600ED001F1BB
:101BB800804202F59E3230BC11680B4313607047B7
:101BC8001A6802EA0C0230BC1A607047916819431F
:101BD8009160D1680B4330BCD3607047003C014032
:101BE800034B5B691840003818BF0120704700BFDD
:101BF800003C0140014B5861704700BF003C014068
:101C080000222DE9F04713460D684FF0010E032618
:101C180004E00133102B02F1020245D00EFA03FC56
:101C28003CEA0504F5D10768D1F8048006FA02F405
:101C380027EA04070760D0F800A008FA02F908F1BB
:101C4800FF3849EA0A09B8F1010F2746C0F80090A1
:101C58006FEA040419D8D0F8088004EA08048460FC
:101C68008C68D0F80880944044EA08048460D0F86E
:101C780004808C8928EA0C0CC0F804C0D0F804C091
:101C88009C40A4B244EA0C044460D0F80CC00C692F
:101C98002CEA0707C760C768944001333C43102B00
:101CA800C46002F10202B9D1BDE8F087006980B2D0
:101CB800704700BF89B28161704700BF0904816124
:101CC800704700BF436989B259404161704700BFFE
:101CD800C1F3CC0300EB830001F00701036A89001C
:101CE8004FF00F0C0CFA01FC23EA0C030362036AA1
:101CF800D2B28A401A430262704700BF1E4A9368F4
:101D080003F00C03042B10B433D0082B18D01B4B52
:101D1800194A036094681A49C4F303140C5DE3403C
:101D280043609468C4F382240C5D23FA04F484604D
:101D3800926810BCC2F342328A5CD340C3607047D9
:101D48005368516813F4800F536814BF0D4A0B4A47
:101D5800C3F3881301F03F01B2FBF1F202FB03F376
:101D6800054A5268C2F3014201325200B3FBF2F352
:101D7800CEE7044BCCE700BF003802400024F40053
:101D8800404C000840787D01044A136B11B10343AD
:101D98001363704723EA0003136370470038024057
:101DA800044A536B11B103435363704723EA00039A
:101DB8005363704700380240044A136C11B103435F
:101DC8001364704723EA0003136470470038024025
:101DD800044A536C11B103435364704723EA000368
:101DE8005364704700380240044A136A11B1034330
:101DF8001362704723EA00031362704700380240F9
:101E080001F0FC0303F1804303F59C3301F0030167
:101E18009A6889004FF00F0C0CFA01FC22EA0C02B8
:101E28009A609A68C0B2884010439860704700BFB3
:101E380070B41A4C02684E680D88A04293B220D044
:101E4800B0F1804F12D0A4F57C44A0420ED004F526
:101E58008064A0420AD004F58064A04206D00360E2
:101E68000123C662856270BC436170474A8823F0CB
:101E78007003134303600123C662856270BC43612B
:101E880070474A8823F0700313430360C662856273
:101E98008B7A0363012370BC4361704700000140E3
:101EA80000234FF0FF324260038103608372704762
:101EB800036819B143F00103036070474FF6FE72DF
:101EC80013400360704700BF344A35481368002147
:101ED80043F0010382B013609160136823F08473A8
:101EE80023F4803313605060136823F48023136055
:101EF800D16000910191136843F48033136003E0CB
:101F0800009BB3F5A04F09D0136803F40033019385
:101F1800009B01330093019B002BF1D01F4B1B68E2
:101F280013F4003318BF01230193019B012B05D043
:101F38001C4B4FF000629A6002B07047174B1A4969
:101F48001A6C1A4842F080521A640A6842F44042F5
:101F58000A609A689A609A689A609A6842F480520D
:101F68009A6058601A6842F080721A601A68920182
:101F7800FCD50F4A40F203611160996821F0030112
:101F88009960996841F00201A2F5806299609368AE
:101F980003F00C03082BFAD1CAE700BF003802404F
:101FA8001030002400ED00E0007000401960410886
:101FB800003C0240164A936803F00C03042B25D01A
:101FC800082B0AD0134B124A134892681349C2F3DC
:101FD8000312825CD3400B6070475368516813F456
:101FE800800F536814BF0E4A0A4AC3F3881301F0DE
:101FF8003F01B2FBF1F202FB03F3054A5268C2F358
:10200800014201325200B3FBF2F3DCE7044BDAE79A
:10201800003802400024F400504C0008440000201E
:1020280040787D014FF0FF30704700BF10B504467F
:10203800FFF760F821460A48FFF750FA094B0A49AA
:102048001A6813688B4204D105E052F8083F8B42A6
:1020580001D09C42F9D151680448FFF73FFAFEE7E6
:10206800104A0008D001002011C0FFFF204A0008D4
:1020780030B51A4D2B6859684A6892F866000228EC
:1020880004BF012082F8660042F2127400E02B6857
:102098001868FFF771FA013C436801461BD093F8B2
:1020A8006620012AF3D1DA6D002AF0D1B3F8642052
:1020B800013A92B2D0B2A3F864200028E7D1286888
:1020C8000224416042EA122283F86640B3F86000B5
:1020D800A3F8642030BD0248FFF7A8FF480000209D
:1020E80001C0FFFF034B1A68136E01331366FEF736
:1020F80027BF00BF48000020F0B5064681B0682021
:102108008DB2FFF7D9FA044600285CD0314F3B68FE
:1021180093F86620792A4ED018682146FFF718FAF6
:10212800002850D039684460B1F864202660002344
:1021380041F61F7C02F1010EE365A4F86230A56543
:102148002846A1F864E0A4F8602084F86630A4F872
:1021580064C0FFF7B1FA6065002837D03B6893F890
:102168006630792B2BD02A466921FFF7ADF9606DCF
:1021780004223321FFF7A8F9606D05F18043043B81
:1021880000EB830004223321FFF79EF9616D33468B
:102198002A46201DFEF7DCFFA06D636D2268B4F8A7
:1021A800601000900C48FFF799F90123002084F88B
:1021B800663001B0F0BDFEF79DFF3B68ACE7FEF767
:1021C8009BFF606DCFE70548FFF730FF0448FFF736
:1021D8002DFF00BF48000020284A000803C0FFFF69
:1021E80004C0FFFF10B5174C174840F2255101F005
:1021F800DDFA00B3144801F0B3FAB4F88230B4F849
:102208008020013303F07F0392B29342C0B213D00F
:10221800B4F8822092B240F22551A054A4F882303A
:10222800B4F88430084801339BB2A4F8843001F034
:10223800BDFA0028DED110BDD4F888300133C4F8C7
:102248008830D1E7C40200200010014010B5184CB6
:10225800184840F2255101F0A9FA10B3154801F0C9
:102268007FFAB4F81231B4F81021013303F07F0378
:1022780092B29342C0B215D0B4F8122114FA82F285
:1022880040F2255182F89000A4F81231B4F81431C4
:10229800084801339BB2A4F8143101F087FA0028EA
:1022A800DCD110BDD4F818310133C4F81831CFE7A8
:1022B800C40200200044004010B5184C184840F2F1
:1022C800255101F073FA10B3154801F049FAB4F832
:1022D800A231B4F8A021013303F07F0392B29342F4
:1022E800C0B215D0B4F8A22114FA82F240F22551F6
:1022F80082F82001A4F8A231B4F8A43108480133C7
:102308009BB2A4F8A43101F051FA0028DCD110BD29
:10231800D4F8A8310133C4F8A831CFE7C4020020AB
:1023280000140140F0B5C0B28DB00D46D4B20628F5
:1023380005D8DFE800F0A3713E04040408004FF05C
:10234800FF300DB0F0BD01210846FFF71DFD01214A
:102358002020FFF73DFD814808220B21FFF7B8FC3C
:102368007E4808220C21FFF7B3FC002602237C4894
:1023780009934FF4C05208A901270A9308920B96B3
:102388000C97FFF73DFC4FF440237648049504A9C9
:10239800ADF81C600596069301F072F9002C00F068
:1023A800C6807048012101F0CBF96F4B83F88C404F
:1023B8008CE001210846FFF7E7FC01214FF40030CB
:1023C800FFF7FAFC654807220221FFF781FC634802
:1023D80007220321FFF77CFC002602235F480993AC
:1023E8000C2208A901270A9308920B960C97FFF76D
:1023F80007FC4FF440235D48049504A9ADF81C6020
:102408000596069301F03CF9002C79D05748012134
:1024180001F096F9564BC9E701210220FFF7B4FCF9
:1024280001211020FFF7D4FC524807220621FFF7AC
:102438004FFC072211464F48FFF74AFC00260223AB
:102448004C480993C02208A901270A9308920B96C1
:102458000C97FFF7D5FB4FF440234748049504A990
:10246800ADF81C600596069301F00AF9002C30D0EF
:102478004148012101F064F9404B97E701210846E2
:10248800FFF782FC4FF40044002334480B930125E6
:1024980008A90A930C9308940995FFF7B1FB214604
:1024A8002E48FFF70BFC6420FEF740FC21462B4822
:1024B800FFF700FC4FF4FA70FEF738FC3049009142
:1024C800304B314A3148294600F0CEFC00200DB08F
:1024D800F0BD29483A4640F2255101F045F9252337
:1024E80002A8ADF808308DF80A400397FFF760F9A5
:1024F800224BA3F88040A3F88240A3F88440B7E7B2
:102508001A483A4640F2255101F02EF9262302A82E
:10251800ADF808308DF80A400397FFF749F9174BD3
:10252800A3F81041A3F81241A3F814416EE70D482F
:102538003A4640F2255101F017F9472302A8ADF8B1
:1025480008308DF80A400397FFF732F90B4BA3F8D0
:10255800A041A3F8A241A3F8A44122E70000024049
:102568000008024000140140E40300200044004039
:10257800540300200004024000100140C40200205F
:10258800A8010020B40000208C0100207404002061
:10259800C0B200B5062805D8DFE800F028221404E8
:1025A8000404070000205DF804FB1248202101F014
:1025B800F5F8114B93F88C206AB1003818BF012048
:1025C8005DF804FB0D48202101F0E8F80C4B93F866
:1025D8008C20002AF1D1B3F8840080B25DF804FBA6
:1025E8000848202101F0DAF8074BE3E700F0F4FA95
:1025F8005DF804FB00140140E4030020004400409F
:102608005403002000100140C4020020C0B210B5DD
:10261800CCB2062833D8DFE800F028041C32323266
:1026280010001B48802101F0B9F80028F9D0214694
:102638001748BDE8104001F08FB81648802101F016
:10264800ADF80028F9D021461248BDE8104001F045
:1026580083B81148802101F0A1F80028F9D021465B
:102668000D48BDE8104001F077B8204600F0A2FA06
:102678000A4A1368642B03F1010101D0116010BDEF
:102688000023BDE8104005201360FEF74FBB00BFD4
:10269800001001400014014000440040C002002026
:1026A80030B5C0B282B006280FD8DFE800F0047D4C
:1026B800470E0E0E11000DF1070000F099FA0028E0
:1026C800F9D09DF8070002B030BD002002B030BD3F
:1026D800514C94F8AC5135BBB4F8A021B4F8A231F0
:1026E80092B29BB29A42F7D0FEF704FDB4F8A0214B
:1026F800B4F8A23192B29BB29A427DD0B4F8A0311C
:1027080014FA83F393F82051B4F8A031013303F09D
:102718007F03A4F8A031B4F8A431013B9BB2EDB219
:10272800A4F8A43168E03D48202101F037F80028DA
:10273800F9D03A4801F014F8C0B2C4E7364C94F81E
:102748001C5135BBB4F81021B4F8123192B29BB2C7
:102758009A42F7D0FEF7CEFCB4F81021B4F8123143
:1027680092B29BB29A4247D0B4F8103114FA83F36C
:1027780093F89050B4F81031013303F07F03A4F8B4
:102788001031B4F81431013B9BB2EDB2A4F8143106
:1027980032E02348202101F001F80028F9D0204830
:1027A80000F0DEFFC0B28EE71B4C94F88C5045BB9E
:1027B800B4F88020B4F8823092B29BB29A42F7D033
:1027C800FEF798FCB4F88020B4F8823092B29BB23D
:1027D8009A4211D0B4F880309BB2E55CB4F88030EE
:1027E800013303F07F03A4F88030B4F88430013B50
:1027F8009BB2EDB2A4F884308DF80750FEF77CFC4C
:102808005FE70848202100F0C9FF0028F9D00548F3
:1028180000F0A6FFC0B256E7C40200200014014031
:10282800004400400010014010B5074C2068FF2804
:1028380007D0064A064B12689B6806499847FF234B
:102848002360002010BD00BFE0000020680A0020BF
:10285800280100207C0A0020432301480B80704790
:10286800E40000201F4A1368052B70B503F101012D
:1028780002D01160002070BD1B4D2978002301296A
:102888001360F7D0194E1A4A31681468B1F5006F11
:102898001FD0A14222D0174A98BF641A12FA81F2B7
:1028A80088BFC1F50064D0F8EC35B3F83930A342DD
:1028B8000BD21944E41A31600F490C6001212970C8
:1028C800812101F01DFD002070BD21442346002414
:1028D800F1E7336014B1074A1946E4E700232B7087
:1028E800C8E700BF640A00206C0A0020740A0020B0
:1028F800780A0020840A0020700A0020C9B201EB7F
:10290800810100EBC101094BB1F888131B6910B5AF
:10291800044607489847D4F8EC35054AB3F84030E0
:102928000121204601F0C4FC002010BD2801002030
:102938008412002070B50B7813F060020C4605462F
:1029480015D0202A03D000F097FD022070BDCA8858
:102958004E7802B31B062FD51D4B1E499B68304687
:1029680098471C49E288284600F006FB18E04B7897
:102978000A2B1CD00B2B15D0062B11D14B881B0A08
:10298800212B03D1CA883A2A28BF3A22124928465D
:1029980000F0F2FA04E00E4B11469B683046984767
:1029A800002070BD8B787BB90C4A1360F8E70B499F
:1029B800012200F0E1FAF3E709490A4B0E600549E4
:1029C8001A6000F0F3FAEBE700F056FDE8E700BF05
:1029D800280100207C0A0020F6000020C4120020F4
:1029E800E0000020680A002010B58121044601F0AB
:1029F80043FC0121204601F03FFC8221204601F0E2
:102A08003BFC024B5B689847002010BD2801002062
:102A1800D0F8EC2510B50446B2F8392002238121FC
:102A280001F0F2FBD4F8EC250223B2F84020012192
:102A3800204601F0E9FB032308228221204601F009
:102A4800E3FB084A084B022191801B689847D4F899
:102A5800EC35064AB3F840300121204601F028FC45
:102A6800002010BD780100202801002084120020D9
:102A780070B5124B1A78012A01D0002070BD104C95
:102A8800216899B1D0F8EC350E4DB3F839302A6881
:102A980099420ED9C91A9E1821600B4C2E608121CB
:102AA80014FA82F201F02CFC002070BD197000208D
:102AB80070BD8E180B460021EEE700BF6C0A00209F
:102AC800700A0020740A0020840A00200020704741
:102AD800202810B417D0212802D0002010BC70473D
:102AE800104B10BC1A680A701A68120A4A705A8881
:102AF8008A70DA78CA701A790A715A794A719B7998
:102B08008B7100207047074B91F804C048798A7987
:102B18000C68587183F804C09A711C60002010BCBE
:102B2800704700BF3C01002030B5A1B100EB010E99
:102B38000A4C0B4901380EF1FF3E00250A6810F8CF
:102B480001CF04F802C0531CB3F5006F08BF2B4631
:102B580086450B60F2D1002030BD00BF840A0020FA
:102B6800780A0020F0B4C9B10E4B0F4C1E680F4D07
:102B78002368014401390138002701E088420DD05B
:102B880010F8012FEA540133802B0ABF0023236079
:102B980027609E42F2D10220F0BC70470020F0BCB2
:102BA800704700BFC8120020CC120020D0120020AD
:102BB80000207047064A116810B44B1C054CB3F549
:102BC800006F605408BF002310BC1360704700BF3B
:102BD800780A0020840A0020034A044B10681B6806
:102BE800C01A18BF01207047CC120020C81200205C
:102BF8000B4B0C491A68096891420ED00A498A5C45
:102C080002701A687F2A02F1010102D019600120BE
:102C1800704700221A60012070470020704700BFEB
:102C2800C8120020CC120020D012002010B5D0F815
:102C3800E43504461B699847032384F812310020C1
:102C480010BD00BF00B5D0F8E435042280F8122189
:102C5800DB68984700205DF804FB00BFD0F8E0353A
:102C6800DB6900B503B1984700205DF804FB00BF9D
:102C780000B5D0F8E0351B6A984700205DF804FBE2
:102C880000B5D0F8E0355B6A984700205DF804FB92
:102C980000B5D0F8E4355B69984700205DF804FB7F
:102CA800D0F8E43510B504469B699847D4F8E03568
:102CB80000215B6820469847002010BD002310B50E
:102CC80019460446402201F09FFA80210023402241
:102CD800204601F099FAD4F8E435A078012284F866
:102CE80012215B689847002010BD00BF10B582B064
:102CF8006946044600F0AEFB9DF8001001F01F0382
:102D0800012B10D0022B07D0A3B96946204600F04A
:102D180087F9002002B010BD6946204600F02AFB62
:102D2800002002B010BD6946204600F0F9FA0020E4
:102D380002B010BD01F08001204601F005FB002023
:102D480002B010BD11F0FF0130B5044605D190F86E
:102D58001131022B0DD0002030BDD0F8E0355B6971
:102D6800002BF8D090F81221032AF4D198470020BC
:102D780030BDD0F83421D0F820319A4211D9C0782A
:102D8800D4F824110128A2EB030208BFC918C4F81B
:102D9800342108BFC4F8241192B2204600F0FCF890
:102DA800D9E7D0F83821B2FBF3F503FB152565B94F
:102DB80093420AD8D0F83C319A4206D22A4629468C
:102DC80000F0EAF8C4F83C51C5E7D4F8E035DB6810
:102DD8001BB194F81221032A03D0204600F010F901
:102DE800B9E720469847F8E711F0FF0110B5044607
:102DF80005D190F81131032B0DD0002010BDD0F86B
:102E0800E0359B69002BF8D090F81221032AF4D101
:102E18009847002010BDD0F88C33D0F8782393421F
:102E280013D9C078D4F87C130128A3EB020304BF9C
:102E38008918C4F87C139A4228BF1A46C4F88C3300
:102E480092B2204600F0C2F8D7E7D0F8E0351B6907
:102E58001BB190F81221032A03D0204600F0C0F8D5
:102E6800CBE79847F9E700BF2DE9F041044616463D
:102E78001F46DDF818800D4600F0BAFC20462946AA
:102E8800C4F8E075C4F8E485C4F8E86501F072F99F
:102E9800D4F8E4351B6898472046BDE8F04100F0B7
:102EA800EDBC00BFD0F8E03510B50446C9B21B68C8
:102EB8009847D4F8E4359B689847002010BD00BFB8
:102EC80000B5D0F8E035C9B25B68984700205DF8D6
:102ED80004FB00BF122301480B80704778010020D3
:102EE800042301480B8070477401002000B50A468E
:102EF8000348044900F0DAFA02485DF804FB00BF11
:102F0800504A00085413002000B50A4603480449F3
:102F180000F0CCFA02485DF804FB00BF684A0008DC
:102F28005413002000B50A460348044900F0BEFACD
:102F380002485DF804FB00BF7C4A000854130020D7
:102F480000B50A460348044900F0B0FA02485DF8A3
:102F580004FB00BF8C4A00085413002000B50A4641
:102F68000348044900F0A2FA02485DF804FB00BFD8
:102F7800984A00085413002000B593B20A4602216B
:102F8800C0F83431C0F8383180F81111002101F04F
:102F9800B7F900205DF804FB00B593B20A4600219A
:102FA80001F0AEF900205DF804FB00BF00B593B254
:102FB8000A460321C0F88C33C0F8903380F8111109
:102FC800002101F075F900205DF804FB00B593B20B
:102FD8000A46002101F06CF900205DF804FB00BFEF
:102FE80010B5002304220446194680F811211A4618
:102FF80001F086F9204601F0ADF8002010BD00BFB1
:1030080010B5002305220446194680F811211A46F6
:1030180001F04EF9204601F09DF8002010BD00BFD8
:1030280070B54B7882B00C460546092B06D8DFE808
:1030380003F02435054A05637B05159194F90030A2
:10304800002B01DBE3889BB98021284601F07CF93D
:10305800284601F07FF8002002B070BDCA88012A16
:1030680000F0988091F90030002BEDDB002AEBD0BE
:103078000021284601F068F9EAE790F81231023B8E
:10308800012BDBD8D0F81431A249002B0CBF012347
:10309800032301220B60FFF76FFFDCE790F8123182
:1030A800023B012BCAD84B88012BD4D1D0F8E0358C
:1030B80000229B68C0F814212146284698472846D4
:1030C800FFF78EFFC7E74B88012B00F00A81022B20
:1030D800C1D18B88DAB2002ABDD101691B0A4A68BE
:1030E800013B1046042B00F2E380DFE813F0F00008
:1030F800F500EB00E600DD004B68002B9ED190F850
:103108001231032B9AD04C8804F07F0480F81341C5
:10311800214601F055F92846FFF762FF002C46D0FA
:10312800022385F8123196E74A88130A013B062BD9
:1031380084D801A151F823F031320008F531000894
:10314800E3310008453000084530000845300008E4
:10315800453000088978704E012931703FF66EAF0E
:1031680090F81231022B26D0032B7FF467AF002989
:1031780000F0C28090F81011012907D0FFF7A0FED7
:10318800317885F810112846FFF78CFE2846FFF79E
:1031980027FF60E790F81231022B1AD0032B00F0BA
:1031A800A68091F90030002BBFF662AF4CE70123EF
:1031B80085F812314FE70029E8D00121032380F870
:1031C800101180F81231FFF76DFE2846FFF708FF4F
:1031D80041E75249FFF7D0FE3DE7D2B2052A3FF654
:1031E8002DAFDFE802F0494139315951D0F8E035C7
:1031F80080789B6A0DF10601984702234370C5F851
:10320800EC05BDF80630002B3FF425AFE288002A14
:103218003FF421AF9A4228BF1A4601462846ADF826
:103228000620FFF7A9FE16E7D0F8E83580781B6876
:103238000DF106019847E288402A68D095F81231C6
:10324800012BDED10823E2E7D0F8E83580781B6946
:103258000DF106019847D4E7D0F8E8358078DB68A7
:103268000DF106019847CCE7D0F8E83580789B68DF
:103278000DF106019847C4E7D0F8E83580785B6817
:103288000DF106019847BCE7D0F8E83580789B69CE
:103298000DF106019847B4E7D0F8E83580785B6906
:1032A8000DF106019847ACE7052363F306100246C3
:1032B8004A602846FFF794FECDE6042363F3061020
:1032C8000246F5E7032363F306100246F0E70123FD
:1032D80063F306100246EBE7022363F30610024687
:1032E800E6E7D0F8E025C0F814319368E4E600F585
:1032F8008871FFF741FEAEE6022380F8123180F8AC
:103308001011FFF7DDFD2846FFF76AFEA3E6082344
:1033180080E700BF88130020501300208C13002082
:1033280030B590F81231032B04460D460AD10B79BB
:10333800012B07D8D0F8E0359B689847EB88ABB1EC
:10334800002030BD95F90030002B01DBEB8843B934
:103358008021204600F0F8FF204600F0FBFE002008
:1033680030BD0021204600F0EFFFF5E72046FFF7CB
:1033780037FEE5E730B50C468A886378012B0546A9
:10338800D1B232D0032B19D0B3B990F81231022B35
:103398002FD0032B3CD113064ED401EB810100EB57
:1033A800C10191F87233003B18BF0123284902225A
:1033B80028460B60FFF7E0FD002030BD90F8123181
:1033C800022B16D0032B23D163881BB94A0601D0E0
:1033D80000F0BAFFD5F8E03521469B6828469847A3
:1033E8002846FFF7FDFD002030BD90F81231022B72
:1033F80004D14A06E0D000F0A7FFDDE7032B07D190
:103408006388002BD8D14B06EAD000F0BDFFE1E776
:1034180094F90030002B0ADBE38843B100212846E9
:1034280000F092FF284600F095FE002030BD802174
:10343800284600F089FFF5E701F07F0101EB8101E3
:1034480000EBC10191F81A31003B18BF0123ADE729
:1034580090130020B0F8C8350B80B0F8CA354B80FF
:10346800B0F8CC358B80B0F8CE35CB800122C0F8CF
:103478003C3180F81121704710B591F90030002BCC
:10348800044601DBCB8843B92046802100F05CFF6D
:103498002046BDE8104000F05DBE002100F054FF5A
:1034A8002046BDE8104000F055BE00BF30B400B360
:1034B800037803B303461C4613F8015F002DFAD1C5
:1034C800C0F101032344DBB201335B00DCB213809B
:1034D80003230C704B7004785CB1022300255A1C3E
:1034E800D2B2CC548D5410F8014F0233DBB2002C09
:1034F800F5D130BC704702242346E8E7014B01228E
:103508001A60704794130020014B01221A6070471B
:1035180094130020014B02221A6070479413002074
:10352800014B01221A60704794130020014B0122BD
:103538001A60704794130020014B01221A607047EB
:1035480094130020014B01221A6070479413002045
:10355800002070470020704700207047014B18601A
:10356800704700BFCC010020014B1860704700BFB6
:10357800C8010020014B1860704700BFC40100203B
:1035880000B5034B1B68984700205DF804FB00BF9B
:10359800CC0100202DE9F04F814620F00F088B4622
:1035A80000296AD008F110084FF0000A0A20FFF736
:1035B800E7FF1C25A8F1100444FA05F000F00F00FD
:1035C8000928CCBF37303030043DFFF7D9FF2B1D19
:1035D800F2D12020FFF7D4FF002627460FE0202055
:1035E800FFF7CEFF2020FFF7CBFF2020FFF7C8FF13
:1035F800072E1FD00136102E07F1010720D04F45A6
:10360800EDD33D789F2D4FEA151098BF303005F067
:103618000F0588BF3730FFF7B3FF092D94BF05F1B9
:10362800300005F13700FFF7ABFF2020FFF7A8FFB8
:10363800072EDFD12020FFF7A3FF08260137DEE79A
:103648002020FFF79DFF7C20FFF79AFF2378A3F146
:1036580020025E2A4FF02E0004F1010498BF18469C
:10366800FFF78EFF4445F1D17C200AF1100AFFF7DD
:1036780087FFD34508F1100898D80020BDE8F08FDF
:103688000269CB8830B522F4405213439BB284B010
:103698000D4603618B880989C2680B43698922F446
:1036A800B0520B4322F00C029BB213439BB2C3608F
:1036B8004269AB8922F4407213439BB243610446CA
:1036C8006846FEF71BFB1C4B9C4205D003F5806344
:1036D8009C4201D0029B00E0039BE1682A68E568F0
:1036E8000804164803EB83034CBF5200920003EB17
:1036F8008303B3FBF2F3A0FB032149094FF0640CE9
:103708000A010CFB113329040AD5DB003233A0FB74
:103718000303C3F3421313439BB2A36004B030BD49
:103728001B013233A0FB0303C3F3431313439BB2C0
:10373800A36004B030BD00BF001001401F85EB51ED
:10374800C36819B143F40053C36070474DF6FF7264
:103758001340C360704700BFC1F308014160704760
:103768004068C0F30800704701F01F0CC1F3421114
:103778000123012903FA0CF30DD002290CBF1030E4
:1037880014301AB10268134303607047026822EAD2
:103798000303036070470C30F3E700BF036888B287
:1037A8001840003818BF0120704700BFC1F3421C01
:1037B80000B5012301F01F0EBCF1010F024689B2CA
:1037C80003FA0EF310D0BCF1020F0CBF0069506968
:1037D8001840136830B1090A0120884018400038A1
:1037E80018BF01205DF804FBC0681840F1E700BF6E
:1037F80010B5012186B00846FEF7C6FA4FF4D85135
:103808000023022201911C48049301A90593039205
:103818000292FEF7F5F918480A220821FEF758FA2D
:1038280015480A220921FEF753FA13480A220B21E8
:10383800FEF74EFA10480A220C21FEF749FA4FF417
:103848008063012401A90193022201230A480594F7
:1038580003920493FEF7D4F90A2211460648FEF7AC
:1038680037FA21468020FEF79BFA21464FF0805018
:10387800FEF7BAFA06B010BD0000024000B54FF4DA
:10388800C06082B0FDF78AFF40F243110322012392
:103898006846ADF800108DF802200193FDF788FF07
:1038A80002B05DF804FB00BF704700BF704700BF5F
:1038B800014800F08FBD00BF7404002030B582B00D
:1038C8000023124C019305460320FFF7EDFFEB6838
:1038D800013C1A69019216D0019A002AF4DA01997A
:1038E8000A4A41F00101019101991961196901918F
:1038F800013A02D00199C907F8D4032002B0BDE803
:103908003040FFF7D1BF02B030BD00BF410D03000A
:1039180030B4C478D2B29BB26CB902F13405DA1C67
:10392800921050F8255006D02346013351F8040B65
:1039380028609A42F9D1002030BC70471FFA82FCF7
:103948000CF1030C5FEAAC0C30B5D0F8D0500CD0B9
:103958000A4600239E4601332C6842F8044B9C45D6
:10396800F8D1043101EB8E0030BD084630BD00BFF0
:103978000122402391422DE9F0414280838059D0B1
:10398800002943D04778057800234FF40062C360CC
:1039980002614FF46066002F63D01A464FF48868BE
:1039A8004FF4806E02F5106300F1140C00214CF8FE
:1039B800043F013103F50074B942CCF83C4003F1EF
:1039C8002003F4D3C0F814E0C0F8CC80CDB100F1E6
:1039D8008C0302F5A0614FEA850C03EB850443F8DC
:1039E800041F9C4201F12001F9D100F1CC0102F53C
:1039F800805301EB0C0241F8043F8A4203F58053DF
:103A0800F9D1C0F80C610020BDE8F081184B194AC3
:103A1800C17240F20C644FF4A0610261164EDFF8E7
:103A28005C80DFF85CE00480C180C36006271A462A
:103A38000C25B7E7C1724FF4A071124AC1804FF04C
:103A4800A0434FF48164022102610F4EDFF83C80ED
:103A5800DFF83CE004800172C360042708251A4699
:103A6800A0E74FF488683A464FF4806EAAE700BF93
:103A78000000044000080440000E044040040440D4
:103A88000004044000080050000E0050400400509C
:103A98000004005030B5037AC268012B04464FF089
:103AA80000051AD1956B417A25F4803591B163F3FD
:103AB80014559563D36823F4940323F0D80343F093
:103AC8001003D3602046FFF7F9FEE378012B2CD0D2
:103AD800002030BDC5F30053E9E7D36843F0400345
:103AE800D360FFF7EBFE237A627AA3F10303B3FAFC
:103AF80083F35B09003A4FEA430318BF012243F0FE
:103B08000D0343EA0213E26863F317459563142033
:103B1800FFF7CCFE217AE2680329D36812D0D3607C
:103B2800E378012BD4D1E16802E0E1682A238B60B5
:103B38008B6823F03E0242F02A0262F307038B608F
:103B4800002030BD43F48033D360156B0A4B03EA81
:103B5800154343F4A15343F00D0363F31F45156365
:103B6800C820FFF7A3FEE36845F40005C8201D63DD
:103B7800FFF79CFED4E700BF00E3FFFF03460020E9
:103B8800DA68936843F001039360704703460020A6
:103B9800DA68936823F001039360704700B582B038
:103BA80000230193019B43F020030193019B61F3E0
:103BB8008A130193C168019A074B0A610A69019245
:103BC800013B02D0019A9206F8D40320FFF76CFE5D
:103BD800002002B05DF804FB410D0300C068C36813
:103BE800C9B2C3F3076222F06002012900B562F38B
:103BF8001F6309D009B943F08043C3603220FFF73F
:103C080055FE00205DF804FB43F00053F5E700BFC4
:103C1800C3685869C04300F001007047C368586919
:103C28009B691840704700BF10B4C3680A4C4FF036
:103C3800FF310246002098615961596059619C61C1
:103C4800D178064A9C69B1FA81F1490942EA011220
:103C580022439A6110BC7047000800800C383C4031
:103C6800F0B504460020D4F80C312269E16882B02E
:103C78001860136860F3CC231360E37A012B11D129
:103C880013683E4843F00303136080253C4B4D62A4
:103C98003C4A8862C1F804314FF4A073C1F8082186
:103CA800C1F80C3100230193019B43F020030193D9
:103CB800019A354B102060F38A120192019A0A6129
:103CC8000A690192013B02D0019A9006F8D40320B8
:103CD800FFF7EAFD00220092009AE1682A4B42F0C1
:103CE80010020092009A0A610A690092013B02D010
:103CF800009AD206F8D40320FFF7D6FD26690025DE
:103D08004FF0FF3335617561B361F561607830B3A9
:103D180004F114024FEA800CFF2702EB800052F8EE
:103D2800043F19680029B4BF4FF090410021824236
:103D380019601D619F60F2D104F1500202EB0C0082
:103D48000027FF2552F8043F19680029B4BF4FF037
:103D580090410021904219601F619D60F2D1336942
:103D680043F480733361E378012B01D1074B33634C
:103D78002046FFF759FF002002B0F0BD8000200068
:103D8800A000800020012000410D030003018100F4
:103D980003699868C0F3410002281ABF00F00100C7
:103DA800C0F1030001207047036981699A680868B7
:103DB800C2F34102022A0CBF0322002262F30A0066
:103DC80008605A6842F4807200205A60704700BF49
:103DD80030B44C7891F800C0012C4FF0010303FA7D
:103DE8000CF30CBF0CF1060C0CF1150C9BB250F83F
:103DF8002C4025684FF000020CBF63F30F0263F3F9
:103E08001F422B0415D48B6891F803C0C988C3F3EB
:103E18000A0343F0805343F400430CF0030C01F011
:103E28000F0143EA8C4343EA8153054929400B4378
:103E380023600369D9690A43002030BCDA617047FE
:103E4800007833EC91F801C00A78BCF1010F4FF00B
:103E5800010303FA02F30CBF063215324FF00001DA
:103E68009BB20CBF63F30F0163F31F4150F822307C
:103E7800026900201860D36923EA0103D3617047FF
:103E88002DE9F0474D780A784B6991F803C0012D68
:103E98002CD015328F6850F82250C7F312022C68C4
:103EA8002E690BB33B44013BB3FBF7F3C3F309079C
:103EB80007FB02F23B46C2F3120242EAC34262F334
:103EC8001C062E61C378012B04BF0B696B61BCF122
:103ED800010F3FD0C4F3076363F07B0363F31F64F0
:103EE8002C600020BDE8F0870123E6E700EB82089C
:103EF800D8F818E0DEF80040DEF8106006F06046FA
:103F08006BB3D1F808A0374F0AEB030909F1FF3961
:103F1800B9FBFAF907EAC947C3F3120947EA0907DF
:103F28003743BCF1010F3E4646D0CEF81070C37837
:103F3800012B53D0036995405A6B15435D63C4F355
:103F4800076363F07B0363F31F64CEF8004000202F
:103F5800BDE8F0874B7963B344F00054BAE746F400
:103F68000026CEF81060C578012D30D0BCF1010FC5
:103F7800E5D10269926812F4807FC4F307620CBF2E
:103F880062F05B0262F06B0262F31F64CEF80040DD
:103F9800002DA6D198B203308010D8F8D040A0D018
:103FA800CA682B46013352F8041B21609842F9D1A4
:103FB80097E744F080548DE76CF35E76CEF8106096
:103FC800C578012DD5D10A69CEF81420D1E70A6940
:103FD800CEF81420BCF1010FB1D1CAE70B69CEF8B5
:103FE8001430ACE70000F81F70B44B784D69012B12
:103FF80022D00B788A68153350F823603468336907
:10400800C5B923F4C01302F07F0242F4002223F062
:104018007F0313433361C378012B04BF0B697361BA
:10402800C4F3076363F07B0363F31F643460002009
:1040380070BC70474A61E4E7826914681369F5B98E
:1040480023F4C01323F07F0345F400252B431361A9
:10405800C378012B1CD0C4F3076565F07B0565F3B5
:104068001F641460002BE2D14B69002BDFD002697A
:104078000878516B012383400B435363D7E78E685D
:10408800AE423ABF4E6106F07F0505F07F05D7E7DF
:104098000B780D69063350F82310C4F3076363F0F7
:1040A8007B0363F31F644D610020146070BC70478C
:1040B8004B78012B09D00B78153350F8232013685F
:1040C80043F400131360002070470A780949063248
:1040D80050F822000268002AA8BFC2F380739B032D
:1040E80001EA124143F020030B4363F31F420260CD
:1040F80000207047DFBFFFFF4A780B78012A0CBF0A
:1041080006331533CA7850F823000368023A012AA7
:1041180023F400138CBFC3F30072012262F31C73F3
:1041280003600020704700BF03699869DB69184085
:10413800000C7047C9B21531036950F82120906806
:104148005B691840704700BF03699869DB691840CC
:1041580080B27047436D064A1A61C278012A06D1B7
:1041680000F5B96058614FF0802219681A607047ED
:10417800180008C0F0B50646FFF7FAFB757801206D
:10418800A6F812016DB30021334632460C4640278B
:1041980082F81811A2F81E110131A94282F81901FA
:1041A80082F81B41C2F82071C2F82441C2F82C41A0
:1041B80002F12802ECD100221146402083F8702336
:1041C800A3F876230132AA4283F8711383F8731394
:1041D800C3F87803C3F87C13C3F8841303F12803E6
:1041E800ECD13046FFF7D2FC3046FFF753FC0021F4
:1041F8003046FFF7F3FC3046FFF732FD3046BDE8A6
:10420800F040FFF7BBBC00BF5FFA81FC090600B5B0
:1042180092B2DBB219D40CEB8C01C90000EB010E91
:1042280001F55C71CEF8782300228EF870C3014442
:104238008EF873338EF87123022B04BF00230B71A1
:10424800FFF7C6FD00205DF804FB0CF07F0C0CEBBB
:104258008C01C90000EB010E01F58C71CEF820210C
:10426800012201448EF818C18EF81B31AEF81EC128
:104278008EF81921E0E700BFCBB201F07F020906F2
:1042880000B50DD403EB830100EBC10101F55C71AE
:10429800DB090A704B70FFF7D5FD00205DF804FBC1
:1042A80002EB820100EBC10101F58C71F0E700BF60
:1042B80010B501F07F0404EB840C4FEACC0C00EB42
:1042C8000C0E9BB2CEF884330023CEF87C238EF8F4
:1042D8007043CEF888338EF87133C3780CF55C7C64
:1042E800012B00EB0C0108BFCEF880231CB9FFF7A7
:1042F8007BFE002010BDFFF7C3FD002010BD00BFEE
:1043080010B501F07F0404EB840E4FEACE0E00EBEB
:104318000E0C0146CCF82C3100230EF58C7ECCF81F
:104328003031012371448CF81841CCF82421CCF8A1
:1043380028218CF819311CB9FFF756FE002010BD52
:10434800FFF79EFD002010BDCBB201F07F020906E9
:1043580000B511D403EB830100EBC10101F55C71D9
:104368004FF0010CDB0981F802C00A704B70FFF7AF
:104378009FFE00205DF804FB02EB820100EBC10107
:1043880001F58C71ECE700BFCBB201F07F020906A2
:1043980010B50ED403EB830100EBC10101F55C718C
:1043A8000024DB098C700A704B70FFF7A5FE2046CD
:1043B80010BD02EB820100EBC10101F58C71EFE742
:1043C8000269C9B21068002361F30A13034313603A
:1043D800704700BF2DE9F04F81B00446FFF718FC85
:1043E80018B9002001B0BDE8F08F2046FFF716FC91
:1043F80007460028F5D0C0F3074313F008000093E0
:1044080040F0C180009B5E077FD4B907FDB202D59A
:10441800E36802225A61002F4FEA1768C0F27181DF
:104428003A05C7F3072600F10B812F0708D5944BEF
:104438001B682046DB689847E368082201205A6118
:10444800E9063BD4F20600F11F81B30600F1DF80D4
:10445800009BDF0609D58A4B1B682046DB69984715
:10446800E3684FF480125A610120009B9E0609D52B
:10447800834B1B6820461B6A9847E3684FF4001279
:1044880001205A6118F0400F09D07D4B1B68204667
:104498005B6A9847E3684FF0804201205A616907D8
:1044A800A0D5E3685D686A0705D5754B1B6820468B
:1044B8009B6A9847E3685D60012093E7E3689A691F
:1044C80022F010029A611F6AC7F34342022A07F0DA
:1044D8000F0A00F05681062A11D10AEB8A0A04EB6A
:1044E800CA0A082204F5B9612046FFF727FADAF864
:1044F8008833C7F30A173B44CAF88833E3689A69D4
:1045080042F010029A6101209CE72046FFF71CFE4A
:104518008346002835D0264604F118094FF0000AD2
:104528001BF0010F00F008812269D9F8001010690A
:10453800536B23FA0AF3DB01DBB2034388680340B9
:10454800DD07D8B240F100814D4B506B1B684FF02E
:10455800010C5D680CFA0AF320EA03035363204652
:10456800C1F808C05146A847E378012B00F026811E
:104578005FEA5B0B0AF1010A06F1280609F1040952
:10458800CED1012041E72046FFF7CEFD05460028A1
:1045980000F0F0803A4E04F1540BA0464FF00009A9
:1045A8004FF0010AEB0708D46D08EB0709F1010980
:1045B8000BF1040B08F12808F6D549462046FFF709
:1045C800B9FDC3B2C00740F1CE80DBF80030C3F8B4
:1045D80008A0E278012A07D11A69D8F87833C2F31B
:1045E80012029B1AC8F88833336849461B6820466C
:1045F8009847E378012B00F0FA806D0800F0BA8044
:1046080009F101090BF1040B08F12808CAE7204653
:10461800FFF7CAFBE3682046DE68FFF7B9FB03280B
:1046280000F0AA80012240230521A380E368A2703C
:1046380061F38D264FF40052DE6001205A6107E7CE
:104648000F4B1B6820465B69984723699968E368A4
:104658004FF400625A61A37A83B1CB070ED5D4F820
:104668000C3108491A6842F001021A601A6842F0CF
:1046780003021A600B6943F006030B610120D4E6BC
:104688004401002000ED00E0226953684FF0000B60
:1046980023F00103536059462046FFF77FFA6778F5
:1046A800DA465FB104F1140303EB8707FF2253F8DE
:1046B800041F8A60D96B9F428A60F8D10F22236950
:1046C80062F3070B2F2262F3070A4FF0FF329A6159
:1046D8004FF00112DA61C3F814B0C3F810A01A68D9
:1046E80022F4FE621A602046FFF734FD784BE26838
:1046F8001B684FF480511B6951612046984701207F
:10470800A3E6A37A43B1D4F80C31D4F80C2123F0F2
:10471800030161F3070313606D4B22691B689969F4
:10472800536823F00103536020468847E3684FF03D
:10473800004201205A6173E60AF1010A4FEA5B0B55
:10474800283609F10409EBE6450709D4020704D421
:10475800C50647D510238B600AE708238B6007E757
:1047680004238B6004E7990735D5DBF80030022273
:104778009A6042E7012045E600224FF400730921C0
:1047880053E747F6F0723A423FF4B9AE0AEB8A0AA9
:1047980004EBCA0AC7F30A17DAF87C133A4620462C
:1047A800FFF7CCF8DAF87C333B44CAF87C33DAF804
:1047B80088333B44CAF88833E368A0E6BAF1000FAF
:1047C8007FF4D6AE94F81131042B7FF4D1AE204695
:1047D800FFF7C0FCCCE65A0716D5DBF800300422F8
:1047E8009A600AE782061BD520238B60C0E6B9F1E0
:1047F800000F7FF402AF94F81131052B7FF4FDAE62
:104808002046FFF7A7FCF8E61B077FF5F6AE3368EE
:1048180020469B689847DBF8003008229A60ECE64F
:10482800450602D540238B60A2E6800702D5022305
:104838008B609DE65BB2002B3FF49AAED6F8303120
:104848008D69D6F82C01D6F820211FFA85FCC51AE7
:10485800AA4228BF2A460332BCEB920F88BF1D46E6
:1048680024D827E0D6F82031D6F824119D4228BF55
:104878001D46ABB252462046FFF74AF8D6F8243117
:10488800D6F82C01D9F800102B44C6F82431D6F8F4
:10489800303105F103081D4485424FEA9808C6F8EF
:1048A80030510AD28A6992B2904503D2A842A0EB4D
:1048B8000505D7D880238B605AE6206996F81851E9
:1048C800436B0122AA4023EA02034363F2E700BFD5
:1048D80044010020534C425F4C4954453A206770CC
:1048E800696F5F636F6E66696770696E7328290AFE
:1048F80000000000534C425F4C4954453A20616E19
:1049080074657320646F206465765F777269746577
:1049180028290A00534C425F4C4954453A206465A3
:10492800706F697320646F206465765F777269744D
:104938006528290A00000000534C425F4C49544541
:104948003A207461736B3028290A0000756570611C
:104958000A000000736C6264657669636500000094
:104968006770696F5F646576696365000A2A2A2A39
:10497800207461736B2025642C20737461636B3A17
:104988002030782570202873697A65202564290AE3
:10499800000000003C4E554C4C3E00003031323394
:1049A8003435363738396162636465660000000063
:1049B80041524D20436F72746578204D342028731E
:1049C800746D33326634787829000000302E393718
:1049D800000000005543582F4F532076257320625E
:1049E8006F6F74206F6E2025730A00006865617010
:1049F8005F696E697428292C2025642062797465A2
:104A08007320667265650A000A2A2A2A2048414CE2
:104A18005420282564290000202D2025730A000031
:104A28007461736B2025643A20307825702C2073CC
:104A38007461636B3A20307825702C2073697A652D
:104A48002025640A0000000053544D333220566973
:104A5800727475616C20436F6D506F727400000042
:104A680053544D6963726F656C656374726F6E69D8
:104A78006373000030303030303030303035304300
:104A88000000000056435020436F6E6669670000BF
:104A980056435020496E7465726661636500000074
:104AA8006E6F206572726F72000000006661696C3B
:104AB800757265006E6F207461736B7320746F205C
:104AC80072756E006B636220616C6C6F6320666147
:104AD800696C65640000000074636220616C6C6F2F
:104AE80063206661696C656400000000737461632B
:104AF8006B20616C6C6F63206661696C6564000093
:104B08007461736B206E6F7420666F756E6400003D
:104B18007461736B2073757370656E642066616968
:104B28006C6564007461736B20726573756D6520C4
:104B38006661696C656400007461736B20696E76E8
:104B4800616C6964207072696F7269747900000021
:104B5800737461636B20636865636B206661696C5D
:104B6800656400007069706520616C6C6F63206615
:104B780061696C6564000000706970652064656136
:104B88006C6C6F63206661696C65640073656D6148
:104B980020616C6C6F63206661696C65640000005D
:104BA80073656D61206465616C6C6F632066616913
:104BB8006C65640073656D61206F706572617469FE
:104BC8006F6E206661696C65640000006D657373C3
:104BD800616765207175657565206E6F7420656DF8
:104BE80070747900756E6B6E6F776E207265617385
:104BF8006F6E00005C490008104C00086402002039
:104C08002400002000000000210000000000000037
:104C18003D020008E501000868490008344C000816
:104C280000000000000000000C00002001008000CF
:104C380000800000000000000000000001020304E2
:104C48000102030406070809000000000000000034
:084C580001020304060708092C
:104C6000FC4B00080C000020204C000881030008C9
:104C70006D030008650300085D0300085503000884
:104C80004D0300081918000800000000BD180008B6
:104C9000511800086D190008ED1A00080000000006
:104CA0000000000000E1F5054C00002000000000BD
:104CB00000000000000000000000000000000000F4
:104CC00000000000000000000000000000000000E4
:104CD00000000000000000000000000000000000D4
:104CE00000000000000000000000000000000000C4
:104CF00000000000000000000000000000000000B4
:104D0000000000002D20000800000000000000004E
:104D100000000000192A0008F12900083D290008B8
:104D20000000000031280008792A00080529000841
:104D30006D28000800000000000000006128000845
:104D4000FF00000009024300020100C03209040014
:104D500000010202010005240010010524010001E8
:104D6000042402020524060001070582030800FF4F
:104D700009040100020A00000007050102400000CA
:104D80000705810240000000D52A0008B92B000861
:104D9000D92A0008312B00086D2B000800C2010041
:104DA0000000080048010020F12D00084D2D0008EA
:104DB000F52C0008652C0008C52C00084D2C0008B7
:104DC000352C0008792C0008892C0008992C000843
:104DD000A92C00080403090412010002000000408D
:104DE000830440570002010203010000DD2E000889
:104DF000E92E0008112F0008F52E00082D2F0008BD
:104E0000492F0008652F00080535000811350008F6
:104E10001D350008293500083535000841350008E2
:104E20004D350008613500085D350008593500082A
:104E3000D401002000000000A84A0008FFFFFFFF87
:104E4000B44A000801C0FFFFBC4A000802C0FFFFCF
:104E5000CC4A000803C0FFFFE04A000804C0FFFF7F
:104E6000F44A000806C0FFFF084B000807C0FFFF18
:104E7000184B000808C0FFFF2C4B000809C0FFFFBB
:104E8000404B00080AC0FFFF584B00080BC0FFFF53
:104E90006C4B00080CC0FFFF804B00080DC0FFFFEB
:104EA000944B00080EC0FFFFA84B00080FC0FFFF87
:104EB000BC4B000810C0FFFFD44B000811C0FFFF1F
:044EC000EC4B0008AF
:0400000508000C697A
:00000001FF
