:020000040800F2
:1000000000000220610C0008050C0008050C000827
:10001000050C0008050C0008050C00080000000095
:10002000000000000000000000000000090C0008B3
:10003000050C000800000000BD010008FD0E0008CE
:10004000050C0008050C0008050C0008050C00084C
:10005000050C0008050C000899060008BD060008FC
:10006000E10600080507000829070008050C00083C
:10007000050C0008050C0008050C0008050C00081C
:10008000050C0008050C0008050C0008050C00080C
:10009000050C0008050C0008050C00084D070008B9
:1000A000050C0008050C0008050C0008050C0008EC
:1000B000050C0008050C0008050C0008050C0008DC
:1000C000050C0008050C0008050C0008050C0008CC
:1000D000050C000871210008DD210008050C00084E
:1000E000C9070008050C0008050C0008050C0008ED
:1000F000050C0008050C0008050C0008050C00089C
:10010000050C0008050C0008050C0008050C00088B
:10011000050C0008050C0008050C0008050C00087B
:10012000050C0008050C0008050C0008050C00086B
:10013000050C0008050C0008050C0008050C00085B
:10014000050C0008050C0008050C000865380008BF
:10015000050C0008050C0008050C00084D220008DD
:10016000050C0008050C0008050C0008050C00082B
:10017000050C0008050C0008050C0008050C00081B
:08018000050C0008050C000845
:10018800021C7346F8C043464C4655465E466F46C9
:10019800F8C0F8CA00207047021C1430F8C8984606
:1001A800A146AA46B346BD46F8CA081C00D101209C
:1001B800184700BFEFF3098020E9F00F05490968E7
:1001C8000860054909680868B0E8F00F80F30988F5
:1001D80070470000B4020020B002002000B5B8B19A
:1001E80001280BD001301BD10F4B104A1B68106837
:1001F8005B689847C0F3C0105DF804FB0A4B0B4AD4
:100208001B6810689B688021984700205DF804FBF4
:10021800054B064A1B681068DB6880219847F4E79D
:100228004FF0FF305DF804FB0400002008000020B8
:10023800FEE700BF00B5064801F0FEF8054B064A88
:100248001B6810681B68984700205DF804FB00BF16
:1002580074480008040000200800002030B5D4B21B
:10026800202CC0B28AB028BF20240F4D400040F097
:10027800010322460DF105008DF8043001F0C8F89D
:100288002868002100F04EF8621CD2B201A9286843
:1002980000F050F8286800F049F84FF4487000F072
:1002A80041FD0AB030BD00BF0000002070B50D4808
:1002B8000D4E9AB001F0C0F81AAB0DF16705C3F501
:1002C8009F740DF10303E21803F8012FAB42FAD132
:1002D800202201A90120FFF7C1FF304601F0ACF848
:1002E800EFE700BF94480008A848000800B54FF49D
:1002F8000061074801F0C2FE4FF40061054801F0B3
:10030800BDFE054B186800F009F801205DF804FBF4
:1003180039020008B502000800000020C3681B6805
:10032800184700BFC3689B68184700BFC368DB68ED
:10033800184700BFC3685B69184700BF406800F0F2
:100348008FBA00BF406800F081B900BF406800F074
:100358005BB900BF406800F035B900BF00B5406820
:1003680000F010F90028A8BF80B25DF804FB00BFB8
:10037800406800F001B800BF2DE9F043064686B09A
:1003880000244FF0030873882341DB0748D5620037
:100398007568B16808FA02F31D40D540012D2AD0CE
:1003A800022D44D015BB96F800900B40B9F1010F0F
:1003B80023FA02F700F0C780B9F1020F00F0AB8012
:1003C800B9F1000F12D10121084601F09FFC012369
:1003D8000393012F03FA04F3CDF80890CDF8109099
:1003E80001933FD0022F3DD0002F3BD04FF0FF307C
:1003F80006B0BDE8F0833778012F62D0022F75D0A0
:10040800002FF3D12946284601F080FC0295039578
:1004180059480497A54001A90597019501F0B2FB39
:100428000134102CAFD1002006B0BDE8F083377836
:10043800012F32D0022F1BD0002FD7D1012108461F
:1004480001F064FC012303FA04F24B48019201A96C
:100458000134029304930393059301F093FB102C4A
:1004680091D1E0E74448059701A901F08BFBD7E754
:100478000121042001F04AFC012303FA04F23F4859
:10048800019201A90134029304930393059301F0A7
:1004980079FB102C7FF477AFC5E72846394601F081
:1004A80035FC07FA04F33648019301A90134029791
:1004B80004970397059701F065FB102C7FF463AF51
:1004C800B1E73946022001F021FC07FA04F3019351
:1004D8002B480297002301A901340493039705933D
:1004E80001F050FB102C7FF44EAF9CE72946042006
:1004F80001F00CFC05FA04F301932048029500234F
:1005080001A9013404930395059301F03BFB102CDA
:100518007FF439AF87E70121042001F0F7FB0123BD
:100528000393012F03FA04F302950495019304D071
:10053800022F02D0002F7FF459AF1048059701A968
:1005480001F020FB6CE74946022001F0DFFB09FAC5
:1005580004F3012F02950495CDF80C90019304D073
:10056800022F02D0002F7FF441AF0548059701A95B
:1005780001F008FB54E700BF0000024000080240F9
:100588000004024010B50378012B04460FD0022B5B
:1005980006D04BB9084801F04BFB6388184010BDE2
:1005A800064801F045FBF8E74FF0FF3010BD04485E
:1005B80001F03EFBF1E700BF0000024000080240E6
:1005C8000004024000B503784288012B01EA0201C9
:1005D8000CD0022B06D06BB9084801F02DFB002087
:1005E8005DF804FB064801F027FBF8E7054801F031
:1005F80023FBF4E74FF0FF305DF804FB00000240F6
:10060800000802400004024000B503784288012B2C
:1006180001EA02010CD0022B06D06BB9084801F0A0
:100628000FFB00205DF804FB064801F009FBF8E722
:10063800054801F005FBF4E74FF0FF305DF804FBD7
:1006480000000240000802400004024000B50378A0
:100658004288012B01EA02010CD0022B06D06BB9AB
:10066800084801F0F1FA00205DF804FB064801F0A3
:10067800EBFAF8E7054801F0E7FAF4E74FF0FF3046
:100688005DF804FB0000024000080240000402403C
:1006980000B5012001F066FA38B1054B1B68984790
:1006A8005DF804EB012001F067BA5DF804FB00BFB8
:1006B8006802002000B5022001F054FA38B1054B59
:1006C8005B6898475DF804EB022001F055BA5DF8C5
:1006D80004FB00BF6802002000B5042001F042FAC4
:1006E80038B1054B9B6898475DF804EB042001F08E
:1006F80043BA5DF804FB00BF6802002000B508207B
:1007080001F030FA38B1054BDB6898475DF804EB27
:10071800082001F031BA5DF804FB00BF6802002030
:1007280000B5102001F01EFA38B1054B1B69984737
:100738005DF804EB102001F01FBA5DF804FB00BF60
:100748006802002000B5202001F00CFA28B11B4BEC
:100758005B699847202001F00FFA402001F002FA67
:1007680028B1164B9B699847402001F005FA802074
:1007780001F0F8F928B1114BDB699847802001F0A6
:10078800FBF94FF4807001F0EDF930B10B4B1B6AA7
:1007980098474FF4807001F0EFF94FF4007001F0C2
:1007A800E1F940B1054B5B6A98475DF804EB4FF4FB
:1007B800007001F0E1B95DF804FB00BF6802002099
:1007C80000B54FF4806001F0CDF930B1234B9B6A3E
:1007D80098474FF4806001F0CFF94FF4006001F0C2
:1007E800C1F930B11D4BDB6A98474FF4006001F046
:1007F800C3F94FF4805001F0B5F930B1174B1B6BBA
:1008080098474FF4805001F0B7F94FF4005001F0C9
:10081800A9F930B1114B5B6B98474FF4005001F0C8
:10082800ABF94FF4804001F09DF930B10B4B9B6B55
:1008380098474FF4804001F09FF94FF4004001F0D1
:1008480091F940B1054BDB6B98475DF804EB4FF429
:10085800004001F091B95DF804FB00BF6802002078
:10086800F0B51D4686B00C46064601214FF480407F
:10087800174601F06FFA032D4AD0042D42D0022DFD
:1008880042D1082230780492012300210593019374
:10089800012840F201130391ADF8013067D0022816
:1008A8003ED088BBB4F5807F00F08F8100F3B08024
:1008B800202C00F35D818C4226DD013C1F2C23D8BF
:1008C800DFE814F05301500122004D0122002200FC
:1008D80022004A01220022002200220022002200D7
:1008E80022004701220022002200220022002200CA
:1008F80022002200220022002200220022002200E0
:10090800220044011022BDE74FF0FF3006B0F0BDD1
:100918000C22B7E7B4F5805F00F0398140F3A0807E
:10092800B4F5804F19D0B4F5004F00F08F80B4F5BE
:10093800005FE9D10D2101F025FAAE4B029428227F
:100948008DF800205F6302A801F0D0F8AA48694634
:1009580000F0F0FA002006B0F0BD0E2101F012FA06
:10096800A44B029428228DF800209F63EBE7B4F58E
:10097800807F00F02A81CDDC202C00F3F980002C48
:10098800C2DD013C1F2CBFD801A353F824F000BFDF
:100998003D0B0008250B0008110900080D0B000885
:1009A800110900081109000811090008F50A0008D2
:1009B80011090008110900081109000811090008A7
:1009C800110900081109000811090008DD0A0008CA
:1009D8001109000811090008110900081109000887
:1009E8001109000811090008110900081109000877
:1009F8001109000811090008110900081109000867
:100A0800110900081109000811090008C50A0008A1
:100A1800B4F5805F00F0BB8038DCB4F5806F00F07F
:100A2800CA80B4F5006F00F0BC80B4F5007F7FF495
:100A38006BAF0921002001F0A5F96E4B4FF400714E
:100A4800172202918DF800205F627CE70F2101F0E8
:100A580099F9684B029428228DF80020DF6372E729
:100A6800B4F5806F00F0A780B4F5006F00F09980AE
:100A7800B4F5007F7FF448AF092101F083F95D4B9D
:100A8800029417228DF800205F625CE7B4F5804F6E
:100A98003FF463AFB4F5004FD8D0B4F5005F7FF4EE
:100AA80033AF0D21002001F06DF9524B4FF4005186
:100AB800282202918DF800205F6344E70521012078
:100AC80001F060F94B4B2021172202918DF800208C
:100AD8005F6138E70421012001F054F9454B1021EA
:100AE8000A2202918DF800201F612CE703210120C2
:100AF80001F048F93F4B0821092202918DF80020A6
:100B0800DF6020E70221012001F03CF9394B042184
:100B1800082202918DF800209F6014E70121084601
:100B280001F030F9334B0221072202918DF80020A1
:100B38005F6008E70021012001F024F92D4B012115
:100B4800062202918DF800201F60FCE60521002096
:100B5800B6E704210020BFE703210020C8E70221EF
:100B68000020D1E701210020DAE700210846E3E769
:100B7800402C34D0802C7FF4C7AE072101F002F955
:100B88001C4B029417228DF80020DF61DBE60C2154
:100B980001F0F8F8174B029428228DF800201F6303
:100BA800D1E60B2101F0EEF8124B029428228DF8C1
:100BB8000020DF62C7E60A2101F0E4F80D4B029439
:100BC80028228DF800209F62BDE6082101F0DAF89E
:100BD800084B029417228DF800201F62B3E6062105
:100BE80001F0D0F8034B029417228DF800209F6182
:100BF800A9E600BF6802002015170008704700BF6B
:100C0800EFF309831A685868104700BF436893F8E0
:100C18006620032A01D000207047B3F86220002A1A
:100C2800F9D0013A92B2A3F86220002AF3D1012246
:100C380083F86620EFE700BF4FF0E022136943F026
:100C480001031361704700BF4FF0E022136923F0DE
:100C580001031361704700BF114B124A934200B55C
:100C68000CD2013AD21A22F0030204320E491A4475
:100C780051F8040B43F8040B9342F9D10B4B0C4A7F
:100C880093420AD2013AD21A22F0030204321A44D9
:100C9800002143F8041B9342FBD100F039FCFEE726
:100CA8000000002064020020B44B00086402002009
:100CB800981300200C4B1B685B6810B55C68606D6E
:100CC8000368B3F1333F00D110BDA16D02F036FCCB
:100CD800A36D626DB4F86010044800F0ADFBBDE888
:100CE8001040034801F064B948000020C8480008D3
:100CF8000AC0FFFF00B5002001F012FC003818BF41
:100D080001205DF804FB00BF00B5002001F090FC55
:100D18005DF804FB10B5C1B20446002001F03EFCAA
:100D2800204610BD2DE9F0472D4BDFF8B8805B6AEF
:100D38002D4FB8F800203C68294E86B09BB2ADF81C
:100D48000C30BDF80C309BB29A42BDF80C30BDF89F
:100D58000CA088BF01341FFA8AFA4FEA04424FF404
:100D68007A7588BF3C604FEA144CA0FB055E12EB15
:100D78000A004CF10001049005919BB24FF0000964
:100D8800716A89B2ADF80E10BDF80E1089B2994299
:100D980005D201344FEA144C22044FF00109BDF882
:100DA8000E30BDF80EA004A903C98DE8030001990F
:100DB8001FFA8AFABAEB000061EB4101101841EB07
:100DC8000C01A84271EB0E019BB2D9D3A8F80030F0
:100DD800B9F1000F00D03C6006B0BDE8F08700BF55
:100DE80000480140AC020020A80200202DE9F04391
:100DF800294BDFF8A8805B6ADFF8A4E0B8F8002088
:100E0800DEF80060244F84B09BB2ADF80430BDF822
:100E180004309BB29A42BDF80420BDF8043088BF64
:100E280001369BB24FEA064188BFCEF800604FEA10
:100E3800164CCC184CF100050294039592B24FF071
:100E480000097B6A9BB2ADF80630BDF806309BB24C
:100E5800934205D201364FEA164C31044FF001098E
:100E6800BDF80620BDF8063002AD30CD9BB21B1B85
:100E780065EB4504CB1844EB0C04834274F1000481
:100E880092B2DED3A8F80020B9F1000F01D0CEF855
:100E9800006004B0BDE8F08300480140AC020020C7
:100EA800A802002010B4104B104C5B6A104920882F
:100EB80082B09BB2ADF80630BDF806200B68BDF8CD
:100EC80006C0A4F800C092B29042BDF8062084BFC4
:100ED80001330B6092B2190C1B04981841F1000100
:100EE80002B010BC704700BF00480140AC020020AF
:100EF800A802002030B50B4D2B685B685C68FFF7D3
:100F0800D1FF094B2C341C6001F0AEF82B68074A5E
:100F18005B6807495B682C330B60536843F0805368
:100F2800536030BD48000020B402002000ED00E00E
:100F3800B00200200BDF704710B50A4C23681B680D
:100F48009B685BB1FFF7B6FE236807491868002263
:100F580000F0CAFABDE8104001F04CB8034801F0AF
:100F680027F8EFE748000020150C000801C0FFFF34
:100F78002DE9F047514EDFF84891DFF8488186B0F7
:100F880000F064FF00F0D8FF33684F494F48A1FBD9
:100F980003134FF0E022C3F35713013B53610024BE
:100FA8000623F02580F8235001219461136180F80D
:100FB80022504FF4802000F0CDFE03A800F032FF4D
:100FC800434A3368434DADF81440A2FB03234FF660
:100FD800FF719B0C2846049103A9ADF80C30ADF8BD
:100FE8000E4000F0E7FE2146284600F023FF6C6221
:100FF8002846012100F01EFF22464FF4E131204629
:1010080001F058F93448334E02F07CFA334802F0C4
:101018007FFA334802F082FA6B6AB9F80020D8F8F0
:101028000040304D9BB2ADF80830BDF808309BB297
:101038009A42BDF80830BDF808A088BF01341FFAED
:101048008AFA4FEA044288BFC8F800404FEA144CB5
:1010580012EB0A004CF100010390049100279BB2A7
:10106800BE46716A89B2ADF80A10BDF80A1089B295
:10107800994204D201344FEA144C22040127BDF8E6
:101088000A30BDF80AA003A903C98DE80300019935
:101098001FFA8AFABAEB000061EB4101801841EBB4
:1010A8000C0185427EEB01019BB2DAD2A9F800302F
:1010B8000FB1C8F8004006B0BDE8F0874400002032
:1010C800AC020020A80200201F85EB5100ED00E0D3
:1010D80083DE1B43004801401D0D0008110D000868
:1010E800FD0C00087F841E0072B6704762B6BFF31D
:1010F8006F8F704701480021FFF71CBF410C0008A3
:1011080001480021FFF716BF510C00080C4B1B6863
:101118005A6893F866305268792B05D14FF0E02170
:101128000B6943F001030B61836A403383F3098839
:10113800032383F31488BFF36F8F1368184700BF26
:1011480048000020114410B4A1F140024FF080740F
:1011580041620360826201E9180010BC704700BF59
:101168002DE9F04F0B7884B0894605469046002B50
:101178005DD0252B40F0D88099F80130302B00F055
:10118800E280A3F13002092A09F101094FF0200A8F
:1011980040F2E3804FF0FF34583B202B41D8DFE882
:1011A80003F051404040404040404040406D1140B5
:1011B80040404040404082404040BE404088407EE1
:1011C8004040510058F8046B002EC0F2E0800A211C
:1011D800002E3CD14FF030038DF80030EB46012350
:1011E800E41A002C04F1FF370ADD002D31D02B68FA
:1011F80083F800A02B68013F01337A1C2B60F7D1DC
:10120800721C5A44541E12F8010C6DB32B6801E08D
:1012180014F8010D18702B685C4503F101032B606D
:10122800F6D199F8013009F10109002BA1D12DB1AE
:101238002B6800221A702B6801332B60002004B041
:10124800BDE8F08F58F8046B1021002EC2D0374645
:10125800A7E0504602F068F9013FD1D3504602F0AA
:1012680063F9013FF5D2CBE728B95C45D9D014F82A
:10127800010D0028F9D002F057F9F6E758F8040BE9
:10128800002D7DD02A6810702B6801332B6099F8E7
:10129800013009F10109002B7FF46BAFC7E758F85B
:1012A800046B0A2194E758F8046B09F101090A2133
:1012B8008EE758F8047B002F5DD03878002800F0BE
:1012C8009F80002CADD06DB12B6818702B6801334E
:1012D8002B6017F8010F631E58B1002BA1D01C46D4
:1012E800002DF1D102F020F917F8010F631E002834
:1012F800F3D1A71E002B94DD002D66D02B6883F850
:1013080000A02B68013F0133791C2B60F7D199F8B5
:10131800013009F10109002B7FF42BAF87E758F85A
:10132800046B1021042453E7002D5AD02A68137047
:101338002B6801332B6099F8013009F10109002B62
:101348007FF417AF73E79A4699F80230A3F1300299
:10135800092A09F102093FF61DAF002404EB8404B1
:1013680003EB440419F8013FA3F13002092AA4F160
:101378003004F3D910E7244F3C20002CA3D150E7C8
:1013880010F0FF003FF44DAF02F0CEF849E7774286
:1013980095B32B682D221A702B6801332B60013C02
:1013A8000A21EB46DFF864E0DC4600233846B7FB49
:1013B800F1F701FB170288421EF802200CF8012BF6
:1013C8001E4603F10103F1D20AE7504602F0ACF8D9
:1013D800013FFFF426AF504602F0A6F8013FF4D2D1
:1013E8001FE7184602F0A0F899F8013009F1010941
:1013F800002B7FF4BEAE1AE72D2002F095F8CEE759
:10140800671E234676E700BFF0480008F848000842
:101418003AB1431E0A4411F801CB03F801CF9142B7
:10142800F9D1704732B1C9B20244034603F8011B2F
:101438009A42FBD1704700BF0FB400B582B003AA2F
:10144800002052F8041B0192FFF78AFE02B05DF8F3
:1014580004EB04B0704700BF30B50C2000F0DAF898
:101468000446C8B1082000F0D5F8054688B1082020
:1014780000F0D0F890B14DF6AD6385E80900002280
:10148800002380E80C00002325606060A3602046EC
:1014980030BD204600F090F80024F8E7204600F020
:1014A8008BF8284600F088F8F6E700BF30B5044608
:1014B80008200D4600F0AEF8034650B10020002188
:1014C80083E80300A2686068013280E8280063604E
:1014D800A26030BD0B681A680AB1184670470368E5
:1014E8001B681846704700BF036870B51C682368FE
:1014F8000E4615461BB908E0246823682BB1294617
:101508002046B0470028F7D070BD002070BD00BF4E
:1015180030B5204C81B0FFF72BFD1F4A1F492048EA
:10152800FFF78AFF21461F4800F0CCF821461E4CE1
:101538001E48FFF781FF2568FFF78EFF23682860A4
:101548001B681BB3FEF7D2FE174B009018680830D3
:10155800FEF716FE144C23681A68916881B1009949
:1015680000290CBF6E21792183F866101268126871
:101578005A6050680430FFF7C9FD002001B030BD43
:101588000B4800F015FD23681A68E8E7094800F0E1
:101598000FFDD7E768CC01000C490008284900086E
:1015A80030490008981300204800002048490008E6
:1015B80001C0FFFF02C0FFFF30B5134D2B6893F841
:1015C8006630792B04460AD050F8043C0F49104A7B
:1015D800096823F0010340F8043C116030BDFFF7AF
:1015E80083FD2A6854F8043C92F8662007480849A5
:1015F800006823F00103792A44F8043C0860EDD11F
:10160800BDE83040FFF772BD48000020BC02002052
:10161800B8020020F0B5294C236893F866E0C61C90
:10162800BEF1790F81B026F0030635D0244F396812
:101638006FF007050C4606F1080C0868002834D03E
:101648004B6813F0010301D106E00068436813F00A
:101658000103FAD1044601463BB90A682AB1536826
:1016680003F001031146002BF7D02B1B0B446345F5
:1016780084E80A00E1D304EB0C0346F00106BEF14E
:10168800790F3C606660236044F80C105D6009D0F7
:1016980004F1080001B0F0BDFFF726FD236893F8B8
:1016A80066E0C3E7FFF722FDF2E7BEF1790FF1D15B
:1016B8000090FFF71BFD0098ECE700BF48000020F2
:1016C800B8020020A1F1080C033121F00301103900
:1016D80010B44160064C074900EB0C03002203607C
:1016E80040F80C2020605A6010BC0860704700BFAA
:1016F800BC020020B8020020034B40F0BF6040F459
:101708000030D860704700BF00ED00E010B50278E7
:101718004368012102F01F044FEA521EA140DBB1C9
:10172800104B4478DB686FEA030CCCF3022C837807
:10173800CCF10400C0B204FA00F00F2444FA0CF40F
:10174800C0B22340034308481B010244DBB282F8BD
:10175800003340F82E1010BD034B0EF1200E43F855
:101768002E1010BD00ED00E000E100E030B5856806
:10177800446800232B80A368984700280ADB237954
:101788004BB1012B0BD1E3684FF0FF309847012391
:101798002B70002030BDE36801209847F7E74FF031
:1017A800FF3030BD30B584682378ABB10C4D2B6861
:1017B80093F86630792B03D000236370002030BD86
:1017C800FFF792FC2B6893F866300022792B627041
:1017D800F4D1FFF78BFCF1E74FF0FF3030BD00BFCD
:1017E8004800002070B58668337881B00D4623B371
:1017F800134C236893F86630792B09D0707820B998
:1018080001237370CDB901B070BD4FF0FF30F9E717
:10181800FFF76AFC7078236850B193F866304FF090
:10182800FF30792BEED10090FFF760FC0098E9E7D4
:10183800012293F866307270F3E74FF0FF30E2E769
:10184800480000202DE9F04F836844681B7884B075
:101858000746002B00F09680531CDFF858A101932F
:1018680001EB020988469346DAF8003093F86630AF
:10187800792B00F08480FFF715FB05460E46E368D8
:101888004FF0FF3098470028F9D0FFF70BFB401BBB
:1018980061EB0601282871F10001E5D3FFF702FB8F
:1018A80006460D46E3684FF0FF3098470028F9D107
:1018B8000090FFF7F7FA801B61EB0501502871F1E2
:1018C8000001D1D3BBF1FF3F69D008F1FF35029485
:1018D80000954446CDF80CB04FF008084FF0000BC7
:1018E8007D68EB684FF0FF3098470028F9D0FFF784
:1018F800D9FA0646EB684FF0FF3098470028F9D12F
:10190800FFF7D0FA801B502830DC2828D4BF0020ED
:10191800012040EA4B00B8F101085FFA80FBDFD1F3
:10192800009B03F801BF4B450093D5D1DDF80CB0FF
:10193800A046029CBBF1000F35D098F800206379CF
:10194800B3EB520F90D1019BC3469B4419F8016C2D
:101958009BF80030B34215D1DAF8003093F86630BE
:10196800792B16D0019804B0BDE8F08F009B4FF09A
:10197800FF0B03F801BF4B450093ADD1D6E7FFF746
:10198800BFFB78E74FF0FF330193019804B0BDE83F
:10199800F08FFFF7AFFB019804B0BDE8F08F009D12
:1019A8000195C346D2E701235E46019308F1010B76
:1019B800CEE700BF4800002070B505460C46082653
:1019C800EB68002098472868FFF710FAEB680120B9
:1019D80098472868230648BF4000FFF707FA6400C5
:1019E800013EE4B2ECD170BD2DE9F04F83681B785D
:1019F80005468A461646002B46D0DFF8EC80476835
:101A0800D8F8003093F86600002A5BD04C1E02F12B
:101A1800FF3B234659444FF0000C13F8012F99421D
:101A28009444FAD179285FFA8CF935D0FB68002004
:101A380098474FF46170FFF7D9F9FB680120984780
:101A48006420FFF7D3F9DA4414F8011F6868FFF738
:101A5800B3FFA245F8D149466868FFF7ADFFFB68B8
:101A6800002098473868FFF7C1F9FB6801209847BC
:101A78006420FFF7BBF9D8F8003093F86630792B6B
:101A880006D03046BDE8F08F4FF0FF30BDE8F08F4C
:101A9800FFF730FBF5E7B146FFF732FBFB680020A4
:101AA80098474FF46170FFF7A1F9FB680120984748
:101AB8006420FFF79BF9002ECDD00AF1FF3406F120
:101AC800FF3BC0E77928E6D0FB68304698474FF4DB
:101AD8006170FFF78BF9FB68012098476420FFF7D6
:101AE80085F9B146B7E700BF480000204368C268DF
:101AF80030B4046803F1804303F59E336FEA040CA5
:101B080002B3174A8168156805EA0C05156055681F
:101B180005EA0C0555601D682C431C600368946831
:101B280024EA03049460D068102920EA0300D060F6
:101B38000ED001F1804202F59E3230BC11680B4391
:101B4800136070471A6802EA0C0230BC1A607047CA
:101B5800916819439160D1680B4330BCD3607047DA
:101B6800003C0140034B5B69184214BF0120002070
:101B7800704700BF003C0140014B5861704700BFEF
:101B8800003C014000222DE9F04713460D684FF054
:101B9800010E032604E00133102B02F1020245D0A6
:101BA8000EFA03FC3CEA0504F5D10768D1F8048075
:101BB80006FA02F427EA04070760D0F800A008FA3A
:101BC80002F908F1FF3849EA0A09B8F1010F274676
:101BD800C0F800906FEA040419D8D0F8088004EA25
:101BE800080484608C68D0F80880944044EA0804AB
:101BF8008460D0F804808C8928EA0C0CC0F804C0F2
:101C0800D0F804C09C40A4B244EA0C044460D0F864
:101C18000CC00C692CEA0707C760C76894400133F9
:101C28003C43102BC46002F10202B9D1BDE8F08731
:101C3800006980B2704700BF89B28161704700BFF8
:101C480009048161704700BF436989B25940416105
:101C5800704700BFC1F3CC0300EB830001F007011C
:101C6800036A89004FF00F0C0CFA01FC23EA0C03FD
:101C78000362036AD2B28A401A430262704700BF05
:101C88001E4A936803F00C03042B10B433D0082BBE
:101C980018D01B4B194A036094681A49C4F30314FB
:101CA8000C5DE34043609468C4F382240C5D23FA1E
:101CB80004F48460926810BCC2F342328A5CD34058
:101CC800C36070475368516813F4800F536814BF9A
:101CD8000D4A0B4AC3F3881301F03F01B2FBF1F23E
:101CE80002FB03F3054A5268C2F301420132520073
:101CF800B3FBF2F3CEE7044BCCE700BF0038024059
:101D08000024F400944B000840787D01044A136BCA
:101D180011B103431363704723EA00031363704749
:101D280000380240044A536B11B1034353637047B0
:101D380023EA00035363704700380240044A136CD7
:101D480011B103431364704723EA00031364704717
:101D580000380240044A536C11B10343536470477E
:101D680023EA00035364704700380240044A136AA8
:101D780011B103431362704723EA000313627047EB
:101D88000038024001F0FC0303F1804303F59C3363
:101D980001F003019A6889004FF00F0C0CFA01FC5E
:101DA80022EA0C029A609A68C0B288401043986090
:101DB800704700BF70B41A4C02684E680D88A04284
:101DC80093B220D0B0F1804F12D0A4F57C44A04249
:101DD8000ED004F58064A0420AD004F58064A042C5
:101DE80006D003600123C662856270BC43617047F8
:101DF8004A8823F07003134303600123C662856297
:101E080070BC436170474A8823F070031343036032
:101E1800C66285628B7A0363012370BC4361704795
:101E28000000014000234FF0FF324260038103604D
:101E380083727047036819B143F001030360704768
:101E48004FF6FE7213400360704700BF344A3548AE
:101E58001368002143F0010313609160136823F0B5
:101E6800847323F4803313605060136882B023F4C2
:101E780080231360D16000910191136843F480338B
:101E8800136003E0009BB3F5A04F09D0136803F477
:101E980000330193009B01330093019B002BF1D089
:101EA8001F4B1B6813F4003318BF01230193019BD8
:101EB800012B05D01C4B4FF000629A6002B07047AE
:101EC800174B1A491A6C1A4842F080521A640A6869
:101ED80042F440420A609A689A609A689A609A68DE
:101EE80042F480529A6058601A6842F080721A6010
:101EF8001A689201FCD50F4A40F203611160996893
:101F080021F003019960996841F00201A2F580620D
:101F18009960936803F00C03082BFAD1CAE700BF55
:101F2800003802401030002400ED00E0007000404E
:101F380019604108003C0240164A936803F00C03FC
:101F4800042B25D0082B0AD0134B124A1348926849
:101F58001349C2F30312825CD3400B607047536885
:101F6800516813F4800F536814BF0E4A0A4AC3F32A
:101F7800881301F03F01B2FBF1F202FB03F3054ABB
:101F88005268C2F3014201325200B3FBF2F3DCE7BC
:101F9800044BDAE7003802400024F400A44B0008A0
:101FA8004400002040787D014FF0FF30704700BFAB
:101FB80010B50446FFF798F821460A48FFF73CFA9F
:101FC800094B0A491A6813688B4204D105E052F894
:101FD800083F8B4201D09C42F9D151680448FFF771
:101FE8002BFAFEE764490008D001002011C0FFFF6A
:101FF8007449000830B51A4D2B6859684A6892F838
:102008006600022804BF012082F8660042F21274BA
:1020180000E02B681868FFF75DFA013C4368014649
:102028001BD093F86620012AF3D1DA6D002AF0D18B
:10203800B3F86420013A92B2D0B2A3F86420002821
:10204800E7D128680224416042EA122283F86640F8
:10205800B3F86000A3F8642030BD0248FFF7A8FF7A
:102068004800002001C0FFFF034B1A68136E0133BC
:102078001366FEF761BF00BF48000020F0B50646B2
:1020880081B068208DB2FFF7C5FA044600285CD0FD
:10209800314F3B6893F86620792A4ED0186821465C
:1020A800FFF704FA002850D039684460B1F864207A
:1020B8002660002341F61F7C02F1010EE365A4F8B7
:1020C8006230A5652846A1F864E0A4F8602084F889
:1020D8006630A4F864C0FFF79DFA6065002837D021
:1020E8003B6893F86630792B2BD02A466921FFF795
:1020F80099F9606D04223321FFF794F9606D05F1B9
:102108008043043B00EB830004223321FFF78AF964
:10211800616D33462A46201DFFF714F8A06D636DE4
:102128002268B4F8601000900C48FFF785F9012385
:10213800002084F8663001B0F0BDFEF7D5FF3B689B
:10214800ACE7FEF7D3FF606DCFE70548FFF730FF38
:102158000448FFF72DFF00BF480000207C49000815
:1021680003C0FFFF04C0FFFF30B5184D184C1748D7
:1021780040F2255101F0EEFA00B3284601F0C4FA06
:10218800B4F88230B4F88020013303F07F0392B2B0
:102198009342C0B213D0B4F8822092B240F22551D3
:1021A800A054A4F88230B4F88430084801339BB2B4
:1021B800A4F8843001F0CEFA0028DED130BDD4F87E
:1021C80088300133C4F88830D1E700BF00100140DF
:1021D800C402002030B5194D194C184840F2255159
:1021E80001F0B8FA10B3284601F08EFAB4F81231AB
:1021F800B4F81021013303F07F0392B29342C0B2C6
:1022080015D0B4F8122114FA82F240F2255182F85E
:102218009000A4F81231B4F81431084801339BB285
:10222800A4F8143101F096FA0028DCD130BDD4F8B6
:1022380018310133C4F81831CFE700BF004400401B
:10224800C402002030B5194D194C184840F22551E8
:1022580001F080FA10B3284601F056FAB4F8A2311A
:10226800B4F8A021013303F07F0392B29342C0B2C5
:1022780015D0B4F8A22114FA82F240F2255182F85E
:102288002001A4F8A231B4F8A431084801339BB264
:10229800A4F8A43101F05EFA0028DCD130BDD4F8EE
:1022A800A8310133C4F8A831CFE700BF00140140BA
:1022B800C4020020F0B5C0B28DB00D46D4B20628D5
:1022C80005D8DFE800F0A3713E04040408004FF0CD
:1022D800FF300DB0F0BD01210846FFF717FD0121C1
:1022E8002020FFF737FD814808220B21FFF7B2FCB9
:1022F8007E4808220C21FFF7ADFC002602237C480B
:1023080009934FF4C05208A901270A9308920B9623
:102318000C97FFF737FC4FF440237648049504A93F
:10232800ADF81C600596069301F07EF9002C00F0CC
:10233800C6807048012101F0D7F96F4B83F88C40B3
:102348008CE001210846FFF7E1FC01214FF4003041
:10235800FFF7F4FC654807220221FFF77BFC63487E
:1023680007220321FFF776FC002602235F48099322
:102378000C2208A901270A9308920B960C97FFF7DD
:1023880001FC4FF440235D48049504A9ADF81C6096
:102398000596069301F048F9002C79D05748012199
:1023A80001F0A2F9564BC9E701210220FFF7AEFC64
:1023B80001211020FFF7CEFC524807220621FFF723
:1023C80049FC072211464F48FFF744FC0026022328
:1023D8004C480993C02208A901270A9308920B9632
:1023E8000C97FFF7CFFB4FF440234748049504A907
:1023F800ADF81C600596069301F016F9002C30D054
:102408004148012101F070F9404B97E70121084646
:10241800FFF77CFC4FF40044002334480B9301255C
:1024280008A90A930C9308940995FFF7ABFB21467A
:102438002E48FFF705FC6420FEF774FC21462B4864
:10244800FFF7FAFB4FF4FA70FEF76CFC3049009185
:10245800304B314A3148294600F0DAFC00200DB0F3
:10246800F0BD29483A4640F2255101F051F925239B
:1024780002A8ADF808308DF80A400397FFF746F92F
:10248800224BA3F88040A3F88240A3F88440B7E722
:102498001A483A4640F2255101F03AF9262302A893
:1024A800ADF808308DF80A400397FFF72FF9174B5E
:1024B800A3F81041A3F81241A3F814416EE70D48A0
:1024C8003A4640F2255101F023F9472302A8ADF816
:1024D80008308DF80A400397FFF718F90B4BA3F85B
:1024E800A041A3F8A241A3F8A44122E700000240BA
:1024F8000008024000140140E403002000440040AA
:10250800540300200004024000100140C4020020CF
:10251800A8010020B40000208C01002074040020D1
:10252800C0B200B5062805D8DFE800F02822140458
:102538000404070000205DF804FB1248202101F084
:1025480001F9114B93F88C206AB1003818BF0120AB
:102558005DF804FB0D48202101F0F4F80C4B93F8CA
:102568008C20002AF1D1B3F8840080B25DF804FB16
:102578000848202101F0E6F8074BE3E700F000FBEC
:102588005DF804FB00140140E4030020004400400F
:102598005403002000100140C4020020C0B210B54E
:1025A800CCB2062833D8DFE800F028041C323232D7
:1025B80010001B48802101F0C5F80028F9D02146F9
:1025C8001748BDE8104001F09BB81648802101F07B
:1025D800B9F80028F9D021461248BDE8104001F0AA
:1025E8008FB81148802101F0ADF80028F9D02146B4
:1025F8000D48BDE8104001F083B8204600F0AEFA5F
:102608000A4A1368642B03F1010101D0116010BD5F
:102618000023BDE8104005201360FEF783BB00BF10
:10262800001001400014014000440040C002002096
:1026380030B5C0B282B006280FD8DFE800F0046ACF
:102648003E0E0E0E11000DF1070000F0A5FA00284D
:10265800F9D09DF8070002B030BD002002B030BDAF
:10266800554C94F8AC51002D40F08180B4F8A0216D
:10267800B4F8A23192B29BB29A42F7D0FEF734FD79
:10268800B4F8A021B4F8A23192B29BB29A4269D0B0
:10269800B4F8A03114FA83F393F82051B4F8A031B8
:1026A800013303F07F03A4F8A031B4F8A431013B4F
:1026B8009BB2EDB2A4F8A43154E03F4C94F81C51FD
:1026C800002D6CD1B4F81021B4F8123192B29BB23B
:1026D8009A42F7D0FEF708FDB4F81021B4F8123189
:1026E80092B29BB29A423DD0B4F8103114FA83F3F7
:1026F80093F89050B4F81031013303F07F03A4F835
:102708001031B4F81431013B9BB2EDB2A4F8143186
:1027180028E0294C94F88C50002D34D1B4F880204E
:10272800B4F8823092B29BB29A42F7D0FEF7DCFC42
:10273800B4F88020B4F8823092B29BB29A4211D099
:10274800B4F880309BB2E55CB4F88030013303F014
:102758007F03A4F88030B4F88430013B9BB2EDB21B
:10276800A4F884308DF80750FEF7C0FC71E7134CCD
:102778002021204600F0E6FF0028F9D00F4800F09D
:10278800C3FFC0B267E70E4C2021204600F0DAFFF5
:102798000028F9D00A4800F0B7FFC0B25BE7094C3F
:1027A8002021204600F0CEFF0028F9D0054800F08F
:1027B800ABFFC0B24FE700BFC402002000140140C5
:1027C800001001400044004010B5074C2068FF2865
:1027D80007D0064A064B12689B6806499847FF23AC
:1027E8002360002010BD00BFE0000020680A002020
:1027F800280100207C0A0020432301480B807047F1
:10280800E40000201F4A1368052B70B503F101018D
:1028180002D01160002070BD1B4D297800230129CA
:102828001360F7D0194E1A4A31681468B1F5006F71
:102838001FD0A14222D0174A98BF641A12FA81F217
:1028480088BFC1F50064D0F8EC35B3F83930A3423D
:102858000BD21944E41A31600F490C600121297028
:10286800812101F021FD002070BD21442346002470
:10287800F1E7336014B1074A1946E4E700232B70E7
:10288800C8E700BF640A00206C0A0020740A002010
:10289800780A0020840A0020700A0020C9B201EBDF
:1028A800810130B500EBC101094D0A4BB1F888131D
:1028B8001B69044628469847D4F8EC350121B3F83B
:1028C80040302A46204601F0C9FC002030BD00BF38
:1028D800841200202801002070B50B7813F06002E4
:1028E8000C46054615D0202A03D000F099FD022099
:1028F80070BDCA884E7802B31B062FD51D4B1E49E2
:102908009B68304698471C49E288284600F008FB37
:1029180018E04B780A2B1CD00B2B15D0062B11D1A5
:102928004B881B0A212B03D1CA883A2A28BF3A228E
:102938001249284600F0F4FA04E00E4B11469B6851
:1029480030469847002070BD8B787BB90C4A1360DD
:10295800F8E70B49012200F0E3FAF3E709490A4BCB
:102968000E6005491A6000F0F5FAEBE700F058FD33
:10297800E8E700BF280100207C0A0020F6000020BC
:10298800C4120020E0000020680A002010B5812150
:10299800044601F045FC0121204601F041FC82215A
:1029A800204601F03DFC024B5B689847002010BDB3
:1029B80028010020D0F8EC2510B50446B2F83920DB
:1029C8000223812101F0F2FBD4F8EC250223B2F8AE
:1029D80040200121204601F0E9FB0323082282213F
:1029E800204601F0E3FB084A084B022191801B684E
:1029F8009847D4F8EC35064AB3F840300121204610
:102A080001F02CFC002010BD7801002028010020D6
:102A18008412002070B5124B1A78012A01D00020C8
:102A280070BD104C216899B1D0F8EC350E4DB3F853
:102A380039302A6899420ED9C91A9E1821600B4C60
:102A48002E60812114FA82F201F02EFC002070BD64
:102A58001970002070BD8E180B460021EEE700BFEC
:102A68006C0A0020700A0020740A0020840A0020E2
:102A780000207047202810B417D0212802D0002049
:102A880010BC7047104B10BC1A680A701A68120AFA
:102A98004A705A888A70DA78CA701A790A715A792B
:102AA8004A719B798B7100207047074B91F804C0DD
:102AB80048798A790C68587183F804C09A711C6047
:102AC800002010BC704700BF3C01002010B599B130
:102AD80000EB010E094C0A4901380EF1FF3E0A6865
:102AE80010F801CF04F802C0531CB3F5006F08BFFB
:102AF800002386450B60F2D1002010BD840A002017
:102B0800780A002070B5F1B1104B114C1E68114DB8
:102B18002368014401F1FF3E013802E07045134685
:102B280011D07F2B08BF002103F1010208BF0A461C
:102B380010F801CF05F803C018BF1146964221606E
:102B4800ECD1022070BD002070BD00BFC81200206B
:102B5800CC120020D012002000207047064A1168CD
:102B680010B44B1C054CB3F5006F605408BF00232C
:102B780010BC1360704700BF780A0020840A002048
:102B8800034A044B10681B68C01A18BF012070471D
:102B9800CC120020C81200200B4B0C491A68096897
:102BA80091420ED00A498A5C02701A687F2A02F1A3
:102BB800010102D019600120704700221A6001202B
:102BC80070470020704700BFC8120020CC120020B8
:102BD800D012002010B5D0F8E43504461B69984798
:102BE800032384F81231002010BD00BF00B5D0F8CF
:102BF800E435042280F81221DB68984700205DF84C
:102C080004FB00BFD0F8E035DB6900B503B1984795
:102C180000205DF804FB00BF00B5D0F8E0351B6A62
:102C2800984700205DF804FB00B5D0F8E0355B6AF2
:102C3800984700205DF804FB00B5D0F8E4355B69DF
:102C4800984700205DF804FBD0F8E43510B5044639
:102C58009B699847D4F8E03500215B68204698477F
:102C6800002010BD002310B519460446402201F08B
:102C78009DFA802100234022204601F097FAD4F8DB
:102C8800E435A078012284F812215B689847002077
:102C980010BD00BF10B582B06946044600F0AEFB17
:102CA8009DF8001001F01F03012B10D0022B07D054
:102CB800A3B96946204600F087F9002002B010BD8C
:102CC8006946204600F02AFB002002B010BD694684
:102CD800204600F0F9FA002002B010BD01F0800192
:102CE800204601F005FB002002B010BD11F0FF01E5
:102CF80030B5044605D190F81131022B0DD00020D3
:102D080030BDD0F8E0355B69002BF8D090F812217F
:102D1800032AF4D19847002030BDD0F83421D0F8E8
:102D280020319A4211D9C078D4F824110128A2EB95
:102D3800030208BFC918C4F8342108BFC4F8241115
:102D480092B2204600F0FCF8D9E7D0F83821B2FB5F
:102D5800F3F503FB152565B993420AD8D0F83C3141
:102D68009A4206D22A46294600F0EAF8C4F83C51AD
:102D7800C5E7D4F8E035DB681BB194F81221032AC3
:102D880003D0204600F010F9B9E720469847F8E745
:102D980011F0FF0110B5044605D190F81131032B4D
:102DA8000DD0002010BDD0F8E0359B69002BF8D07D
:102DB80090F81221032AF4D19847002010BDD0F8CA
:102DC8008C33D0F87823934213D9C078D4F87C1385
:102DD8000128A3EB020304BF8918C4F87C139A42A4
:102DE80028BF1A46C4F88C3392B2204600F0C2F8C5
:102DF800D7E7D0F8E0351B691BB190F81221032AF8
:102E080003D0204600F0C0F8CBE79847F9E700BFA9
:102E18002DE9F041044616461F46DDF818800D4698
:102E280000F0BAFC20462946C4F8E075C4F8E485E9
:102E3800C4F8E86501F070F9D4F8E4351B689847E0
:102E48002046BDE8F04100F0EFBC00BFD0F8E03507
:102E580010B50446C9B21B689847D4F8E4359B6896
:102E68009847002010BD00BF00B5D0F8E035C9B2C2
:102E78005B68984700205DF804FB00BF12230148F7
:102E88000B80704778010020042301480B807047AD
:102E98007401002010B5044C04480A46214600F08D
:102EA800D9FA204610BD00BF54130020A4490008D9
:102EB80010B5044C04480A46214600F0CBFA2046D7
:102EC80010BD00BF54130020BC49000810B5044CC5
:102ED80004480A46214600F0BDFA204610BD00BF4E
:102EE80054130020D049000810B5044C04480A4681
:102EF800214600F0AFFA204610BD00BF5413002051
:102F0800E049000810B5044C04480A46214600F080
:102F1800A1FA204610BD00BF54130020EC49000858
:102F280000B593B20A460221C0F83431C0F83831EE
:102F380080F81111002101F0B7F900205DF804FBB9
:102F480000B593B20A46002101F0AEF900205DF801
:102F580004FB00BF00B593B20A460321C0F88C33C6
:102F6800C0F8903380F81111002101F077F90020A2
:102F78005DF804FB00B593B20A46002101F06EF932
:102F880000205DF804FB00BF10B5002304220446AE
:102F9800194680F811211A4601F086F9204601F0F9
:102FA800ABF8002010BD00BF10B500230522044671
:102FB800194680F811211A4601F050F9204601F00F
:102FC8009BF8002010BD00BF70B54B7882B00C464E
:102FD8000546092B06D8DFE803F02435054A0563C2
:102FE8007B05159194F90030002B01DBE3889BB930
:102FF8008021284601F07CF9284601F07DF8002060
:1030080002B070BDCA88012A00F0988091F900309A
:10301800002BEDDB002AEBD00021284601F068F9EF
:10302800EAE790F81231023B012BDBD8D0F81431D3
:10303800A249002B0CBF0123032301220B60FFF7D9
:103048006FFFDCE790F81231023B012BCAD84B889E
:10305800012BD4D1D0F8E03500229B68C0F81421A8
:103068002146284698472846FFF78EFFC7E74B8832
:10307800012B00F00A81022BC1D18B88DAB2002A19
:10308800BDD101691B0A4A68013B1046042B00F2B6
:10309800E380DFE813F0F000F500EB00E600DD0068
:1030A8004B68002B9ED190F812314988032B99D098
:1030B80001F07F0480F81341214601F057F92846B2
:1030C800FFF762FF002C46D0022385F8123196E7FD
:1030D8004A88130A013B062B84D801A151F823F032
:1030E800D93100089D3100088B310008ED2F000808
:1030F800ED2F0008ED2F0008ED2F00088978704E9D
:10310800012931703FF66EAF90F81231022B26D0AC
:10311800032B7FF467AF002900F0C28090F81011EC
:10312800012907D0FFF7A0FE317885F8101128464D
:10313800FFF78CFE2846FFF727FF60E790F812316B
:10314800022B1AD0032B00F0A68091F90030002B37
:10315800BFF662AF4CE7012385F812314FE700292B
:10316800E8D00121032380F8101180F81231FFF70D
:103178006DFE2846FFF708FF41E75249FFF7D0FEEA
:103188003DE7D2B2052A3FF62DAFDFE802F049410C
:1031980039315951D0F8E03580789B6A0DF1060134
:1031A800984702234370C5F8EC05BDF80630002B9C
:1031B8003FF425AFE288002A3FF421AF9A4228BFA6
:1031C8001A4601462846ADF80620FFF7A9FE16E77D
:1031D800D0F8E83580781B680DF106019847E28839
:1031E800402A68D095F81231012BDED10823E2E796
:1031F800D0F8E83580781B690DF106019847D4E7C7
:10320800D0F8E8358078DB680DF106019847CCE7FF
:10321800D0F8E83580789B680DF106019847C4E737
:10322800D0F8E83580785B680DF106019847BCE76F
:10323800D0F8E83580789B690DF106019847B4E726
:10324800D0F8E83580785B690DF106019847ACE75E
:10325800052363F3061002464A602846FFF794FEEA
:10326800CDE6042363F306100246F5E7032363F370
:1032780006100246F0E7012363F306100246EBE767
:10328800022363F306100246E6E7D0F8E025C0F80B
:1032980014319368E4E600F58871FFF741FEAEE665
:1032A800022380F8123180F81011FFF7DDFD28465F
:1032B800FFF76AFEA3E6082380E700BF8813002013
:1032C800501300208C13002030B590F81231032BD6
:1032D80004460D460AD10B79012B07D8D0F8E03502
:1032E8009B689847EB88ABB1002030BD95F900305A
:1032F800002B01DBEB8843B98021204600F0F8FF62
:10330800204600F0F9FE002030BD0021204600F0E4
:10331800EFFFF5E72046FFF737FEE5E730B50C4647
:103328008A886378012B0546D1B232D0032B19D095
:10333800B3B990F81231022B2FD0032B3CD11306CE
:103348004ED401EB810100EBC10191F87233003BCF
:1033580018BF01232849022228460B60FFF7E0FD29
:10336800002030BD90F81231022B16D0032B23D148
:1033780063881BB94A0601D000F0BAFFD5F8E035DA
:1033880021469B68284698472846FFF7FDFD002000
:1033980030BD90F81231022B04D14A06E0D000F07B
:1033A800A7FFDDE7032B07D16388002BD8D14B0695
:1033B800EAD000F0BDFFE1E794F90030002B0ADB0A
:1033C800E38843B10021284600F092FF284600F028
:1033D80093FE002030BD8021284600F089FFF5E7E4
:1033E80001F07F0101EB810100EBC10191F81A3175
:1033F800003B18BF0123ADE790130020B0F8C83593
:103408000B80B0F8CA354B80B0F8CC358B80B0F85B
:10341800CE35CB800122C0F83C3180F811217047AD
:1034280010B591F90030002B044601DBCB8843B975
:103438002046802100F05CFF2046BDE8104000F0E7
:103448005BBE002100F054FF2046BDE8104000F0AC
:1034580053BE00BF30B400B3037803B303461C4621
:1034680013F8015F002DFAD1C0F101032344DBB248
:1034780001335B00DCB2138003230C704B700478BB
:103488005CB1022300255A1CD2B2CC548D5410F8DA
:10349800014F0233DBB2002CF5D130BC7047022457
:1034A8002346E8E7014B01221A6070479413002075
:1034B800014B01221A60704794130020014B02222D
:1034C8001A60704794130020014B01221A6070475C
:1034D80094130020014B01221A60704794130020B6
:1034E800014B01221A60704794130020014B0122FE
:1034F8001A6070479413002000207047002070471E
:1035080000207047014B1860704700BFCC010020B5
:10351800014B1860704700BFC8010020014B1860BC
:10352800704700BFC401002000B5034B1B689847D3
:1035380000205DF804FB00BFCC0100202DE9F04F0E
:10354800814620F00F088B4600296AD008F1100840
:103558004FF0000A0A20FFF7E7FF1C25A8F1100426
:1035680044FA05F000F00F000928CCBF373030309E
:10357800043DFFF7D9FF2B1DF2D12020FFF7D4FF20
:10358800002627460FE02020FFF7CEFF2020FFF778
:10359800CBFF2020FFF7C8FF072E1FD00136102EC3
:1035A80007F1010720D04F45EDD33D789F2D4FEA15
:1035B800151098BF303005F00F0588BF3730FFF77A
:1035C800B3FF092D94BF05F1300005F13700FFF76F
:1035D800ABFF2020FFF7A8FF072EDFD12020FFF741
:1035E800A3FF08260137DEE72020FFF79DFF7C2098
:1035F800FFF79AFF2378A3F120025E2A4FF02E00EE
:1036080004F1010498BF1846FFF78EFF4445F1D135
:103618007C200AF1100AFFF787FFD34508F110084C
:1036280098D80020BDE8F08F0269CB8822F4405278
:1036380013439BB230B503610D468B880989C26874
:103648000B43698922F4B0520B4322F00C029BB25F
:1036580013439BB2C3604269AB8922F4407213439F
:103668009BB284B0436104466846FEF709FB1C4BD5
:103678009C4205D003F580639C4201D0029B00E088
:10368800039BE1682A68E5680804164803EB83038E
:103698004CBF5200920003EB8303B3FBF2F3A0FB91
:1036A800032149094FF0640C0A010CFB113329046A
:1036B8000AD5DB003233A0FB0303C3F342131343E1
:1036C8009BB2A36004B030BD1B013233A0FB0303DF
:1036D800C3F3431313439BB2A36004B030BD00BFD0
:1036E800001001401F85EB51C36819B143F4005322
:1036F800C36070474DF6FF721340C360704700BF48
:10370800C1F30801416070474068C0F30800704782
:1037180001F01F0CC1F342110123012903FA0CF334
:103728000DD002290CBF103014301AB102681343AF
:1037380003607047026822EA0303036070470C3095
:10374800F3E700BF036889B2194214BF01200020C3
:10375800704700BFC1F3421C00B5012301F01F0EE2
:10376800BCF1010F024689B203FA0EF310D0BCF186
:10377800020F0CBF006950691840126830B1090A7D
:1037880001238B40134214BF012000205DF804FB85
:10379800C0681840F1E700BF30B5012186B0214C60
:1037A8000846FEF7B3FA4FF4D851002302220191DC
:1037B800204601A90493059303920292FEF7E2F9C9
:1037C80020460A220821FEF745FA20460A22092146
:1037D800FEF740FA20460A220B21FEF73BFA204664
:1037E8000A220C21FEF736FA4FF48063012501A95D
:1037F8000193022201232046039204930595FEF7C4
:10380800C1F90A2211462046FEF724FA29468020EB
:10381800FEF788FA29464FF08050FEF7A7FA06B05F
:1038280030BD00BF0000024000B54FF4C06082B058
:10383800FDF762FF40F24311032201236846ADF809
:1038480000108DF802200193FDF760FF02B05DF8CB
:1038580004FB00BF704700BF704700BF014800F07D
:103868008FBD00BF7404002030B582B00023124C15
:10387800019305460320FFF7EDFFEB68013C1A6949
:10388800019216D0019A002AF4DA01990A4A41F005
:10389800010101910199196119690191013A02D057
:1038A8000199C907F8D4032002B0BDE83040FFF7FA
:1038B800D1BF02B030BD00BF410D030030B4C478A1
:1038C800D2B29BB26CB902F13405DA1C921050F8EE
:1038D800255006D02346013351F8040B28609A423C
:1038E800F9D1002030BC70471FFA82FC0CF1030CA0
:1038F8005FEAAC0C30B4D0F8D0500BD00A460023A5
:1039080001332C6842F8044B9C45F9D101EB8C003B
:1039180030BC7047084630BC704700BF01224023C6
:1039280091422DE9F0414280838056D0002940D051
:103938004378067800224FF40061C2600161002BD1
:1039480060D09E464FF460654FF488684FF48067F6
:1039580002F5106300F1140C00214CF8043F01310A
:1039680003F500747145CCF83C4003F12003F4D30F
:103978004761C0F8CC80BEB100F18C0302F5A061AC
:10398800B40003EB860C43F8041F9C4501F12001A9
:10399800F9D100F1CC0302F58052191943F8042F2C
:1039A800994202F58052F9D1C0F80C510020BDE8C7
:1039B800F0814FF4A063C380164BC17240F20C62D1
:1039C800154DDFF85880164F164902804FF0060E45
:1039D8000C261A46C3600161BAE702234FF4A072AD
:1039E8004FF4816403724FF0A043C172C2800E4D40
:1039F800DFF838800E4F0F4904804FF0040E082678
:103A08001A46E7E74FF460654FF488681A464FF4A2
:103A18008067ADE700000440000E04404004044005
:103A28000004044000080440000E00504004005008
:103A3800000400500008005030B5037AC268012B1A
:103A480004464FF000051AD1956B417A25F480356C
:103A580091B163F314559563D36823F4940323F069
:103A6800D80343F01003D3602046FFF7FDFEE37848
:103A7800012B2CD0002030BDC5F30053E9E7D368F3
:103A880043F04003D360FFF7EFFE237A627AA3F195
:103A98000303B3FA83F35B09003A4FEA430318BF01
:103AA800012243F00D0343EA0213E26863F317456A
:103AB80095631420FFF7D0FE217AE2680329D368C2
:103AC80012D0D360E378012BD4D1E16802E0E16839
:103AD8002A238B608B6823F03E0242F02A0262F3AD
:103AE80007038B60002030BD43F48033D360156B2F
:103AF8000A4B03EA154343F4A15343F00D0363F360
:103B08001F451563C820FFF7A7FEE36845F40005C5
:103B1800C8201D63FFF7A0FED4E700BF00E3FFFF46
:103B280003460020DA68936843F001039360704706
:103B380003460020DA68936823F001039360704716
:103B480000B582B000230193019B43F02003019349
:103B5800019B61F38A130193C168019A074B0A61BB
:103B68000A690192013B02D0019A9206F8D4032017
:103B7800FFF770FE002002B05DF804FB410D030062
:103B8800C068C368C9B2C3F3076222F060020129A2
:103B980000B562F31F6309D009B943F08043C360DD
:103BA8003220FFF759FE00205DF804FB43F0005374
:103BB800F5E700BFC3685869C04300F001007047CB
:103BC800C36858699B691840704700BF10B4C36840
:103BD8000A4C4FF0FF310246002098615961596044
:103BE80059619C61D178064A9C69B1FA81F1490909
:103BF80042EA011222439A6110BC70470008008013
:103C08000C383C40F0B504460020D4F80C31226949
:103C180018601368E16860F3CC231360E37A012B22
:103C280082B011D113683E4843F003031360802526
:103C38003C4B4D623C4A8862C1F804314FF4A07392
:103C4800C1F80821C1F80C3100230193019B43F00E
:103C580020030193019A354B102060F38A120192D8
:103C6800019A0A610A690192013B02D0019A900601
:103C7800F8D40320FFF7EEFD00220092009AE168D5
:103C88002A4B42F010020092009A0A610A690092D7
:103C9800013B02D0009AD206F8D40320FFF7DAFDE0
:103CA800266900254FF0FF3335617561B361F56111
:103CB800607830B304F114024FEA800CFF2702EB5E
:103CC800800052F8043F19680029B4BF4FF09041B2
:103CD8000021824219601D619F60F2D104F15002F7
:103CE80002EB0C000027FF2552F8043F1968002951
:103CF800B4BF4FF090410021904219601F619D6050
:103D0800F2D1336943F480733361E378012B01D135
:103D1800074B33632046FFF759FF002002B0F0BD80
:103D280080002000A000800020012000410D030039
:103D38000301810003699868C0F3410002281ABF93
:103D480000F00100C0F10300012070470369816998
:103D58009A680868C2F34102022A0CBF03220022B3
:103D680062F30A0008605A6842F4807200205A60C0
:103D7800704700BF30B44C7891F800C0012C4FF068
:103D8800010303FA0CF30CBF0CF1060C0CF1150C33
:103D98009BB250F82C4025684FF000020CBF63F32B
:103DA8000F0263F31F422B0415D48B6891F803C0EC
:103DB800C988C3F30A0343F0805343F400430CF06B
:103DC800030C01F00F0143EA8C4343EA8153054990
:103DD80029400B4323600369D9690A43002030BC9A
:103DE800DA617047007833EC91F801C00A78BCF1C9
:103DF800010F4FF0010303FA02F30CBF063215322C
:103E08004FF000019BB20CBF63F30F0163F31F4136
:103E180050F82230026900201860D36923EA0103B0
:103E2800D36170472DE9F0474D780A784B6991F8CE
:103E380003C0012D2CD015328F6850F82250C7F3DB
:103E480012022C682E690BB33B44013BB3FBF7F31A
:103E5800C3F3090707FB02F23B46C2F3120242EA28
:103E6800C34262F31C062E61C378012B04BF0B69A1
:103E78006B61BCF1010F40D0C4F3076363F07B03AF
:103E880063F31F642C600020BDE8F0870123E6E798
:103E980000EB8208D8F818E0DEF80040DEF8106081
:103EA80006F0604673BB46F40026CEF81060C5786D
:103EB800012D5ED0BCF1010F42D10269926812F463
:103EC800807FC4F307620CBF62F05B0262F06B0292
:103ED80062F31F64CEF80040002DD4D198B20330AD
:103EE8008010D8F8D040CED0CA682B46013352F89B
:103EF800041B21609842F9D1C5E74B795BB344F0C4
:103F08000054B9E7D1F808A01F4F0AEB030909F1DB
:103F1800FF39B9FBFAF907EAC947C3F3120947EAB7
:103F280009073743BCF1010F3E4617D0CEF8107091
:103F3800C378012B24D0036995405A6B15435D6300
:103F4800C4F3076363F07B0363F31F64CEF8004098
:103F58000020BDE8F08744F080548DE76CF35E766E
:103F6800CEF81060C578012DA7D10A69CEF81420C3
:103F7800A3E70A69CEF81420BCF1010F9DD0DFE752
:103F88000B69CEF81430DBE70000F81F70B44B78EB
:103F98004D69012B22D00B788A68153350F82360BD
:103FA80034683369C5B923F4C01302F07F0242F4C0
:103FB800002223F07F0313433361C378012B04BF2E
:103FC8000B697361C4F3076363F07B0363F31F64D6
:103FD8003460002070BC70474A61E4E78269146865
:103FE8001369F5B923F4C01323F07F0345F40025C2
:103FF8002B431361C378012B1CD0C4F3076565F00C
:104008007B0565F31F641460002BE2D14B69002B1C
:10401800DFD002690878516B012383400B43536357
:10402800D7E78E68AE423ABF4E6106F07F0505F0CD
:104038007F05D7E70B780D69063350F82310C4F3D2
:10404800076363F07B0363F31F644D610020146012
:1040580070BC70474B780A78012B08D0153250F89D
:104068002220136843F400131360002070470632BF
:10407800094950F822000268002AA8BFC2F38073D9
:104088009B0301EA124143F020030B4363F31F42F1
:1040980002600020704700BFDFBFFFFF4A780B783F
:1040A800012A0CBF06331533CA7850F82300036879
:1040B800023A012A23F400138CBFC3F300720122D1
:1040C80062F31C7303600020704700BF036998699E
:1040D800DB691840000C7047C9B21531036950F804
:1040E800212090685B691840704700BF0369986990
:1040F800DB69184080B27047436D064A1A61C2787E
:10410800012A06D100F5B96058614FF0802219687C
:104118001A607047180008C0F0B50646FFF7FEFBA6
:1041280075780120A6F812016DB300213346324696
:104138000C46402782F81811A2F81E110131A94235
:1041480082F8190182F81B41C2F82071C2F8244193
:10415800C2F82C4102F12802ECD10022114640207D
:1041680083F87023A3F876230132AA4283F87113E7
:1041780083F87313C3F87803C3F87C13C3F8841364
:1041880003F12803ECD13046FFF7D2FC3046FFF7A5
:1041980053FC00213046FFF7F3FC3046FFF732FDB1
:1041A8003046BDE8F040FFF7BBBC00BF5FFA81FCBA
:1041B800090600B592B2DBB21AD40CEB8C0E00EBF8
:1041C800CE0E282101FB0C01CEF87823002201F540
:1041D8005C718EF870C38EF873338EF87123022BDE
:1041E80004BF00230B71FFF7C5FD00205DF804FB39
:1041F8000CF07F0C0CEB8C0E00EBCE0E282101FB93
:104208000C01CEF82021012201F58C718EF818C11D
:104218008EF81B31AEF81EC18EF81921DFE700BFFA
:104228004FFA81FCBCF1000FCBB201F07F0200B560
:104238004FF02801B5BF01FB020101FB030301F5A3
:104248008C7103F55C714FEADC7C0A7081F801C05F
:10425800FFF7CAFD00205DF804FB00BF10B501F0B0
:104268007F0404EB840C00EBCC0C9BB2CCF88433B9
:104278000023CCF87C238CF87043CCF888338CF876
:104288007133C378282101FB0401012B01F55C710E
:1042980008BFCCF880231CB9FFF778FE002010BDBA
:1042A800FFF7C0FD002010BD10B501F07F0404EB3E
:1042B800840E00EBCE0ECEF82C310023CEF8303130
:1042C800282303FB040C01238EF81841CEF824217F
:1042D800CEF828210CF58C718EF819311CB9FFF72E
:1042E80055FE002010BDFFF79DFD002010BD00BF4A
:1042F8004FFA81FCBCF1000F00B501F07F02CBB290
:104308004FF02801B3BF01FB020101FB030303F5D2
:104318005C7101F58C7101234FEADC7C8B700A70AB
:1043280081F801C0FFF796FE00205DF804FB00BF8E
:104338004FFA81FCBCF1000F10B5CBB201F07F023F
:104348004FF02801B5BF01FB020101FB030301F592
:104358008C7103F55C7100244FEADC7C8C700A7068
:1043680081F801C0FFF79AFE204610BD0269C9B264
:104378001068002361F30A1303431360704700BFFA
:104388002DE9F04F81B00446FFF714FC18B900205E
:1043980001B0BDE8F08F2046FFF712FC0746002861
:1043A800F5D0C0F3074A1AF0080040F0CB801AF0A5
:1043B800040F7FD1BB07FDB202D5E36802225A6120
:1043C800002F4FEA1768C0F28281C7F307263F051E
:1043D80000F11B812A0708D59C4B1B682046DB6827
:1043E8009847E368082201205A61EB063BD4F70698
:1043F80000F13081B60600F1EA801AF0100F09D0FA
:10440800924B1B682046DB699847E3684FF480129B
:104418005A6101201AF0200F09D08C4B1B682046E6
:104428001B6A9847E3684FF4001201205A6118F09C
:10443800400F09D0854B1B6820465B6A9847E368A4
:104448004FF0804201205A616907A1D5E3685D6891
:104458006A0705D57D4B1B6820469B6A9847E36829
:104468005D60012094E7E3689A6922F010029A617E
:104478001F6AC7F34342022A07F00F0900F0B1810F
:10448800062A11D109EB890904EBC909082204F5A8
:10449800B9612046FFF728FAD9F88833C7F30A1715
:1044A8003B44C9F88833E3689A6942F010029A617C
:1044B80001209CE72046FFF719FE804600283FD0E0
:1044C80004F11803254600974FF0000B27461C46B9
:1044D80018F0010F29D03E6920683169736B23FAFF
:1044E8000BF3DB01DBB20B4381680B4013F00109CE
:1044F800D9B200F00781554BD6F834E0196801228B
:104508004B6802FA0BF12EEA010171638260594689
:1045180038469847FB78012B00F0808119F0020F8C
:1045280000F0F5802368022199605FEA58080BF1D2
:10453800010B05F1280504F10404C9D13C46009F8C
:10454800012037E72046FFF7C1FD8146002800F02B
:1045580035813E4D04F1540B26464FF0000809E022
:104568005FEA590908F101080BF1040B06F1280666
:1045780000F0248119F0010FF2D041462046FFF7E0
:10458800ABFDC3B2C00740F10681DBF80030012261
:104598009A60E278012A07D11A69D6F87833C2F30B
:1045A80012029B1AC6F888332B6841461B682046BE
:1045B8009847E378012BD3D1B8F1000FD0D194F804
:1045C8001131052BCCD12046FFF796FDC8E72046D0
:1045D800FFF7BCFBE3682046DE68FFF7ABFB032868
:1045E8000CBF0922052262F38D260CBF002201228E
:1045F800A270E3680CBF4FF400724022A2804FF40F
:104608000052DE6001205A61F7E6104B1B68204615
:104618005B69984723699968E3684FF400625A61B7
:10462800A37A83B1C9070ED5D4F80C3108491A68A2
:1046380042F001021A601A6842F003021A600B691C
:1046480043F006030B610120C4E600BF44010020CB
:1046580000ED00E0226953684FF0000B23F00103DE
:10466800536059462046FFF76BFA6778D9465FB121
:1046780004F1140303EB8707FF2253F8041F8A6031
:10468800D96B9F428A60F8D10F22236962F3070B26
:104698002F2262F307094FF0FF329A614FF001129F
:1046A800DA61C3F814B0C3F810901A6822F4FE62F5
:1046B8001A602046FFF720FD6B4BE2681B684FF439
:1046C80080511B69516120469847012092E6A37AE0
:1046D80043B1D4F80C31D4F80C2123F0030161F371
:1046E80007031360604B22691B689969536823F0BC
:1046F8000103536020468847E3684FF000420120D9
:104708005A6162E64E074DD504238360994619F035
:10471800800F3FF40AAF2268D5F82C119669D5F8B6
:104728003001D5F820311FFA86FE0E1AB34228BF91
:1047380033460333BEEB930F164624D828E0D5F84A
:104748002031D5F824119E4228BF1E46B3B25A46DE
:104758003846FFF7B3F8D5F83001D5F82431D5F845
:104768002C11304406F10309334488424FEA990971
:10477800C5F82431C5F8300162D2226893699BB22A
:104788009945164604D28842A1EB0006D7D31646AF
:104798008023B360C9E6990709D5DBF80030022207
:1047A8009A60DDE60A070BD508238360BDE65A0741
:1047B8000BD5DBF8003004229A60D1E60120F6E53B
:1047C800CB0638D510238360AFE61B077FF5C8AE4C
:1047D8002B6820469B689847DBF8003008229A60CF
:1047E800BEE647F6F0723A423FF45EAE09EB89093D
:1047F80004EBC909C7F30A17D9F87C133A462046CF
:10480800FFF772F8D9F87C333B44C9F87C33D9F800
:1048180088333B44C9F88833E36845E6BBF1000FA9
:104828007FF47CAE97F81131042B7FF477AE3846CD
:10483800FFF762FC72E68E060DD52023836074E6CE
:10484800386995F81861436B0121B14023EA0103E7
:10485800266843639CE74A0658BF89467FF55EAEE3
:104868004023836061E600BF44010020534C425F4F
:104878004C4954453A206770696F5F636F6E66698B
:104888006770696E7328290A00000000534C425F64
:104898004C4954453A207461736B3028290A00004A
:1048A800756570610A000000736C626465766963FF
:1048B800650000006770696F5F646576696365000D
:1048C8000A2A2A2A207461736B2025642C207374A9
:1048D80061636B3A2030782570202873697A6520E7
:1048E8002564290A000000003C4E554C4C3E00004F
:1048F800303132333435363738396162636465664E
:104908000000000041524D20436F72746578204DBD
:1049180034202873746D33326634787829000000A7
:10492800302E3937000000005543582F4F5320765A
:10493800257320626F6F74206F6E2025730A000044
:10494800686561705F696E697428292C2025642068
:10495800627974657320667265650A000A2A2A2AD4
:104968002048414C5420282564290000202D20256A
:10497800730A00007461736B2025643A203078252F
:10498800702C20737461636B3A20307825702C206A
:1049980073697A652025640A0000000053544D337A
:1049A80032205669727475616C20436F6D506F7256
:1049B8007400000053544D6963726F656C656374CD
:1049C800726F6E69637300003030303030303030D1
:1049D800303530430000000056435020436F6E6668
:1049E8006967000056435020496E746572666163BA
:1049F800650000006E6F206572726F720000000023
:104A08006661696C757265006E6F207461736B7393
:104A180020746F2072756E006B636220616C6C6F1E
:104A280063206661696C656400000000746362203D
:104A3800616C6C6F63206661696C656400000000DE
:104A4800737461636B20616C6C6F63206661696C61
:104A5800656400007461736B206E6F7420666F75F7
:104A68006E6400007461736B2073757370656E6497
:104A7800206661696C6564007461736B207265738C
:104A8800756D65206661696C656400007461736B9F
:104A980020696E76616C6964207072696F726974DE
:104AA80079000000737461636B20636865636B2031
:104AB8006661696C656400007069706520616C6C82
:104AC8006F63206661696C656400000070697065D9
:104AD800206465616C6C6F63206661696C65640055
:104AE80073656D6120616C6C6F63206661696C65CC
:104AF8006400000073656D61206465616C6C6F63B0
:104B0800206661696C65640073656D61206F70650E
:104B1800726174696F6E206661696C65640000007B
:104B28006D657373616765207175657565206E6F56
:104B38007420656D70747900756E6B6E6F776E207A
:104B4800726561736F6E0000B0480008644B00081E
:104B58006402002024000020000000002100000062
:104B6800000000003D020008E5010008BC480008FC
:104B7800884B000800000000000000000C00002026
:104B8800010080000080000000000000000000001C
:104B980001020304010203040607080900000000DB
:0C4BA800000000000102030406070809D9
:104BB400504B00080C000020744B000879030008D7
:104BC400650300085D030008550300084D03000851
:104BD400450300087517000800000000ED170008E1
:104BE400AD1700084D180008F11900080000000076
:104BF4000000000000E1F5054C000020000000006A
:104C040000000000000000000000000000000000A0
:104C14000000000000000000000000000000000090
:104C24000000000000000000000000000000000080
:104C34000000000000000000000000000000000070
:104C44000000000000000000000000000000000060
:104C540000000000B11F0008000000000000000078
:104C640000000000BD29000895290008E12800087B
:104C740000000000D12700081D2A0008A52800080C
:104C84000D280008000000000000000001280008B2
:104C9400FF00000009024300020100C032090400C1
:104CA4000001020201000524001001052401000195
:104CB400042402020524060001070582030800FFFC
:104CC40009040100020A0000000705010240000077
:104CD4000705810240000000792A0008612B0008C2
:104CE4007D2A0008D52A00080D2B000800C2010007
:104CF4000000080048010020992D0008F52C000848
:104D04009D2C00080D2C00086D2C0008F52B0008C4
:104D1400DD2B0008212C0008312C0008412C000850
:104D2400512C000804030904120100020000004091
:104D3400830440570002010203010000852E00088D
:104D4400912E0008B92E00089D2E0008D52E0008CB
:104D5400F12E00080D2F0008AD340008B934000806
:104D6400C5340008F5340008D1340008DD340008E7
:104D7400E934000809350008053500080135000844
:104D8400D401002000000000FC490008FFFFFFFFE1
:104D9400084A000801C0FFFF104A000802C0FFFFD4
:104DA400204A000803C0FFFF344A000804C0FFFF84
:104DB400484A000806C0FFFF5C4A000807C0FFFF1E
:104DC4006C4A000808C0FFFF804A000809C0FFFFC2
:104DD400944A00080AC0FFFFAC4A00080BC0FFFF5A
:104DE400C04A00080CC0FFFFD44A00080DC0FFFFF2
:104DF400E84A00080EC0FFFFFC4A00080FC0FFFF8E
:104E0400104B000810C0FFFF284B000811C0FFFF23
:044E1400404B000807
:0400000508000C6182
:00000001FF
