:020000040800F2
:10000000000002209D03000841030008410300088E
:1000100041030008410300084103000800000000FC
:100020000000000000000000000000004503000880
:100030004103000800000000BD0100083906000867
:100040004103000841030008410300084103000880
:1000500041030008410300085531000879310008C8
:100060009D310008C1310008E53100084103000856
:100070004103000841030008410300084103000850
:100080004103000841030008410300084103000840
:100090004103000841030008410300080932000839
:1000A0004103000841030008410300084103000820
:1000B0004103000841030008410300084103000810
:1000C0004103000841030008410300084103000800
:1000D0004103000845170008A51700084103000860
:1000E000853200084103000841030008410300086D
:1000F00041030008410300084103000841030008D0
:1001000041030008410300084103000841030008BF
:1001100041030008410300084103000841030008AF
:10012000410300084103000841030008410300089F
:10013000410300084103000841030008410300088F
:10014000410300084103000841030008853B000803
:100150004103000841030008410300080918000892
:10016000410300084103000841030008410300085F
:10017000410300084103000841030008410300084F
:080180004103000841030008DF
:10018800021C7346F8C043464C4655465E466F46C9
:10019800F8C0F8CA00207047021C1430F8C8984606
:1001A800A146AA46B346BD46F8CA081C00D101209C
:1001B800184700BFEFF3098020E9F00F05490968E7
:1001C8000860054909680868B0E8F00F80F30988F5
:1001D80070470000940200209002002030B530B132
:1001E80001281BD001300BD04FF0FF3030BD0F4B32
:1001F8000F4A1B681068DB6880219847002030BDD3
:100208000A4D0B4C2B6820689B68802198472B6807
:1002180020685B689847C0F3C01030BD034B044AA0
:100228001B6810689B6880219847E7E70400002056
:100238000800002000B5064800F07AFC054B064A85
:100248001B6810681B68984700205DF804FB00BF16
:100258004C490008040000200800002030B5124C6A
:100268001248134DB2B000F063FC124A20680092A5
:10027800642300218DF8043000F034F869462068C2
:10028800052200F037F819A920680A2200F02EF894
:100298009DF865209DF86410284600F049FC4FF44D
:1002A8007A7000F0DDF8E9E7000000206C490008EA
:1002B800804900080220000200B54FF4006105489B
:1002C80001F0C6F9044B186800F008F801205DF841
:1002D80004FB00BF6502000800000020C3681B681B
:1002E800184700BFC3689B68184700BFC3681B69ED
:1002F800184700BFC3685B69184700BF406803F030
:100308000DB800BF406802F0FFBE00BF406802F0B1
:10031800D9BE00BF406802F0B3BE00BF00B5406858
:1003280002F08EFE0028A8BF80B25DF804FB00BF73
:10033800406802F07FBD00BF704700BFEFF309833C
:100348001A685868104700BF436893F86620032A64
:1003580001D000207047B3F86220002AF9D0013A92
:1003680092B2A3F86220002AF3D1012283F8662012
:10037800EFE700BF4FF0E022136943F00103136178
:10038800704700BF4FF0E022136923F001031361A7
:10039800704700BF114B124A934200B50CD2013A84
:1003A800D21A22F0030204320E491A4451F8040BFF
:1003B80043F8040B9342F9D10B4B0C4A93420AD2EF
:1003C800013AD21A22F0030204321A44002143F8F7
:1003D800041B9342FBD100F017FCFEE7000000204D
:1003E80084020020CC4C000884020020B8130020AE
:1003F8000C4B1B685B6810B55C68606D0368B3F1F3
:10040800333F00D110BDA16D02F09EFCA36D626D5B
:10041800B4F86010044800F08BFBBDE810400348B6
:1004280001F0B0B868000020044A00080AC0FFFFC5
:1004380000B5002001F04CFB003818BF01205DF822
:1004480004FB00BF00B5002001F0CAFB5DF804FB07
:1004580010B5C1B20446002001F078FB204610BD5B
:100468002DE9F0472D4BDFF8B8805B6A2D4FB8F8BF
:1004780000203C68294E86B09BB2ADF80C30BDF820
:100488000C309BB29A42BDF80C30BDF80CA088BF66
:1004980001341FFA8AFA4FEA04424FF47A7588BF8A
:1004A8003C604FEA144CA0FB055E12EB0A004CF1CD
:1004B8000001049005919BB24FF00009716A89B25E
:1004C800ADF80E10BDF80E1089B2994205D201346C
:1004D8004FEA144C22044FF00109BDF80E30BDF864
:1004E8000EA004A903C98DE8030001991FFA8AFA2E
:1004F800BAEB000061EB4101101841EB0C01A84276
:1005080071EB0E019BB2D9D3A8F80030B9F1000FF6
:1005180000D03C6006B0BDE8F08700BF004801404D
:100528008C020020880200202DE9F043294BDFF8D7
:10053800A8805B6ADFF8A4E0B8F80020DEF8006065
:10054800244F84B09BB2ADF80430BDF804309BB2A0
:100558009A42BDF80420BDF8043088BF01369BB22A
:100568004FEA064188BFCEF800604FEA164CCC1817
:100578004CF100050294039592B24FF000097B6A92
:100588009BB2ADF80630BDF806309BB2934205D257
:1005980001364FEA164C31044FF00109BDF8062028
:1005A800BDF8063002AD30CD9BB21B1B65EB450490
:1005B8005B1844EB0C04834274F1000492B2DED35E
:1005C800A8F80020B9F1000F01D0CEF8006004B0FF
:1005D800BDE8F083004801408C020020880200201A
:1005E80010B4104B104C5B6A1049208882B09BB243
:1005F800ADF80630BDF806200B68BDF806C0A4F8B3
:1006080000C092B29042BDF8062084BF01330B604F
:1006180092B2190C1B04981841F1000102B010BCE9
:10062800704700BF004801408C020020880200206B
:1006380030B50B4D2B685B685C68FFF7D1FF094B41
:100648002C341C6000F0FAFF2B68074A5B680749E6
:100658005B682C330B60536843F08053536030BDA4
:10066800680000209402002000ED00E090020020C5
:100678000BDF704710B50A4C23681B689B685BB199
:10068800FFF7B6FE236807491868002200F0A8FAA9
:10069800BDE8104000F098BF034800F073FFEFE793
:1006A800680000205103000801C0FFFF2DE9F04752
:1006B800514DDFF84891DFF8488186B000F0B0FE70
:1006C80000F024FF2B684F494F48A1FB03134FF05C
:1006D800E022C3F35713013B536100240623F0269D
:1006E80080F8236001219461136180F822604FF43F
:1006F800802000F031FE03A800F07EFE2B68434AFC
:10070800434DADF81440A2FB03239B0C4FF6FF7238
:10071800284603A9ADF80C300492ADF80E4000F05D
:1007280033FE2146284600F06FFE28466C62012100
:1007380000F06AFE22464FF4E131204601F092F8BB
:100748003448334E02F0E4FA334802F0E7FA33480B
:1007580002F0EAFA6B6AB9F80020D8F80040304D88
:100768009BB2ADF80830BDF808309BB29A42BDF88C
:100778000830BDF808A088BF01341FFA8AFA4FEA8A
:10078800044288BFC8F800404FEA144C12EB0A0034
:100798004CF100010390049100279BB2BE46716A98
:1007A80089B2ADF80A10BDF80A1089B28B4204D993
:1007B80001344FEA144C22040127BDF80A30BDF871
:1007C8000AA003A903C98DE8030001991FFA8AFA50
:1007D800BAEB000061EB4101801841EB0C01854246
:1007E8007EEB01019BB2DAD2A9F800300FB1C8F84C
:1007F800004006B0BDE8F087640000208C020020AD
:10080800880200201F85EB5100ED00E083DE1B43CA
:1008180000480140590400084D0400083904000844
:100828007F841E0072B6704762B6BFF36F8F704741
:1008380001480021FFF71CBF7D0300080148002183
:10084800FFF716BF8D0300080C4B1B685A6893F816
:1008580066305268792B05D14FF0E0210B6943F0DF
:1008680001030B61836A403383F30988032383F30D
:100878001488BFF36F8F1368184700BF6800002003
:10088800114410B4A1F140024FF08074416203603A
:10089800826201E9180010BC704700BF2DE9F04FD3
:1008A8000B7884B0894604461746ABB3252B25D16F
:1008B80099F80130302B00F0D780A3F13002092AD3
:1008C80009F101094FF0200B40F2D8804FF0FF35B5
:1008D800583B202B1AD8DFE803F02A1919191919DF
:1008E8001919191919B260191919191919196C193D
:1008F8001919AD191976197219192A00002C00F066
:10090800CB802268137023680133236099F8013083
:1009180009F10109002BC9D12CB1236800221A70F2
:10092800236801332360002004B0BDE8F08F57F836
:10093800048B1021B8F1000F39D14FF030038DF836
:100948000030EA460123EB1A002B03F1FF360ADDDB
:10095800002C00F08580236883F800B023680133F9
:100968002360013EF4D208F10105554406E02368EE
:1009780018702368013323605545C7D015F8010D59
:10098800002CF4D10028F7D002F0D4F95545BDD099
:1009980015F8010D0028EFD0F6E757F8048BB8F1E9
:1009A800000FC0F290800A21B8F1000FC5D046466A
:1009B80094E057F8048B09F101090A21BAE757F8BE
:1009C800048B0A21B6E757F8046B002E6FD03078F5
:1009D800002800F09B80002D98D06CB12368187017
:1009E80023680133236016F8010F6B1E58B1002BE2
:1009F8008CD01D46002CF1D102F09CF916F8010F9D
:100A08006B1E0028F3D1AE1E002B7FF77FAF6CB1B1
:100A1800236883F800B0236801332360002E06F1B1
:100A2800FF337FF773AF1E46002CF1D1584602F012
:100A380081F9F3E757F8048B102104257AE757F872
:100A4800040B002C38D0226810702368013323600F
:100A580099F8013009F10109002B7FF427AF5BE712
:100A6800584602F067F97CE79B4699F80230A3F1F3
:100A78003002092A09F102093FF628AF002505EBE3
:100A8800850503EB450519F8013FA3F13002092A52
:100A9800A5F13005F3D91BE7184602F04BF999F890
:100AA800013009F10109002B7FF400AF34E7194E3A
:100AB8003C20002D91D129E710F0FF003FF426AF2C
:100AC80002F038F922E7C8F10006DCB123682D22CC
:100AD8001A70236801332360013D0A21EA46DFF8D2
:100AE80038E0D44600233046B6FBF1F601FB160287
:100AF80088421EF802200CF8012B984603F10103E6
:100B0800F1D220E72D2002F015F9E5E76E1E2B46FD
:100B18007AE700BF2C4A0008344A000832B1C9B24B
:100B28000244034603F8011B9342FBD1704700BF00
:100B38000FB400B582B003AA002052F8041B01923A
:100B4800FFF7ACFE02B05DF804EB04B0704700BFDD
:100B580030B50C2000F0DAF80446C8B1082000F0DF
:100B6800D5F8054688B1082000F0D0F890B14DF6C8
:100B7800AD6385E809000022002380E80C0000230B
:100B880025606060A360204630BD204600F090F8E4
:100B98000024F8E7204600F08BF8284600F088F893
:100BA800F6E700BF30B5044608200D4600F0AEF861
:100BB800034650B10020002183E80300A268606862
:100BC800013280E828006360A26030BD0B681A68B3
:100BD8000AB11846704703681B681846704700BF7B
:100BE800036870B51C6823680E4615461BB908E0F3
:100BF800246823682BB120462946B0470028F7D03F
:100C080070BD002070BD00BF30B5204D204C81B0B4
:100C1800FFF74CFD1F4A20492048FFF789FF294666
:100C28001F4800F0CBF829461E48FFF781FF2568CA
:100C3800FFF78EFF236828601B681BB3FFF73CFB98
:100C4800134B009018680830FFF79AFA104C236885
:100C58001A68916881B1009900290CBF6E21792129
:100C680083F86610126812685A6050680430FFF7FB
:100C7800EBFD002001B030BD0B4800F083FC236879
:100C88001A68E8E7094800F07DFCD7E748CC01007E
:100C980068000020484A0008644A00086C4A0008B6
:100CA800B8130020844A000801C0FFFF02C0FFFFFC
:100CB80030B5134D2B6893F86630792B04460AD06B
:100CC80050F8043C0F49104A096823F0010340F822
:100CD800043C116030BDFFF7A5FD2A6854F8043CB8
:100CE80092F8662007480849006823F00103792A2A
:100CF80044F8043C0860EDD1BDE83040FFF794BDEE
:100D0800680000209C02002098020020F0B5294CC1
:100D1800236893F866E0C61CBEF1790F81B026F00F
:100D2800030635D0244F39686FF007050C4606F1E5
:100D3800080C0868002834D04B6813F0010301D16F
:100D480006E00068436813F00103FAD1044601463F
:100D58003BB90A682AB1536803F001031146002B16
:100D6800F7D02B1B0B44634584E80A00E1D304EB5E
:100D78000C0346F00106BEF1790F3C606660236003
:100D880044F80C105D6009D004F1080001B0F0BD12
:100D9800FFF748FD236893F866E0C3E7FFF744FDD3
:100DA800F2E7BEF1790FF1D10090FFF73DFD009811
:100DB800ECE700BF6800002098020020A1F1080CB1
:100DC800033121F00301103910B44160064C074982
:100DD80000EB0C030022036040F80C2020605A60EE
:100DE80010BC0860704700BF9C02002098020020D9
:100DF80030B58568446800232B80E368984700284D
:100E08000ADB23794BB1012B0BD123694FF0FF305B
:100E1800984701232B70002030BD23690120984793
:100E2800F7E74FF0FF3030BD30B584682378ABB1B9
:100E38000C4D2B6893F86630792B03D00023637030
:100E4800002030BDFFF7EEFC2B6893F866300022D7
:100E5800792B6270F4D1FFF7E7FCF1E74FF0FF3030
:100E680030BD00BF6800002070B58668337881B057
:100E78000D4623B3134C236893F86630792B09D0B9
:100E8800707820B901237370CDB901B070BD4FF0EF
:100E9800FF30F9E7FFF7C6FC7078236850B193F884
:100EA80066304FF0FF30792BEED10090FFF7BCFC95
:100EB8000098E9E7012293F866307270F3E74FF083
:100EC800FF30E2E7680000202DE9F04F8368824692
:100ED8001878DAF8046086B08E461346002800F0C9
:100EE800D98002F1010B4A1E059203965D46894698
:100EF80004937F4B1B6893F86630792B00F0DB80F6
:100F0800039C002702E0002F00F0B58023694FF012
:100F1800FF3098470028F6D10446FFF761FB2746C3
:100F2800039E80468B4602E0002F00F0A9803369BB
:100F38004FF0FF3098470028F6D0FFF751FBB0EB91
:100F4800080061EB0B02B0F5167F72F10003C0F0E8
:100F5800B580FFF745FB039F0646884602E0002C54
:100F680000F093803B694FF0FF3098470028F6D196
:100F78000746FFF735FB801B61EB08015A2871F122
:100F88000001C0F0A0805B48FFF7D2FD049B01334D
:100F980000F0A680DDF814B001955E46CB464FF010
:100FA8000809002402960097DAF804703B694FF0AC
:100FB800FF3098470028F9D0FFF712FB064688460D
:100FC80002E03B69984750B1FFF70AFB851B61EBCC
:100FD8000801652D71F100014FF0FF30F1D3502D5C
:100FE80041DC282DD4BF0020012040EA4400B9F19B
:100FF8000109C4B2D8D1009F3F48029EFFF798FD6F
:10100800019B06F8014F0137BB42C8D1019DD94663
:101018002C46012F99F8003006DD039A5179B1EB7F
:10102800530F4FEA53023BD13D461F46049BCE4621
:1010380043B1581E059A7044002312F8011F9042CC
:101048000B44FAD1FA0742D51EF80520DBB29A42C2
:1010580020D1274B1B6893F86630792B3DD020466A
:1010680006B0BDE8F08F009F2348019DD9463C4655
:10107800FFF75EFDCDE72148FFF75AFD012745E759
:101088001F48FFF755FD012751E71E48FFF750FDA0
:10109800012467E74FF0FF34204606B0BDE8F08F23
:1010A80019483946FFF744FD114B1B6893F8663021
:1010B800792B7FF425AFFFF7C1FB21E701461348E1
:1010C800FFF736FD15E71248FFF732FD11E76FF01D
:1010D8000104204606B0BDE8F08FFFF7A9FBBEE784
:1010E8003D46049B99F80070CE462C46A1E700BF08
:1010F80068000020C04A0008C84A0008A04A000842
:10110800A44A0008B44A0008CC4A0008A84A0008C3
:10111800B84A000870B505460C4608262B69002019
:1011280098472868FFF700FA2B6901209847286834
:10113800230648BF4000FFF7F7F96400013EE4B218
:10114800ECD170BD2DE9F04F83681B7805468A46BF
:101158001646002B55D0DFF820814768D8F80030B4
:1011680093F86600002A70D04C1E02F1FF3B23461C
:1011780059444FF0000C13F8012F99429444FAD1C6
:1011880079285FFA8CF944D03C48FFF7D1FC3B69D9
:10119800002098474FF46170FFF7C6F93848FFF709
:1011A800C7FC3B69012098476420FFF7BDF9DA4482
:1011B80014F8011F6868FFF7ADFFA245F8D149464A
:1011C8006868FFF7A7FF3B69002098473868FFF772
:1011D800ABF93B69012098476420FFF7A5F93B6903
:1011E800002098473868FFF79FF93B690120984726
:1011F800D8F8003093F86630792B06D03046BDE831
:10120800F08F4FF0FF30BDE8F08FFFF711FBF5E7E7
:10121800B146FFF713FB1948FFF78AFC3B6900202A
:1012280098474FF46170FFF77FF91548FFF780FC86
:101238003B69012098476420FFF776F9002EBED05D
:101248000AF1FF3406F1FF3BB1E77928E0D00B48FB
:10125800FFF76EFC3B69304698474FF46170FFF723
:1012680063F90748FFF764FC3B690120984764204D
:10127800FFF75AF9B146A2E768000020D84A0008EB
:10128800DC4A00081E4A936803F00C03042B10B4D0
:101298001AD0082B1AD01B4B194A036094681A49B4
:1012A800C4F303140C5DE34043609468C4F38224E0
:1012B8000C5D23FA04F48460926810BCC2F34232D5
:1012C8008A5CD340C3607047104BE5E753685168A8
:1012D80013F4800F536814BF0C4A0A4AC3F38813E7
:1012E80001F03F01B2FBF1F202FB03F3044A52683A
:1012F800C2F3014201325200B3FBF2F3CCE700BF64
:10130800003802400024F4004400002040787D01A9
:10131800044A136B11B103431363704723EA0003B4
:101328001363704700380240044A536B11B10343FA
:101338005363704723EA0003536370470038024041
:10134800044A136C11B103431364704723EA000382
:101358001364704700380240044A536C11B10343C8
:101368005364704723EA000353647047003802400F
:10137800044A136A11B103431362704723EA000356
:10138800136270470038024070B41A4C02684E6805
:101398000D88A04293B220D0B0F1804F12D0A4F5AE
:1013A8007C44A0420ED004F58064A0420AD004F523
:1013B8008064A04206D003600123C662856270BCC7
:1013C800436170474A8823F0700313430360012385
:1013D800C662856270BC436170474A8823F0700317
:1013E80013430360C66285628B7A0363012370BC72
:1013F800436170470000014000234FF0FF32426014
:101408000381036083727047036819B143F00103D5
:10141800036070474FF6FE7213400360704700BFC9
:10142800344A35481368002143F001031360916082
:10143800136823F0847323F48033136050601368B7
:1014480082B023F480231360D16000910191136866
:1014580043F48033136003E0009BB3F5A04F09D039
:10146800136803F400330193009B01330093019B3D
:10147800002BF1D01F4B1B6813F4003318BF012356
:101488000193019B012B05D01C4B4FF000629A6021
:1014980002B07047174B1A491A6C1A4842F080522A
:1014A8001A640A6842F440420A609A689A609A6824
:1014B8009A609A6842F480529A6058601A6842F0BA
:1014C80080721A601A689201FCD50F4A40F20361D3
:1014D8001160996821F003019960996841F002014F
:1014E800A2F580629960936803F00C03082BFAD187
:1014F800CAE700BF003802401030002400ED00E0C9
:101508000070004019604108003C0240164A936888
:1015180003F00C03042B0CD0082B0CD0134B124AED
:10152800134892681349C2F30312825CD3400B60DC
:101538007047114BF3E75368516813F4800F5368F1
:1015480014BF0D4A094AC3F3881301F03F01B2FBE7
:10155800F1F202FB03F3044A5268C2F3014201327A
:101568005200B3FBF2F3DAE7003802400024F4003B
:10157800540000206400002040787D014FF0FF30C7
:10158800704700BF10B50446FFF74CF921460A48DA
:10159800FFF7CEFA094B0A491A6813688B4204D13F
:1015A80005E052F8083F8B4201D09C42F9D15168BE
:1015B8000448FFF7BDFAFEE7E04A0008F001002002
:1015C80011C0FFFFF04A000830B51A4D2B68596862
:1015D8004A6892F86600022804BF012082F8660073
:1015E80042F2127400E02B681868FFF7EFFA013C2A
:1015F800436801461BD093F86620012AF3D1DA6DBF
:10160800002AF0D1B3F86420013A92B2D0B2A3F81C
:1016180064200028E7D128680224416042EA1222A7
:1016280083F86640B3F86000A3F8642030BD024830
:10163800FFF7A8FF6800002001C0FFFF034B1A68EE
:10164800136E01331366FFF715B800BF680000205A
:10165800F0B5064681B068208DB2FFF757FB044607
:1016680000285CD0314F3B6893F86620792A4ED029
:1016780018682146FFF796FA002850D03968446068
:10168800B1F864202660002341F61F7C02F1010EA8
:10169800E365A4F86230A5652846A1F864E0A4F8DB
:1016A800602084F86630A4F864C0FFF72FFB6065FB
:1016B800002837D03B6893F86630792B2BD02A4620
:1016C8006921FFF72BFA606D04223321FFF726FA10
:1016D800606D05F18043043B00EB83003321042255
:1016E800FFF71CFA616D33462A46201DFFF7C8F83C
:1016F800A06D636D2268B4F8601000900C48FFF785
:1017080017FA0123002084F8663001B0F0BDFFF716
:1017180089F83B68ACE7FFF787F8606DCFE70548C5
:10172800FFF730FF0448FFF72DFF00BF68000020D7
:10173800F84A000803C0FFFF04C0FFFF30B5154D8D
:10174800154C144840F2255102F094F903462846F6
:10175800FBB102F069F9B4F88230B4F880200133A3
:1017680003F07F0392B29342C0B20CD0B4F8822047
:1017780092B2A054A4F88230B4F8843001339BB2FA
:10178800A4F88430DDE7D4F888300133C4F8883011
:10179800D7E730BD00100140A402002030B5164D37
:1017A800164C154840F2255102F064F903462846C4
:1017B8000BB302F039F9B4F81231B4F8102101333F
:1017C80003F07F0392B29342C0B20ED0B4F8122154
:1017D80014FA82F282F89000A4F81231B4F81431A5
:1017E80001339BB2A4F81431DBE7D4F81831013384
:1017F800C4F81831D5E730BD00440040A4020020E9
:1018080030B5164D164C154840F2255102F032F904
:10181800034628460BB302F007F9B4F8A231B4F82E
:10182800A021013303F07F0392B29342C0B20ED0DD
:10183800B4F8A22114FA82F282F82001A4F8A231A5
:10184800B4F8A43101339BB2A4F8A431DBE7D4F88F
:10185800A8310133C4F8A831D5E730BD00140140E0
:10186800A4020020F0B5C0B28DB00D46D4B206284F
:1018780005D8DFE800F0A3713E04040408004FF027
:10188800FF300DB0F0BD01210846FFF741FD0121F1
:101898002020FFF761FD814808220B2102F026F87D
:1018A8007E4808220C2102F021F8002602237C48F9
:1018B80009934FF4C05208A901270A9308920B967E
:1018C8000C9701F0ABFF4FF440237648049504A928
:1018D800ADF81C600596069302F036F8002C00F06F
:1018E800C6807048012102F08FF86F4B83F88C4056
:1018F8008CE001210846FFF70BFD01214FF4003071
:10190800FFF71EFD65480722022101F0EFFF63483B
:101918000722032101F0EAFF002602235F4809930A
:101928000C2208A901270A9308920B960C9701F03C
:1019380075FF4FF440235D48049504A9ADF81C6079
:101948000596069302F000F8002C79D0574801213B
:1019580002F05AF8564BC9E701210220FFF7D8FCDC
:1019680001211020FFF7F8FC52480722062101F058
:10197800BDFF072211464F4801F0B8FF0026022399
:101988004C480993C02208A901270A9308920B968C
:101998000C9701F043FF4FF440234748049504A9EE
:1019A800ADF81C600596069301F0CEFF002C30D0F0
:1019B8004148012102F028F8404B97E701210846E9
:1019C800FFF7A6FC4FF40044002334480B9301258D
:1019D80008A90A930C930894099501F01FFF214662
:1019E8002E4801F079FF6420FEF73AFD21462B4886
:1019F80001F06EFF4FF4FA70FEF732FD30490091A6
:101A0800304B314A3148294600F00AFE00200DB01B
:101A1800F0BD29483A4640F2255102F009F825233D
:101A280002A8ADF808308DF80A40039701F07AFE55
:101A3800224BA3F88040A3F88240A3F88440B7E77C
:101A48001A483A4640F2255101F0F2FF262302A82F
:101A5800ADF808308DF80A40039701F063FE174B84
:101A6800A3F81041A3F81241A3F814416EE70D48FA
:101A78003A4640F2255101F0DBFF472302A8ADF8B2
:101A880008308DF80A40039701F04CFE0B4BA3F881
:101A9800A041A3F8A241A3F8A44122E70000024014
:101AA8000008024000140140C40300200044004024
:101AB800340300200004024000100140A40200206A
:101AC800C8010020D4000020AC01002054040020EC
:101AD800C0B200B5062805D8DFE800F028221404B3
:101AE8000404070000205DF804FB1248202101F0DF
:101AF800B9FF114B93F88C206AB1003818BF012048
:101B08005DF804FB0D48202101F0ACFF0C4B93F865
:101B18008C20002AF1D1B3F8840080B25DF804FB70
:101B28000848202101F09EFF074BE3E700F0FCFA8C
:101B38005DF804FB00140140C40300200044004089
:101B48003403002000100140A4020020C0B210B5E8
:101B5800CCB2062833D8DFE800F028041C32323231
:101B680010001B48802101F07DFF0028F9D0214694
:101B78001748BDE8104001F053BF1648802101F016
:101B880071FF0028F9D021461248BDE8104001F045
:101B980047BF1148802101F065FF0028F9D0214690
:101BA8000D48BDE8104001F03BBF204600F0AAFAFE
:101BB8000A4A1368642B03F1010101D0116010BDBA
:101BC8000023BDE8104005201360FEF749BC00BFA4
:101BD800001001400014014000440040A002002011
:101BE80030B5C0B282B006280FD8DFE800F0046A2A
:101BF8003E0E0E0E11000DF1070000F0A1FA0028AC
:101C0800F9D09DF8070002B030BD002002B030BD09
:101C1800554C94F8AC51002D40F08180B4F8A021C7
:101C2800B4F8A23192B29BB29A42F7D0FEF7FAFD0D
:101C3800B4F8A021B4F8A23192B29BB29A4269D00A
:101C4800B4F8A03114FA83F393F82051B4F8A03112
:101C5800013303F07F03A4F8A031B4F8A431013BA9
:101C68009BB2EDB2A4F8A43154E03F4C94F81C5157
:101C7800002D6CD1B4F81021B4F8123192B29BB295
:101C88009A42F7D0FEF7CEFDB4F81021B4F812311D
:101C980092B29BB29A423DD0B4F8103114FA83F351
:101CA80093F89050B4F81031013303F07F03A4F88F
:101CB8001031B4F81431013B9BB2EDB2A4F81431E1
:101CC80028E0294C94F88C50002D34D1B4F88020A9
:101CD800B4F8823092B29BB29A42F7D0FEF7A2FDD6
:101CE800B4F88020B4F8823092B29BB29A4211D0F4
:101CF800B4F880309BB2E55CB4F88030013303F06F
:101D08007F03A4F88030B4F88430013B9BB2EDB275
:101D1800A4F884308DF80750FEF786FD71E7134C60
:101D28002021204601F09EFE0028F9D00F4801F03E
:101D38007BFEC0B267E70E4C2021204601F092FEE0
:101D48000028F9D00A4801F06FFEC0B25BE7094CE1
:101D58002021204601F086FE0028F9D0054801F030
:101D680063FEC0B24FE700BFA40200200014014088
:101D7800001001400044004010B5074C2068FF28BF
:101D880007D0064A064B12689B6806499847FF2306
:101D98002360002010BD00BF00010020480A002079
:101DA800480100205C0A0020432301480B8070474B
:101DB800040100201F4A1368052B70B503F10101C7
:101DC80002D01160002070BD1B4D29780023012925
:101DD8001360F7D0194E1A4A31681468B1F5006FCC
:101DE8001FD0A14222D0174A98BF641A12FA81F272
:101DF80088BFC1F50064D0F8EC35B3F83930A34298
:101E08000BD21944E41A31600F490C600121297082
:101E1800812100F07BFA002070BD21442346002474
:101E2800F1E7336014B1074A1946E4E700232B7041
:101E3800C8E700BF440A00204C0A0020540A0020CA
:101E4800580A0020640A0020500A0020C9B201EB99
:101E5800810130B500EBC101094D0A4BB1F8881377
:101E68001B69044628469847D4F8EC352A46B3F847
:101E780040300121204600F023FA002030BD00BF89
:101E8800641200204801002070B50B7813F060023E
:101E98000C46054611D0202A18D1CA884E78CAB1F6
:101EA8001B0634D51F4B20499B6830469847E2886B
:101EB8001D49284600F03CFC06E04B780A2B0FD061
:101EC8000B2B1FD0062B10D0002070BD00F0AEFEEB
:101ED800022070BD134B11469B6830469847F3E7C4
:101EE8001249012200F024FCEEE74B881B0A212B43
:101EF80003D1CA883A2A28BF3A220D49284600F059
:101F080017FCE1E78B7853B9084A1360DCE7094905
:101F1800094B0E6004491A6000F024FCD4E700F075
:101F280085FED1E7480100205C0A0020A4120020A9
:101F38001601002000010020480A002010B5812168
:101F4800044600F09FF90121204600F09BF9822108
:101F5800204600F097F9024B5B689847002010BDB7
:101F680048010020D0F8EC2510B50446B2F8392015
:101F78000223812100F04CF9D4F8EC250223B2F8B1
:101F880040200121204600F043F903230822822142
:101F9800204600F03DF9084A084B022191801B6851
:101FA8009847D4F8EC35064AB3F84030012120466A
:101FB80000F086F9002010BD98010020480100209B
:101FC8006412002070B5124B1A78012A01D0002043
:101FD80070BD104C216899B1D0F8EC350E4DB3F8AE
:101FE80039302A6899420ED9C91AD61821600B4C83
:101FF8002E60812114FA82F200F088F9002070BD69
:102008001970002070BD56180B460021EEE700BF7E
:102018004C0A0020500A0020540A0020640A0020BC
:1020280000207047202810B414D021280FD1104B5D
:102038001A680A701A68120A4A705A888A70DA7816
:10204800CA701A790A715A794A719B798B71002082
:1020580010BC7047064B91F804C048798A790C681F
:10206800587183F804C09A711C60002010BC704736
:102078005C01002010B599B100EB010E094C0A492A
:1020880001380EF1FF3E0A6810F801CF04F802C0CB
:10209800531CB3F5006F08BF002386450B60F2D1CF
:1020A800002010BD640A0020580A002070B5F1B164
:1020B800104B114C1E68114D2368014401F1FF3E7D
:1020C800013802E07045134611D07F2B08BF00216C
:1020D80003F1010208BF0A4610F801CF05F803C052
:1020E80018BF114696422160ECD1022070BD002035
:1020F80070BD00BFA8120020AC120020B012002052
:1021080000207047064A116810B44B1C054CB3F503
:10211800006F605408BF002310BC1360704700BFF5
:10212800580A0020640A0020034A044B10681B6800
:10213800C01A18BF01207047AC120020A812002056
:102148000B4B0C4A10B411681C688C4203460CD027
:10215800094C615C1970116810BC01207F2901EBE2
:10216800000308BF002313607047002010BC7047AD
:10217800AC120020A8120020B0120020F0B50646CC
:1021880001F05CFD75780120A6F812016DB30021FD
:10219800334632460C46402782F81811A2F81E1121
:1021A8000131A94282F8190182F81B41C2F8207155
:1021B800C2F82441C2F82C4102F12802ECD10022D5
:1021C8001146402083F87023A3F876230132AA42EF
:1021D80083F8711383F87313C3F87803C3F87C1377
:1021E800C3F8841303F12803ECD1304601F032FE22
:1021F800304601F0B3FD0021304601F053FE304671
:1022080001F090FE3046BDE8F04001F01BBE00BF73
:102218005FFA81FC090600B592B2DBB21AD40CEB66
:102228008C0E00EBCE0E282101FB0C01CEF8782392
:10223800002201F55C718EF870C38EF873338EF846
:102248007123022B04BF00230B7101F023FF002030
:102258005DF804FB0CF07F0C0CEB8C0E00EBCE0E43
:10226800282101FB0C01CEF82021012201F58C71F7
:102278008EF818C18EF81B31AEF81EC18EF81921E0
:10228800DFE700BF4FFA81FCBCF1000FCBB201F0D1
:102298007F0200B54FF02801B5BF01FB020101FB29
:1022A800030301F58C7103F55C714FEADC7C0A705D
:1022B80081F801C001F028FF00205DF804FB00BF91
:1022C80010B501F07F0404EB840C00EBCC0C9BB23E
:1022D800CCF884330023CCF87C238CF87043CCF8FA
:1022E80088338CF87133C378282101FB0401012B52
:1022F80001F55C7108BFCCF880231CB901F0D2FF4E
:10230800002010BD01F01EFF002010BD10B501F027
:102318007F0404EB840E00EBCE0ECEF82C310023A4
:10232800CEF83031282303FB040C01238EF8184122
:10233800CEF82421CEF828210CF58C718EF81931AD
:102348001CB901F0AFFF002010BD01F0FBFE00201A
:1023580010BD00BF4FFA81FCBCF1000F00B501F0C1
:102368007F02CBB24FF02801B3BF01FB020101FB92
:10237800030303F55C7101F58C714FEADC7C0123E2
:102388008B700A7081F801C001F0F0FF00205DF841
:1023980004FB00BF4FFA81FCBCF1000F10B5CBB2B3
:1023A80001F07F024FF02801B5BF01FB020101FBDC
:1023B800030301F58C7103F55C7100244FEADC7CA2
:1023C8008C700A7081F801C001F0F4FF204610BD3E
:1023D8000269C9B21068002361F30A13034313604A
:1023E800704700BF10B5D0F8E43504461B6998471C
:1023F800032384F81231002010BD00BF00B5D0F8C7
:10240800E435042280F81221DB68984700205DF843
:1024180004FB00BFD0F8E035DB6900B503B198478D
:1024280000205DF804FB00BF00B5D0F8E0351B6A5A
:10243800984700205DF804FB00B5D0F8E0355B6AEA
:10244800984700205DF804FB00B5D0F8E4355B69D7
:10245800984700205DF804FBD0F8E43510B5044631
:102468009B699847D4F8E03500215B682046984777
:10247800002010BD002310B5194604464022FFF77E
:10248800C7FE8021002340222046FFF7C1FED4F872
:10249800E435A078012284F812215B68984700206F
:1024A80010BD00BF10B582B06946044600F0ACFB11
:1024B8009DF8001001F01F03012B0AD0022B16D043
:1024C80073B101F080012046FFF744FF002002B0FD
:1024D80010BD6946204600F0FBFA002002B010BD8E
:1024E8006946204600F078F9002002B010BD694620
:1024F800204600F017FB002002B010BD11F0FF01CC
:1025080030B5044605D190F81131022B0DD00020CA
:1025180030BDD0F8E0355B69002BF8D090F8122177
:10252800032AF4D19847002030BDD0F83421D0F8E0
:1025380020319A4211D9C078D4F824110128A2EB8D
:10254800030208BFC918C4F8342108BFC4F824110D
:1025580092B2204600F0FCF8D9E7D0F83821B2FB57
:10256800F3F503FB152565B993420AD8D0F83C3139
:102578009A4206D22A46294600F0EAF8C4F83C51A5
:10258800C5E7D4F8E035DB681BB194F81221032ABB
:1025980003D0204600F010F9B9E720469847F8E73D
:1025A80011F0FF0110B5044605D190F81131032B45
:1025B8000DD0002010BDD0F8E0359B69002BF8D075
:1025C80090F81221032AF4D19847002010BDD0F8C2
:1025D8008C33D0F87823934213D9C078D4F87C137D
:1025E8000128A3EB020304BF8918C4F87C139A429C
:1025F80028BF1A46C4F88C3392B2204600F0C2F8BD
:10260800D7E7D0F8E0351B691BB190F81221032AEF
:1026180003D0204600F0C0F8CBE79847F9E700BFA1
:102628002DE9F041044615461E46DDF818800F4690
:1026380001F042FA20463946C4F8E065C4F8E4855A
:10264800C4F8E855FFF79AFDD4F8E4351B689847B5
:102658002046BDE8F04101F077BA00BFD0F8E03578
:1026680010B50446C9B21B689847D4F8E4359B688E
:102678009847002010BD00BF00B5D0F8E035C9B2BA
:102688005B68984700205DF804FB00BF12230148EF
:102698000B80704798010020042301480B80704785
:1026A8009401002010B5044C04480A46214600F065
:1026B800D7FA204610BD00BF34130020204B000875
:1026C80010B5044C04480A46214600F0C9FA2046D1
:1026D80010BD00BF34130020384B000810B5044C5F
:1026E80004480A46214600F0BBFA204610BD00BF48
:1026F800341300204C4B000810B5044C04480A461B
:10270800214600F0ADFA204610BD00BF341300206A
:102718005C4B000810B5044C04480A46214600F0FA
:102728009FFA204610BD00BF34130020684B0008F4
:1027380000B593B20A460221C0F83431C0F83831E6
:1027480080F811110021FFF7E1FD00205DF804FB7E
:1027580000B593B20A460021FFF7D8FD00205DF8C6
:1027680004FB00BF00B593B20A460321C0F88C33BE
:10277800C0F8903380F811110021FFF7A1FD002067
:102788005DF804FB00B593B20A460021FFF798FDF7
:1027980000205DF804FB00BF10B5002304210446A7
:1027A8001A4680F811111946FFF7B0FD204601F0CE
:1027B8002FFE002010BD00BF10B5002305210446E0
:1027C8001A4680F811111946FFF77AFD204601F0E4
:1027D8001FFE002010BD00BF70B54B7882B00C46BC
:1027E8000546092B13D8DFE803F030411256126F63
:1027F800871222058978B24E0129317007D890F8DE
:102808001231022B00F0B580032B00F0968094F96A
:102818000030002B01DBE38893B980212846FFF7BD
:1028280099FD284601F0F4FD002002B070BDCA8869
:10283800012A77D091F90030002BEEDB002AECD08A
:1028480000212846FFF786FDEBE790F81231023B9E
:10285800012BDCD8D0F814319A49002B0CBF012386
:10286800032301220B60FFF763FFDDE790F81231C5
:10287800023B012BCBD84B88012BD5D1D0F8E035C2
:1028880000229B68C0F8142121462846984728460C
:10289800FFF782FFC8E74B88012B00F00081022B6D
:1028A800C2D18B88DAB2002ABED101691B0A4A68F4
:1028B800013B1046042B00F2D980DFE813F0E10059
:1028C800DC00D300EB00E6004B68002B9FD190F8AA
:1028D80012314988032B9AD001F07F0480F8134104
:1028E8002146FFF775FD2846FFF756FF002C3CD020
:1028F800022385F8123197E74A88130A013B062B11
:1029080085D801A151F823F0ED290008B129000864
:102918009F2900081728000817280008172800080A
:102928001728000890F81231022B30D0032B17D04B
:1029380091F90030002B83DA6FE7002900F0B580A9
:1029480090F81011012907D0FFF796FE317885F825
:1029580010112846FFF782FE2846FFF71DFF63E7A0
:1029680000F58871FFF7E4FE5EE7012385F8123170
:102978005AE70029F0D00121032380F8101180F8CC
:102988001231FFF76BFE2846FFF706FF4CE74E496A
:10299800FFF7CEFE48E7D2B2052A3FF638AFDFE8A8
:1029A80002F0595149413931D0F8E03580789B6AB5
:1029B8000DF10601984702234370C5F8EC05BDF8F0
:1029C8000620002A3FF430AFE388002B3FF42CAFF9
:1029D8009A4228BF1A4601462846ADF80620FFF756
:1029E800A7FE21E7D0F8E83580781B680DF10601CD
:1029F8009847E388402B69D095F81221012ADED147
:102A08000822E2E7D0F8E83580789B690DF10601E5
:102A18009847D4E7D0F8E83580785B690DF106016E
:102A28009847CCE7D0F8E83580781B690DF10601A6
:102A38009847C4E7D0F8E8358078DB680DF10601DF
:102A48009847BCE7D0F8E83580789B680DF1060117
:102A58009847B4E7D0F8E83580785B680DF106014F
:102A68009847ACE7032363F3061002464A602846FA
:102A7800FFF792FED8E6022363F306100246F5E755
:102A8800012363F306100246F0E7052363F30610FB
:102A98000246EBE7042363F306100246E6E7D0F8A4
:102AA800E025C0F814319368EEE6022380F812316D
:102AB80080F81011FFF7E0FD2846FFF76DFEB3E63A
:102AC80030130020681300206C13002008227FE7D1
:102AD80030B590F81231032B04460D460AD10B7914
:102AE800012B07D8D0F8E0359B689847EB88ABB145
:102AF800002030BD95F90030002B01DBEB8843B98D
:102B080080212046FFF726FC204601F081FC0020AA
:102B180030BD00212046FFF71DFCF5E72046FFF7F2
:102B28003BFEE5E730B50C468A886378012B0546FD
:102B3800D1B204D0032B35D0BBB1002030BD90F802
:102B48001231022B15D0032B43D094F90030002BFF
:102B580047DBE388002B44D000212846FFF7FAFB27
:102B6800284601F055FC002030BD90F81231022BA8
:102B780004D14A06E1D0FFF7EDFBDEE7032BE4D1F1
:102B8800130633D401EB810100EBC10191F87233D4
:102B9800003B18BF01231B49022228460B60FFF7A0
:102BA800C7FDCAE790F81231022BE2D0032BCCD133
:102BB80063881BB94A0601D0FFF7CCFBD5F8E0358E
:102BC80021469B68284698472846FFF7E5FD0020E0
:102BD80030BD6388002BB0D14B06F5D0FFF7DAFB88
:102BE800ECE780212846FFF7B5FBB9E701F07F0144
:102BF80001EB810100EBC10191F81A31003B18BFCC
:102C08000123C8E770130020B0F8C8350B80B0F86E
:102C1800CA354B80B0F8CC358B80B0F8CE35CB8038
:102C28000122C0F83C3180F81121704710B591F9A4
:102C38000030002B044601DBCB8843B920468021B5
:102C4800FFF788FB2046BDE8104001F0E1BB0021FA
:102C5800FFF780FB2046BDE8104001F0D9BB00BF5C
:102C680030B400B3037803B303461C4613F8015F7E
:102C7800002DFAD1C0F101032344DBB201335B001C
:102C8800DCB2138003230C704B7004785CB1022310
:102C980000255A1CD2B2CC548D5410F8014F02337F
:102CA800DBB2002CF5D130BC704702242346E8E79C
:102CB800014B01221A60704774130020014B012256
:102CC8001A60704774130020014B02221A60704783
:102CD80074130020014B01221A60704774130020FE
:102CE800014B01221A60704774130020014B012226
:102CF8001A60704774130020014B01221A60704754
:102D0800741300200020704700207047002070478F
:102D1800014B1860704700BFEC010020014B1860A0
:102D2800704700BFE8010020014B1860704700BFE2
:102D3800E401002000B5034B1B68984700205DF8AC
:102D480004FB00BFEC0100202DE9F04F814620F084
:102D58000F088B4600296AD008F110084FF0000AC6
:102D68000A20FFF7E7FFA8F110041C2544FA05F034
:102D780000F00F000928CCBF37303030043DFFF792
:102D8800D9FF2B1DF2D12020FFF7D4FF27460026BC
:102D98000FE02020FFF7CEFF2020FFF7CBFF2020F9
:102DA800FFF7C8FF072E1FD00136102E07F10107C5
:102DB80020D04F45EDD33D789F2D4FEA151098BF91
:102DC800303005F00F0588BF3730FFF7B3FF092D06
:102DD80094BF05F1300005F13700FFF7ABFF202065
:102DE800FFF7A8FF072EDFD12020FFF7A3FF013749
:102DF8000826DEE72020FFF79DFF7C20FFF79AFFDB
:102E08002378A3F120025E2A4FF02E0004F101047A
:102E180098BF1846FFF78EFF4445F1D17C200AF190
:102E2800100AFFF787FFD34508F1100898D800204B
:102E3800BDE8F08F2DE9F043064686B000254FF037
:102E4800030873882B41DB0725D56A007468B168CD
:102E580008FA02F31C40D440012C07D0022C4AD0B7
:102E680004B34FF0FF3006B0BDE8F0833778012F88
:102E780071D0022F5AD0002FF3D121462046FEF7F9
:102E880047FA029403946B480497AC4001A905974C
:102E9800019400F0C3FC0135102DD2D1002006B0FA
:102EA800BDE8F08396F800900B40B9F1010F23FAC2
:102EB80002F700F0A680B9F1020F00F08A80B9F19C
:102EC800000FCED101210846FEF722FA0123039311
:102ED800012F03FA05F3CDF80890CDF8109001936F
:102EE80003D0022F01D0002FBBD15248059701A96A
:102EF80000F094FCCFE73778012F56D0022F3FD04F
:102F0800002FAED101210846FEF702FA012303FA89
:102F180005F24848019201A90135029304930393ED
:102F2800059300F07BFC102D8BD1B7E721460420D8
:102F3800FEF7EEF904FA05F301933F4802940023E3
:102F480001A9013504930394059300F067FC102D43
:102F58007FF477AFA2E739460220FEF7D9F907FADE
:102F680005F3019335480297002301A9013504931D
:102F78000397059300F052FC102D7FF462AF8DE7A4
:102F880001210420FEF7C4F9012303FA05F22A48B7
:102F9800019201A90135029304930393059300F06C
:102FA8003DFC102D7FF44DAF78E720463946FEF7FB
:102FB800AFF907FA05F32148019301A901350297F2
:102FC80004970397059700F029FC102D7FF439AF7B
:102FD80064E701210420FEF79BF901230393012FE5
:102FE80003FA05F302940494019304D0022F02D04B
:102FF800002F7FF436AF1048059701A900F00EFCAA
:1030080049E749460220FEF783F909FA05F3012F3B
:1030180002940494CDF80C90019304D0022F02D0AE
:10302800002F7FF41EAF0548059701A900F0F6FBB5
:1030380031E700BF000002400008024000040240DF
:1030480010B50378012B044605D0022B0DD043B1EF
:103058004FF0FF3010BD074800F036FC6388184079
:1030680010BD054800F030FCF8E7044800F02CFCDF
:10307800F4E700BF000402400000024000080240DC
:1030880000B503784288012B01EA020106D0022B21
:103098000ED04BB14FF0FF305DF804FB064800F04E
:1030A80017FC00205DF804FB044800F011FCF8E769
:1030B800034800F00DFCF4E7000402400000024061
:1030C8000008024000B503784288012B01EA02019A
:1030D80006D0022B0ED04BB14FF0FF305DF804FB49
:1030E800064800F0F9FB00205DF804FB044800F0F6
:1030F800F3FBF8E7034800F0EFFBF4E700040240B5
:10310800000002400008024000B503784288012B05
:1031180001EA020106D0022B0ED04BB14FF0FF306E
:103128005DF804FB064800F0DBFB00205DF804FBBB
:10313800044800F0D5FBF8E7034800F0D1FBF4E7BA
:1031480000040240000002400008024000B50120CF
:1031580000F054FB38B1054B1B6898475DF804EB49
:10316800012000F055BB5DF804FB00BF7813002078
:1031780000B5022000F042FB38B1054B5B68984768
:103188005DF804EB022000F043BB5DF804FB00BFD0
:103198007813002000B5042000F030FB38B1054B4F
:1031A8009B6898475DF804EB042000F031BB5DF89C
:1031B80004FB00BF7813002000B5082000F01EFBB8
:1031C80038B1054BDB6898475DF804EB082000F040
:1031D8001FBB5DF804FB00BF7813002000B510206A
:1031E80000F00CFB38B1054B1B6998475DF804EB00
:1031F800102000F00DBB5DF804FB00BF7813002021
:1032080000B5202000F0FAFA28B11B4B5B699847FB
:10321800202000F0FDFA402000F0F0FA28B1164B0B
:103228009B699847402000F0F3FA802000F0E6FA06
:1032380028B1114BDB699847802000F0E9FA4FF478
:10324800807000F0DBFA30B10B4B1B6A98474FF4E3
:10325800807000F0DDFA4FF4007000F0CFFA40B152
:10326800054B5B6A98475DF804EB4FF4007000F07B
:10327800CFBA5DF804FB00BF7813002000B54FF407
:10328800806000F0BBFA30B1234B9B6A98474FF43B
:10329800806000F0BDFA4FF4006000F0AFFA30B182
:1032A8001D4BDB6A98474FF4006000F0B1FA4FF409
:1032B800805000F0A3FA30B1174B1B6B98474FF4BE
:1032C800805000F0A5FA4FF4005000F097FA30B1A2
:1032D800114B5B6B98474FF4005000F099FA4FF48C
:1032E800804000F08BFA30B10B4B9B6B98474FF442
:1032F800804000F08DFA4FF4004000F07FFA40B1B2
:10330800054BDB6B98475DF804EB4FF4004000F089
:103318007FBA5DF804FB00BF78130020F0B51D46A6
:1033280086B00C46064601214FF480401746FEF74A
:1033380013F8032D6CD0042D05D0022D66D04FF064
:10334800FF3006B0F0BD102230780492012300212E
:1033580005930193012840F201130391ADF8013060
:1033680000F08780022800F0D7800028E7D1B4F564
:10337800807F00F0478165DC202C4BDC8C42DEDD51
:10338800013C1F2CDBD801A353F824F09936000820
:1033980081360008473300086936000847330008BB
:1033A8004733000847330008513600084733000800
:1033B80047330008473300084733000847330008FD
:1033C80047330008473300083936000847330008F8
:1033D80047330008473300084733000847330008DD
:1033E80047330008473300084733000847330008CD
:1033F80047330008473300084733000847330008BD
:1034080047330008473300082136000808229BE7A5
:103418000C2299E7402C00F06381802C8FD1072182
:1034280000F07AFAB84B029417228DF80020DF6179
:1034380002A800F0A7F9B5486946FDF719F9002078
:1034480006B0F0BDB4F5805F00F0408178DDB4F5DA
:10345800804F00F0CD80B4F5004F40F082800F21FE
:1034680000F05AFAA84B029428228DF80020DF6356
:10347800DEE7B4F5807F00F0C58000F38380202C60
:10348800C8DC002C7FF75BAF013C1F2C3FF657AF21
:1034980001A353F824F000BFCF360008C93600084E
:1034A80047330008C336000847330008473300088D
:1034B80047330008BD360008473300084733000883
:1034C80047330008473300084733000847330008EC
:1034D80047330008B7360008473300084733000869
:1034E80047330008473300084733000847330008CC
:1034F80047330008473300084733000847330008BC
:1035080047330008473300084733000847330008AB
:1035180047330008B1360008B4F5804F68D0B4F5D9
:10352800004F9CD0B4F5005F7FF409AF0D2100F087
:10353800F3F9754B029428228DF800205F6377E732
:10354800B4F5806F00F0D680B4F5006F2AD10B2156
:1035580000F0E2F96C4B029428228DF80020DF621B
:1035680066E7B4F5005F7FF4EAAE0D21002000F0B5
:10357800D3F9654B4FF40051282202918DF80020B1
:103588005F6355E7B4F5805F00F0A0801BDDB4F5FC
:10359800804F2DD0B4F5004F3FF461AFB4F5005F14
:1035A800C4D0CCE6B4F5007F7FF4C9AE0921002071
:1035B80000F0B2F9544B4FF40071172202918DF8C4
:1035C80000205F6234E7B4F5806F00F09380B4F5B3
:1035D800006FBCD0B4F5007F7FF4B1AE092100F0D4
:1035E8009BF9494B029417228DF800205F621FE770
:1035F8000E2100F091F9444B029428228DF8002006
:103608009F6315E7082100F087F93F4B02941722C2
:103618008DF800201F620BE70521002000F07CF9DF
:10362800394B2021172202918DF800205F61FFE6B7
:103638000421002000F070F9334B10210A22029176
:103648008DF800201F61F3E60321002000F064F9E3
:103658002D4B0821092202918DF80020DF60E7E652
:103668000221002000F058F9274B0421082202917A
:103678008DF800209F60DBE60121002000F04CF966
:10368800214B0221072202918DF800205F60CFE6CE
:103698000021084600F040F91B4B01210622029147
:1036A8008DF800201F60C3E605210120B6E704213C
:1036B8000120BFE703210120C8E702210120D1E74B
:1036C80001210846DAE700210120E3E70C2100F098
:1036D80023F90D4B029428228DF800201F63A7E6DA
:1036E800062100F019F9084B029417228DF80020E2
:1036F8009F619DE60A2100F00FF9034B02942822EE
:103708008DF800209F6293E6781300202D3700087B
:10371800034B40F0BF6040F40030D860704700BFF2
:1037280000ED00E010B502784368012102F01F04A3
:103738004FEA521EA140DBB1104B4478DB686FEAB8
:10374800030CCCF3022C8378CCF10400C0B204FA49
:1037580000F00F2444FA0CF4C0B223400343084895
:103768001B010244DBB282F8003340F82E1010BD72
:10377800034B0EF1200E43F82E1010BD00ED00E0B3
:1037880000E100E04368C26830B4046803F1804394
:1037980003F59E336FEA040C02B3174A8168156873
:1037A80005EA0C051560556805EA0C0555601D68A5
:1037B8002C431C600368946824EA03049460D0686E
:1037C800102920EA0300D0600ED001F1804202F5F2
:1037D8009E3230BC11680B43136070471A6802EAC6
:1037E8000C0230BC1A607047916819439160D16827
:1037F8000B4330BCD3607047003C0140034B5B690E
:10380800184214BF01200020704700BF003C01404F
:10381800014B5861704700BF003C014000222DE970
:10382800F04713460D684FF0010E032604E00133FC
:10383800102B02F1020245D00EFA03FC3CEA050403
:10384800F5D10768D1F8048006FA02F427EA0407DC
:103858000760D0F800A008FA02F908F1FF3849EA31
:103868000A09B8F1010F2746C0F800906FEA04046E
:1038780019D8D0F8088004EA080484608C68D0F865
:103888000880944044EA08048460D0F804808C8955
:1038980028EA0C0CC0F804C0D0F804C09C40A4B2BC
:1038A80044EA0C044460D0F80CC00C692CEA070701
:1038B800C760C768944001333C43102BC46002F1D1
:1038C8000202B9D1BDE8F087006980B2704700BF35
:1038D80089B28161704700BF09048161704700BFE8
:1038E800436989B259404161704700BFC1F3CC03B5
:1038F80000EB830001F00701036A89004FF00F0C09
:103908000CFA01FC23EA0C030362036AD2B28A4070
:103918001A430262704700BF01F0FC0303F18043C1
:1039280003F59C3301F003019A6889004FF00F0CEE
:103938000CFA01FC22EA0C029A609A68C0B288402C
:1039480010439860704700BF0269CB8822F4405248
:1039580013439BB230B58A89036104468B88088972
:103968000D460343E168688921F4B051034321F00F
:103978000C019BB20B439BB2E360636923F4407371
:1039880013439BB284B063616846FDF77BFC1C4B14
:103998009C4205D003F580639C4201D0029B00E065
:1039A800039BE1682A68E5680804164803EB83036B
:1039B8004CBF5200920003EB8303B3FBF2F3A0FB6E
:1039C800032149094FF0640C0A010CFB1133290447
:1039D8000AD5DB003233A0FB0303C3F342131343BE
:1039E8009BB2A36004B030BD1B013233A0FB0303BC
:1039F800C3F3431313439BB2A36004B030BD00BFAD
:103A0800001001401F85EB51C36819B143F40053FE
:103A1800C36070474DF6FF721340C360704700BF24
:103A2800C1F30801416070474068C0F3080070475F
:103A380001F01F0CC1F342110123012903FA0CF311
:103A48000DD002290CBF103014301AB1026813438C
:103A580003607047026822EA0303036070470C3072
:103A6800F3E700BF036889B2194214BF01200020A0
:103A7800704700BFC1F3421C00B5012301F01F0EBF
:103A8800BCF1010F024689B203FA0EF310D0BCF163
:103A9800020F0CBF006950691840126830B1090A5A
:103AA80001238B40134214BF012000205DF804FB62
:103AB800C0681840F1E700BF30B5012186B0214C3D
:103AC8000846FDF725FC4FF4D8500023022201A92F
:103AD800019020460493059303920292FFF79EFEFD
:103AE80020460A220821FFF701FF20460A22092161
:103AF800FFF7FCFE20460A220B21FFF7F7FE2046BF
:103B08000A220C21FFF7F2FE4FF48063012501A978
:103B18000193022201232046039204930595FFF79F
:103B28007DFE0A2211462046FFF7E0FE2946802046
:103B3800FDF7FAFB29464FF08050FDF719FC06B057
:103B480030BD00BF0000024000B54FF4C06082B035
:103B5800FFF7DEFD40F24311032201236846ADF86A
:103B680000108DF802200193FFF7DCFD02B05DF82C
:103B780004FB00BF704700BF704700BF014800F05A
:103B880057BC00BF5404002030B582B00023124C4B
:103B9800019305460320FFF7EDFFEB68013C1A6926
:103BA800019216D0019A002AF4DA01990A4A41F0E2
:103BB800010101910199196119690191013A02D034
:103BC8000199C907F8D4032002B0BDE83040FFF7D7
:103BD800D1BF02B030BD00BF410D030030B4C4787E
:103BE800D2B29BB26CB902F13405DA1C921050F8CB
:103BF800255006D02346013351F8040B28609A4219
:103C0800F9D1002030BC70471FFA82FC0CF1030C7C
:103C18005FEAAC0C30B4D0F8D0500BD00A46002381
:103C280001332C6842F8044B9C45F9D101EB8C0018
:103C380030BC7047084630BC704700BF01224023A3
:103C480091422DE9F0414280838057D0002941D02C
:103C58004378067800224FF40061C2600161002BAE
:103C680061D09E464FF460654FF488674FF48068D2
:103C780002F5106300F1140C00214CF8043F0131E7
:103C880003F500747145CCF83C4003F12003F4D3EC
:103C9800C0F81480C0F8CC70BEB100F18C0302F5F6
:103CA800A061B40003EB860C43F8041F9C4501F1A6
:103CB8002001F9D100F1CC0302F58052191943F81B
:103CC800042F994202F58052F9D1C0F80C51002016
:103CD800BDE8F0814FF4A063C380174BC17240F276
:103CE8000C62164D164FDFF85C80174902804FF0C2
:103CF800060E0C261A46C3600161B9E702234FF489
:103D0800A0724FF4816403724FF0A043C172C28065
:103D18000E4D0F4FDFF83C800F4904804FF0040E22
:103D280008261A46E7E74FF460654FF488671A4695
:103D38004FF48068ACE700BF00000440000E044068
:103D4800400404400004044000080440000E0050F1
:103D580040040050000400500008005030B5037AB9
:103D6800C268012B04464FF000051AD1956B417AC1
:103D78006FF3104591B163F314559563D36823F439
:103D8800940323F0D80343F01003D3602046FFF7D1
:103D9800FBFEE378012B2CD0002030BDC5F3005387
:103DA800E9E7D36843F04003D360FFF7EDFE237AD9
:103DB800627AE168A3F10303B3FA83F35B09003A7B
:103DC8004FEA430318BF012243F00D0343EA0213ED
:103DD80063F317458D631420FFF7CEFE217AE2685E
:103DE8000329D36812D0D360E378012BD4D1E168DA
:103DF80002E0E1682A238B608B6823F03E0242F0E0
:103E08002A0262F307038B60002030BD43F480333D
:103E1800D360156B0A4B03EA154343F4A15343F0EF
:103E28000D0363F31F451563C820FFF7A5FEE3687C
:103E380045F400051D63C820FFF79EFED4E700BFC8
:103E480000E3FFFF03460020DA68936843F00103AC
:103E58009360704703460020DA68936823F00103F3
:103E68009360704700B582B000230193019B43F033
:103E780020030193019B61F38A130193C168019A9E
:103E8800074B0A610A690192013B02D0019A920626
:103E9800F8D40320FFF76EFE002002B05DF804FBA3
:103EA800410D030010B5C468E368C9B2C3F30762E3
:103EB80022F06002012962F31F6308D009B943F0B8
:103EC80080433220E360FFF757FE002010BD43F027
:103ED8000053F6E7C3685869C04300F00100704713
:103EE800C36858699B691840704700BF10B4C3681D
:103EF8000A4C4FF0FF310246002098615961596021
:103F080059619C61D178064A9C69B1FA81F14909E5
:103F180042EA011222439A6110BC704700080080EF
:103F28000C383C40F0B504460020D4F80C31226926
:103F380018601368E16860F3CC231360E37A012BFF
:103F480082B011D113683E4843F003031360802503
:103F58003C4B4D623C4A8862C1F804314FF4A0736F
:103F6800C1F80821C1F80C3100230193019B43F0EB
:103F780020030193019A354B102060F38A120192B5
:103F8800019A0A610A690192013B02D0019A9006DE
:103F9800F8D40320FFF7EEFD00230093009BE168AF
:103FA80043F010030093009A284B0A610A690092B3
:103FB800013B02D0009AD206F8D40320FFF7DAFDBD
:103FC800266900254FF0FF3335617561B361F561EE
:103FD800607830B304F114024FEA800CFF2702EB3B
:103FE800800052F8043F19680029B4BF4FF090418F
:103FF8000021824219601D619F60F2D104F15002D4
:1040080002EB0C000027FF2552F8043F196800292D
:10401800B4BF4FF090410021904219601F619D602C
:10402800F2D1336943F480733361E378012B01D112
:10403800074B33632046FFF759FF002002B0F0BD5D
:1040480080002000A000800020012000410D030016
:104058000301810003699868C0F3410002281ABF70
:1040680000F00100C0F10300012070470369816975
:104078009A680868C2F34102022A0CBF0322002290
:1040880062F30A0008605A6842F4807200205A609D
:10409800704700BF30B44C7891F800C0012C4FF045
:1040A800010303FA0CF30CBF0CF1060C0CF1150C10
:1040B8009BB250F82C4025684FF000020CBF63F308
:1040C8000F0263F31F422B0415D48B6891F803C0C9
:1040D800C988C3F30A0343F0805343F400430CF048
:1040E800030C01F00F0143EA8C4343EA815305496D
:1040F80029400B4323600369D9690A43002030BC77
:10410800DA617047007833EC91F801C00A78BCF1A5
:10411800010F4FF0010303FA02F30CBF0632153208
:104128004FF000019BB20CBF63F30F0163F31F4113
:1041380050F82230026900201860D36923EA01038D
:10414800D36170472DE9F0474D780A784B6991F8AB
:1041580003C0012D2CD015328F6850F82250C7F3B8
:1041680012022C682E690BB33B44013BB3FBF7F3F7
:10417800C3F3090707FB02F23B46C2F3120242EA05
:10418800C34262F31C062E61C378012B04BF0B697E
:104198006B61BCF1010F3CD0C4F3076363F07B0390
:1041A80063F31F642C600020BDE8F0870123E6E775
:1041B80000EB8208D8F818703C683E6973BB06F0BB
:1041C800604646F400263E61C278012A5ED0BCF102
:1041D800010F44D10069806810F4807FC4F3076040
:1041E8000CBF60F05B0060F06B0060F31F643C6024
:1041F800002AD8D198B203308010D8F8D040D2D055
:10420800C9681346013351F8042B22609842F9D14A
:10421800C9E74B796BB344F00054BDE7D1F808A067
:1042280006F060491E4E0AEB030E0EF1FF3EBEFB80
:10423800FAFE06EACE4EC3F312064EEA060E4EEA20
:10424800090EBCF1010F764616D0C7F810E0C37806
:10425800012B21D0036995405A6B15435D63C4F364
:10426800076363F07B0363F31F643C600020BDE8D1
:10427800F08744F080548FE76CF35E763E61C27835
:10428800012AA7D10A697A610122A3E70A697A613A
:10429800BCF1010FF8D0E2E70B697B61DFE700BFF3
:1042A8000000F81F70B44B784D69012B22D00B78B1
:1042B8008A68153350F8236034683369C5B923F424
:1042C800C01302F07F0242F4002223F07F0313435D
:1042D8003361C378012B04BF0B697361C4F30763AF
:1042E80063F07B0363F31F643460002070BC704785
:1042F8004A61E4E7826914681369F5B923F4C013C5
:1043080023F07F0345F400252B431361C378012B69
:104318001CD0C4F3076565F07B0565F31F64146062
:10432800002BE2D14B69002BDFD002690878516B72
:10433800012383400B435363D7E78E68AE423ABFED
:104348004E6106F07F0505F07F05D7E70B780D690C
:10435800063350F82310C4F3076363F07B0363F359
:104368001F644D610020146070BC70474B780A7858
:10437800012B08D0153250F82220136843F400139B
:104388001360002070470632094950F8220002687D
:10439800002AA8BFC2F380739B0301EA124143F0CD
:1043A80020030B4363F31F4202600020704700BFE5
:1043B800DFBFFFFF4A780B78012A0CBF063315339D
:1043C800CA7850F823000368023A012A6FF355535C
:1043D8008CBFC3F30072012262F31C7303600020D8
:1043E800704700BF03699869DB691840000C704783
:1043F800C9B21531036950F8212090685B691840EB
:10440800704700BF03699869DB69184080B270473C
:10441800436D064A1A61C278012A06D100F5B960CF
:1044280058614FF0802219681A607047180008C058
:104438002DE9F04F82B00446FFF74CFD18B9002073
:1044480002B0BDE8F08F2046FFF74AFD80460028FD
:10445800F5D0C0F3074A1AF0080040F0CA801AF0F5
:10446800040F72D118F0020F5FFA88F502D0E368E2
:1044780002225A61B8F1000F4FEA1867C0F27E8134
:1044880018F4006FC8F3072640F017812B0708D5EA
:104498009A4B1B682046DB689847E36808225A61F4
:1044A8000120E9063AD4F20600F12C81B30600F1A6
:1044B800E6801AF0100F09D0904B1B682046DB6984
:1044C8009847E3684FF480125A6101201AF0200FD0
:1044D80009D08A4B1B6820461B6A9847E3684FF44B
:1044E80000125A6101207E0609D5844B1B682046BC
:1044F8005B6A9847E3684FF080425A610120690778
:104508009ED5E3685D686A0705D57C4B1B68204625
:104518009B6A9847E3685D60012091E7E3689A69C0
:1045280022F010029A61D3F82080C8F34342022A8D
:1045380008F00F0900F0C581062A00F0AF819A69DA
:1045480042F010029A610120ADE72046FFF75AFFBA
:10455800814600284BD04FF0000B8DE8000525461A
:1045680004F11807A2465C4619F0010F31D0DAF8B9
:1045780010105FFA84FB08694E6B0BF1060226FAED
:104588000BF65AF82220F6019268F6B20643164056
:10459800F2B216F0010600F00C81584A486B3B68ED
:1045A80012684FF0010C0CFA04F820EA080052686F
:1045B8004863C3F808C05946504690479AF8032004
:1045C800012A00F09C81730640F1F9803A68402185
:1045D80091605FEA590904F1010405F1280507F122
:1045E8000407C1D15446DDF80080DDF804A001209D
:1045F80038E72046FFF7F6FE0546002800F041811F
:104608003E4FCDF8008004F15406A3464FF0000950
:1046180008E06D0809F1010906F104060BF1280B01
:1046280000F02D81E907F4D55FFA89F84146204664
:10463800FFF7DEFEC207C3B240F1C780336801222C
:104648009A60E278012A07D11A69DBF87833C2F355
:1046580012029B1ACBF888333B6841461B682046F8
:104668009847E378012BD4D1B9F1000FD1D194F850
:104678001131052BCDD12046FFF7CAFEC9E72046E8
:10468800FFF7F4FCE3682046DE68FFF7E3FC032845
:104698000CBF0922052262F38D260CBF00220122DD
:1046A800A270E3680CBF4FF400724022A2804FF45E
:1046B8000052DE6001205A61FBE6104B1B68204661
:1046C8005B69984723699968E3684FF400625A6107
:1046D800A37A83B1CA070ED5D4F80C3108491A68F1
:1046E80042F001021A601A6842F003021A600B696C
:1046F80043F006030B610120C8E600BF64010020F7
:1047080000ED00E0226953684FF0000823F0010330
:10471800536041462046FFF7A5FB627841465AB1EF
:1047280004F1140303EB820CFF2253F8040F826098
:10473800D86B63458260F8D10F22236962F30708BA
:104748002F2262F307014FF0FF329A614FF00112F6
:10475800DA61C3F8148019611A686FF30A121A60D3
:104768002046FFF755FE764BE2681B684FF48051F0
:104778001B69516120469847012097E6A37A43B107
:10478800D4F80C31D4F80C2123F0030161F30703AA
:1047980013606B4B22691B689969536823F0010306
:1047A800536020468847E3684FF000425A61012071
:1047B80066E653070FD53A68042393601E46B00790
:1047C8000ED53A680221916003E7980751D53368FE
:1047D80002229A601DE7160745D53A6808269660B2
:1047E80031067FF5F6AE3B68D5F82C019E69D5F801
:1047F8003011D5F820211FFA86FE461AB24228BF8A
:1048080032460332BEEB920F1E4624D828E0D5F874
:104818002031D5F824119E4228BF1E46B3B25A460D
:104828005046FFF7DBF9D5F83011D5F82431D5F823
:104838002C01314406F10308334481424FEA9808B9
:10484800C5F82431C5F8301165D23B689A6992B22F
:1048580090451E4604D28142A0EB0106D7D31E46DE
:104868008022B260B5E6D00661D53A681021916021
:10487800AFE6590707D5336804229A60C9E6DDF820
:1048880000800120EBE51A077FF5C3AE3B682046A0
:104898009B689847336808229A60BAE609EB890949
:1048A80004EBC909082204F5B9612046FFF7ACF901
:1048B800D9F88833C8F30A184344C9F88833E36839
:1048C8003DE647F6F07212EA080F3FF438AE09EBFE
:1048D800890904EBC909C8F30A18D9F87C134246B8
:1048E8002046FFF791F9D9F87C334344C9F87C3363
:1048F800D9F888334344C9F88833E3681FE6002CA5
:104908007FF461AE9AF81121042A7FF45CAE504618
:10491800FFF77EFD57E6DAF8100095F81861426B4C
:104928000121B14022EA01023E68426398E79106FC
:1049380058BF16467FF547AE3A682021916048E691
:1049480064010020534C425F4C4954453A2067703B
:10495800696F5F636F6E66696770696E7328290A8D
:1049680000000000534C425F4C4954453A207461A2
:10497800736B3028290A0000534C425F4C49544558
:104988003A207461736B302829202D206275665B8C
:10499800305D203D2025642C25640A00736C626418
:1049A80065766963650000006770696F5F646576A6
:1049B80069636500A4490008D04900088402002002
:1049C800240000200000000021000000000000007A
:1049D800000000003D020008E5010008B049000899
:1049E800F849000800000000000000000C0000204A
:1049F8000100800000800000000000000A2A2A2A26
:104A0800207461736B2025642C20737461636B3A86
:104A18002030782570202873697A65202564290A52
:104A2800000000003C4E554C4C3E00003031323303
:104A380034353637383961626364656600000000D2
:104A480041524D20436F72746578204D342028738D
:104A5800746D33326634787829000000302E393787
:104A6800000000005543582F4F53207625732062CD
:104A78006F6F74206F6E2025730A0000686561707F
:104A88005F696E697428292C202564206279746511
:104A98007320667265650A00410A0000420A000038
:104AA80073686974312C2025640A0000430A0000E9
:104AB80073686974320A0000706173730A00000039
:104AC800460A000064622C25642C25640A00000054
:104AD8005A0A0000580A00000A2A2A2A2048414C8B
:104AE8005420282564290000202D2025730A000061
:104AF8007461736B2025643A20307825702C2073FC
:104B08007461636B3A20307825702C2073697A655C
:104B18002025640A0000000053544D3332205669A2
:104B2800727475616C20436F6D506F727400000071
:104B380053544D6963726F656C656374726F6E6907
:104B4800637300003030303030303030303530432F
:104B58000000000056435020436F6E6669670000EE
:104B680056435020496E74657266616365000000A3
:104B78006E6F206572726F72000000006661696C6A
:104B8800757265006E6F207461736B7320746F208B
:104B980072756E006B636220616C6C6F6320666176
:104BA800696C65640000000074636220616C6C6F5E
:104BB80063206661696C656400000000737461635A
:104BC8006B20616C6C6F63206661696C65640000C2
:104BD8007461736B206E6F7420666F756E6400006D
:104BE8007461736B2073757370656E642066616998
:104BF8006C6564007461736B20726573756D6520F4
:104C08006661696C656400007461736B20696E7617
:104C1800616C6964207072696F7269747900000050
:104C2800737461636B20636865636B206661696C8C
:104C3800656400007069706520616C6C6F63206644
:104C480061696C6564000000706970652064656165
:104C58006C6C6F63206661696C65640073656D6177
:104C680020616C6C6F63206661696C65640000008C
:104C780073656D61206465616C6C6F632066616942
:104C88006C65640073656D61206F7065726174692D
:104C98006F6E206661696C65640000006D657373F2
:104CA800616765207175657565206E6F7420656D27
:104CB80070747900756E6B6E6F776E2072656173B4
:044CC8006F6E00000B
:104CCC00BC4900080C000020E44900083903000826
:104CDC00250300081D030008150300080D03000838
:104CEC0005030008F90D000800000000710E000813
:104CFC00310E0008D10E00084D1100080000000014
:104D0C000000000000000000010203040102030483
:104D1C00060708090000000000000000010203045F
:104D2C000607080900E1F5056C00002000000000F2
:104D3C000000000000000000000000000000000067
:104D4C000000000000000000000000000000000057
:104D5C000000000000000000000000000000000047
:104D6C000000000000000000000000000000000037
:104D7C000000000000000000000000000000000027
:104D8C000000000085150008000000000000000075
:104D9C00000000006D1F0008451F0008911E000850
:104DAC0000000000811D0008CD1F0008551E0008E2
:104DBC00BD1D00080000000000000000B11D00082F
:104DCC00FF00000009024300020100C03209040088
:104DDC00000102020100052400100105240100015C
:104DEC00042402020524060001070582030800FFC3
:104DFC0009040100020A000000070501024000003E
:104E0C000705810240000000292000080921000844
:104E1C002D2000087D200008B520000800C20100EC
:104E2C000000080068010020A925000805250008DD
:104E3C00AD2400081D2400087D240008052400086A
:104E4C00ED230008312400084124000851240008F7
:104E5C006124000804030904120100020000004050
:104E6C00830440570002010203010000952600084C
:104E7C00A1260008C9260008AD260008E526000872
:104E8C00012700081D270008B92C0008C52C0008B4
:104E9C00D12C0008012D0008DD2C0008E92C00089D
:104EAC00F52C0008152D0008112D00080D2D0008FB
:104EBC00F401002000000000784B0008FFFFFFFF0A
:104ECC00844B000801C0FFFF8C4B000802C0FFFFA1
:104EDC009C4B000803C0FFFFB04B000804C0FFFF51
:104EEC00C44B000806C0FFFFD84B000807C0FFFFEB
:104EFC00E84B000808C0FFFFFC4B000809C0FFFF8F
:104F0C00104C00080AC0FFFF284C00080BC0FFFF24
:104F1C003C4C00080CC0FFFF504C00080DC0FFFFBC
:104F2C00644C00080EC0FFFF784C00080FC0FFFF58
:104F3C008C4C000810C0FFFFA44C000811C0FFFFF0
:044F4C00BC4C000851
:040000050800039D4F
:00000001FF
